:020000040002F8
:1060000090E30020B1640200B9640200D162020092
:10601000BD640200BF640200C16402000000000011
:1060200000000000000000000000000015620200F7
:10603000C56402000000000059620200C964020049
:10604000B1700200CB640200DD730200D171020066
:10605000E1710200CB640200816A0200CB6402009D
:10606000CB640200CB640200CB640200CB6402006C
:10607000CB640200CB640200CB640200CB6402005C
:10608000E973020009710200CB640200CB640200D4
:10609000CB640200CB64020035720200CB640200C4
:1060A000CB640200CB640200CB640200CB6402002C
:1060B000CB640200CB64020000000000000000007E
:1060C000CB640200CB640200CB640200CB6402000C
:1060D000CB640200CB640200CB640200CB640200FC
:1060E000CB640200CB640200CB640200000000001D
:1060F00000000000CB64020000000000CB6402003E
:10610000000000000000000000000000000000008F
:10611000000000000000000000000000000000007F
:10612000000000000000000000000000000000006F
:10613000000000000000000000000000000000005F
:10614000000000000000000000000000000000004F
:10615000000000000000000000000000000000003F
:10616000000000000000000000000000000000002F
:10617000000000000000000000000000000000001F
:10618000000000000000000000000000000000000F
:1061900000000000000000000000000000000000FF
:1061A00000000000000000000000000000000000EF
:1061B00000000000000000000000000000000000DF
:1061C00000000000000000000000000000000000CF
:1061D00000000000000000000000000000000000BF
:1061E00000000000000000000000000000000000AF
:1061F000000000000000000000000000000000009F
:10620000DFF80CD000F0EEFB00480047FDD30200A1
:1062100090E30020264B19680868B0E8F04F80F33F
:106220000988BFF36F8F4FF0000080F3118870472B
:10623000000000000748006880F3088862B661B675
:10624000BFF34F8FBFF36F8F4FF4F07080F311885F
:1062500000DF000000600200EFF30980BFF36F8FE2
:10626000134B1A681EF0100F08BF20ED108A20E9AA
:10627000F04F106008B44FF0400080F31188BFF376
:106280004F8FBFF36F8F0FF023FA4FF0000080F3B2
:10629000118808BC19680868B0E8F04F1EF0100FAC
:1062A00008BFB0EC108A80F30988BFF36F8F704786
:1062B000F857002000B583B002900091019244F29B
:1062C000010071466A4602F0A9F903B000BD000062
:1062D000094B1EF0040F1CBFEFF309801847EFF3C2
:1062E00008800649064A884201D8904202D88D4665
:1062F0004FF0000018470000356C020090E30020CA
:1063000090DB002030B450E8012F93B2C4892344BD
:106310008489A34228BF1B1B0489A34202BFBFF389
:106320002F8F002007E0C3EA020340E80134002C6D
:10633000E9D14FF001000A6030BC704750E8012FEE
:10634000C2EA024240E801210029F7D1704730B487
:1063500050E8022F1FFAA2F3C488A34202BFBFF382
:106360002F8F00200DE0C48923448489A34228BFD5
:106370001B1BC2EA034340E80234002CE8D14FF073
:1063800001000A6030BC704750E8022FC2EA224286
:1063900040E802210029F7D17047034653E8022F55
:1063A000D988B2EB324F4FF0000017BF92B241EAEA
:1063B000014142EA014104E05A68B2EB324F08BFA2
:1063C000012043E80212002AE8D1704730B40446A5
:1063D00054E8000F0D4644E80053002BF8D1156037
:1063E00030BC704730B4044654E8000F40EA010561
:1063F00044E80053002BF7D1156030BC704730B42F
:10640000044654E8000F00EA010544E80053002B5D
:10641000F7D1156030BC704730B4044654E8000F23
:1064200080EA010544E80053002BF7D1156030BC29
:10643000704730B4044654E8000F00EB010544E80F
:106440000053002BF7D1156030BC704730B40446C0
:1064500054E8000FA0EB010544E80053002BF7D1EE
:10646000156030BC704770B404464FF0000054E82B
:10647000006F0D68AE4207BF44E80023012044E8E6
:1064800000630E60002B1CBF0020F0E770BC70475B
:1064900030B4044654E8000F88422CBF451A054624
:1064A00044E80053002BF5D1156030BC7047000064
:1064B0000648804706480047FEE7FEE7FEE7FEE79E
:1064C000FEE7FEE7FEE7FEE7FEE7FEE76972020091
:1064D00001620200202A04DB203A00FA02F10020C7
:1064E00070479140C2F1200320FA03F31943904012
:1064F0007047000000487047686B030040EA0103E2
:106500009B0703D009E008C9121F08C0042AFAD269
:1065100003E011F8013B00F8013B521EF9D270472D
:10652000D2B201E000F8012B491EFBD270470022D5
:10653000F6E710B513460A4604461946FFF7F0FF82
:10654000204610BD421C10F8011B0029FBD1801A07
:10655000704730B504460020034600E05B1C9342C0
:1065600003D2E05CCD5C401BF8D030BD034611F88F
:10657000012B00F8012B002AF9D1184670472DE9AC
:10658000FE4F804681EA0300C00F0C46009021F0C8
:10659000004123F00045B8EB0200A94105D2404676
:1065A000214690461C460B46024623F0004010430D
:1065B00047D0270DC7F30A00C3F30A510290401ACF
:1065C000019040286BDAC3F3130040F4801B00985D
:1065D000924620B10023D2EB030A63EB0B0B019828
:1065E0005946C0F140025046FFF774FF06460D467B
:1065F00050465946019A00F017F910EB0800614126
:10660000002487EA115284EAE7731A4340D0009AC3
:1066100062B3019A012A4FEA075215DC001B61EBB5
:1066200002014FF0004202EA0752CDE90042001C8D
:1066300041F5801132462B4600F017F903B0BDE852
:10664000F08F40462146F9E7001B61EB0201001C78
:1066500041F5801300185B412018A2F5001747EBA5
:10666000030140EAD570B6196D4111E06D084FEA9B
:10667000360645EAC0754FEA0752001B61EB02017E
:10668000001C41F5801149084FEA300000195141C2
:1066900032462B4603B0BDE8F04F00F0D7B8009863
:1066A000012240000023D0EB020263EBE07300986C
:1066B00021464FEAE074B8EB000061EB0401E9E722
:1066C00083F000435BE781F0004158E72DE9FE4F7E
:1066D00081EA030404F0004421F0004100944FF0EB
:1066E000000B23F0004350EA01045ED052EA030499
:1066F0005BD0C3F30A54C1F30A552C44A4F2F3341B
:106700000194A0FB0254C1F3130141F48011C3F3BF
:10671000130343F4801301FB024400FB034E840A7D
:10672000970A44EA815447EA8357A4FB0768029515
:106730008D0A05FB07854FEA932C04FB0C542705B3
:10674000029D4FEA065847EA1637B5EB08056EEB8F
:10675000070C870E920E47EA811742EA8312A7FBC5
:106760000201B6EB0B0164EB00042B0D43EA0C3382
:106770005E1844EB1C50DA465146E7FB0201C5F3B4
:1067800013044FEA0B3343EA14534FEA0432019CDB
:1067900043EA0603A4F10C040294009CCDE900B482
:1067A00000F063F803B0BDE8F08F00200146F9E780
:1067B0000EB540F2334102910021CDE900110A46A5
:1067C0000B4600F052F803B000BD70B5C1F30A5299
:1067D00001F000450024C1F3130140F2FF3341F4FE
:1067E00080119A4201DA002070BD40F233439A4290
:1067F000A2F2334203DC524200F006F800E090407F
:106800002C43F1D0404270BD202A04DB203A21FA0B
:1068100002F00021704721FA02F3D040C2F12002B9
:106820009140084319467047202A06DBCB17203ACF
:1068300041FA02F043EAE07306E041FA02F3D04085
:10684000C2F12002914008431946704710B5141E4A
:1068500073F1000408DA401C41F1000192185B4119
:106860001A4301D120F0010010BD2DE9F04D9246F0
:106870009B4611B1B1FA81F202E0B0FA80F2203207
:106880009046FFF727FE04460F4640EA0A0041EA19
:106890000B0153465A46084313D0114653EA0100F0
:1068A00019D0C8F140025046FFF7AEFF05460E462C
:1068B000504659464246FFF70DFE084305D00120D9
:1068C00004E020463946BDE8F08D0020054346EA45
:1068D000E0762C4337430A986305E40AA0EB0800EE
:1068E0000022FD0A44EA47540A3002D5002001463E
:1068F000E9E7010510196941DDE908450019694119
:10690000BDE8F04DA2E72DE9F04D81EA030404F063
:10691000004B21F0004514464FF0000A23F00041DF
:1069200050EA050220D054EA01021DD0C5F30A57EF
:106930000246C5F31303C1F31300C1F30A5640F432
:10694000801543F48013A7EB0608101BD64608F207
:10695000FD3873EB050002D308F1010801E092183D
:106960005B41B8F1000F03DA00200146BDE8F08D6D
:1069700000204FF48011064684460EE0171B73EB8F
:10698000050705D3121B63EB050306434CEA010C14
:1069900049084FEA300092185B4150EA0107EDD1F7
:1069A00052EA030012D082EA040083EA0501084398
:1069B00005D0101BAB4106D20122002306E00022C5
:1069C0004FF0004302E06FF0010253101AEB060093
:1069D0004CEB085110EB0A0041EB0B01BDE8F04D08
:1069E000FFF734BF064C074D06E0E06840F00103B6
:1069F00094E8070098471034AC42F6D3FFF704FC44
:106A000080870300A08703000EB5C10F80EAE07005
:106A10000844CA07002140F233438DE80E000A46BD
:106A20000B46FFF722FF03B000BD70B58C1810F8BD
:106A3000015B15F0070301D110F8013B2A1106D1C3
:106A400010F8012B03E010F8016B01F8016B5B1EDD
:106A5000F9D12B0705D40023521E0DD401F8013BB8
:106A6000FAE710F8013BCB1A921C03E013F8015B24
:106A700001F8015B521EF9D5A142D8D3002070BDA8
:106A80002DE9F04F00268DB0DFF8A081B1460496C5
:106A90004FF48075012437460596284607F068FFB5
:106AA00038B1D8F80403204203D0284607F056FF37
:106AB00026432D1D64007F1CADB2082FEDD34FF48B
:106AC000BE74204607F054FF48B1204607F046FF49
:106AD00046F0004604AA0221002007F029FF544C8A
:106AE00016F0FF0F15D00127002537420DD008EB17
:106AF0008501D1F81005D1F81015C0F3052054F820
:106B00002520C1F3014102B190477F006D1C082D83
:106B1000EBD3002E7EDA0020CDF82890411E0DF137
:106B2000100B07AACDF82C9042F82010401C91467B
:106B30000228F9D300252E46A11911F8607F91F99A
:106B4000000027F0C008401C40D007A9404606F0CE
:106B500028FF40B34FEA971A404603F0A7FC54F8C9
:106B600020701FB1BAF1030F03D006E0BAF1030F92
:106B70002CD10AA9404606F01CFF02A8CDF80880D7
:106B800007F02CFE029900EB8100D0F8000704A961
:106B9000C0F301400290404606F003FF002802982F
:106BA00002D0022802D011E003280FD1BAF1030F5E
:106BB00008D10298022833D00221404607F0D8FDC0
:106BC0006D1CEDB217B151464046B847761C042EF5
:106BD000B2D3002D21D001AA0221002007F0A8FE87
:106BE00000205A460DF1040152F8206051F820307F
:106BF000B34217D000200AAE4FEA090351F82070C3
:106C000042F8207056F8207043F82070401C02288B
:106C1000F4D300E001E0002D8CD10DB0BDE8F08F81
:106C20000321CAE7401C0228DED3F6E700600040DB
:106C300048A200201CB5814608F096F907F064FFD1
:106C40000028FBD130485FEA090507682F48304922
:106C50004FF00106A0EB01004FEAD00006EB004424
:106C600017D020462BA1AA6908F0C0F8D5E9020187
:106C7000CDE90001D5E9002320462CA108F0CEF88B
:106C8000E8690090D5E90423204636A108F0BDF854
:106C900003E020463DA108F0A5F81B48001D006850
:106CA000800703D52046464908F09CF8DFF8148198
:106CB000002500BF06FA05F0384206D058F8252016
:106CC0001AB1204640A108F091F86D1C1A2DF1D39D
:106CD000380606D50C480C30026820463DA108F065
:106CE00085F8380406D5084810300268204641A1CE
:106CF00008F07CF80448C8300068C00700D000BE27
:106D0000484600F085F8000028ED00E060880300A8
:106D1000B087030048415244204641554C542061FD
:106D20007420307825303858000000002020523080
:106D30003A2020307825303858202052313A20200F
:106D4000307825303858202052323A2020307825AB
:106D5000303858202052333A2020307825303858A7
:106D60000000000020205231323A2030782530389F
:106D70005820204C523A2020307825303858202096
:106D80005053523A2030782530385800537461639C
:106D90006B2076696F6C6174696F6E3A20737461F1
:106DA000636B20706F696E746572206F75747369A0
:106DB000646520737461636B20617265612E0000ED
:106DC000CC7C03008459002043617573653A20250B
:106DD000732E00004D656D4D616E616765204661E3
:106DE000756C7420416464726573733A2030782541
:106DF00030385800427573204661756C74204164C8
:106E000064726573733A203078253038580000007A
:106E1000BFF34F8F05480168054A01F4E061114353
:106E20000160BFF34F8F00BFFDE700000CED00E0F5
:106E30000400FA052DE9F04104461D4616460F46AA
:106E40002A2000F00FF9204600F000F9304600F04B
:106E5000FDF82B2000F006F9384600F0F7F8284638
:106E600000F0F4F8BDE8F0412C2000F0FBB810B5BC
:106E70000D2007F071FC0E2007F06EFC0B2007F0D0
:106E80006BFC0C2007F068FC0F2007F065FC0D2060
:106E900007F043FD0E2007F040FD0B2007F03DFDFD
:106EA0000C2007F03AFDBDE810400F2007F035BD7B
:106EB00010B5FFF7DCFF0E2007F086FC642006F01B
:106EC000C5FF0E2007F029FD642006F0BFFF0F204C
:106ED00007F023FD642006F0B9FF112000F0C2F88E
:106EE000782006F0B3FF362000F0BCF8002000F058
:106EF000C6F83A2000F0B6F8052000F0C0F8B2203D
:106F000000F0B0F80C2000F0BAF80C2000F0B7F850
:106F1000002000F0B4F8332000F0B1F8332000F086
:106F2000AEF8B72000F09EF8352000F0A8F8BB209E
:106F300000F098F8192000F0A2F8C02000F092F8B4
:106F40002C2000F09CF8C22000F08CF8012000F00A
:106F500096F8C32000F086F8122000F090F8C420C4
:106F600000F080F8202000F08AF8C62000F07AF8BF
:106F70000F2000F084F8D02000F074F8A42000F076
:106F80007EF8A12000F07BF8E02000F06BF8D02024
:106F900000F075F8042000F072F80D2000F06FF892
:106FA000112000F06CF8132000F069F82B2000F09D
:106FB00066F83F2000F063F8542000F060F84C20A1
:106FC00000F05DF8182000F05AF80D2000F057F896
:106FD0000B2000F054F81F2000F051F8232000F09F
:106FE0004EF8E12000F03EF8D02000F048F80420F0
:106FF00000F045F80C2000F042F8112000F03FF8B6
:10700000132000F03CF82C2000F039F83F2000F06D
:1070100036F8442000F033F8512000F030F82F20EB
:1070200000F02DF81F2000F02AF81F2000F027F8AC
:10703000202000F024F8232000F021F8212000F087
:1070400011F8BDE81040292000F00CB810B5044636
:10705000000A00F014F8E0B2BDE8104000F00FB8EC
:1070600000F00DB810B504460D2007F0ADFB20462A
:1070700000F005F8BDE810400D2007F04EBC70B5DB
:10708000044600250C2007F09FFB20064FF00B0064
:1070900002D507F042FC01E007F096FB0C2007F058
:1070A0003CFC60066D1C040EEDB2082DEAD370BDE9
:1070B00070B54FF48076304606F0B8FE114CB50539
:1070C00060B1304606F0B9FE0120C5F808036079CA
:1070D00020B9012060712168002088474FF4827632
:1070E000304606F0A3FE00280AD0304606F0A5FE82
:1070F0000220C5F808032168BDE870400120084758
:1071000070BD00003C5900202DE9F041164E4FF4AF
:10711000A071304608F013F80025EFF311844020E9
:1071200080F31188D6F804758100304608F007F81E
:107130000EF050FF381A20F07F46012E07D90EF0CE
:107140003BFF022803D000260EF050FF0543761EB9
:10715000FAD225B105494FF08050086040BFE0B237
:1071600080F31188BDE8F0810010014004ED00E0DB
:1071700000F04CB970B50E46144900EB400001EB2D
:10718000C0051446E86A183520B101280FD002283E
:1071900005D113E0284600F06DF9A04201D2002489
:1071A00011E022463146284600F09CF90BE02846C3
:1071B00000F060F9A042F4D20446F2E731462846D6
:1071C00000F063F90446204670BD00006CB8002052
:1071D000014902480CF0ECBD28A30020003000401B
:1071E000F8B54FF040200446114E4FF48C7108F072
:1071F00096F900281AD00025C4F81851D4F81801BF
:107200000090F07F3446FF2806D0A17F11B107F02F
:10721000C7FA01E007F063FB65772572D4E9002126
:1072200001B004F10800BDE8F0401047F8BD0000CF
:1072300004A3002008B500200090094869460068B2
:107240000EF01CF90098002808D006494FF0805035
:10725000086040BFBFF34F8FBFF36F8F08BD0000C2
:10726000705A002004ED00E04FF0805000218300B0
:10727000D0F83021C3F80C11C3F810114B4B196032
:107280004B4909684B4B19604949091D09681B1D89
:1072900019604749083109681B1D196044490C31C0
:1072A00009681B1D19604249103109681B1D1960CE
:1072B0003F49143109681B1D19603D49183109689F
:1072C0003C4B203319603A491C3109681B1D196079
:1072D0003749203109681B1D196035492431096877
:1072E0001B1D19603249283109681B1D196030497E
:1072F0002C3109681B1D19602D49303109682D4B4F
:10730000403319602A49343109681B1D1960284926
:10731000383109681B1D196025493C3109681B1D5E
:1073200019602349403109681B1D1960082A02D1E0
:10733000D0F8341111B1082A04D006E01F4A1E49C2
:10734000116005E0D0F8341111B1082A04D006E02C
:107350001B4AFB21116005E0D0F8341111B1082A55
:1073600008D00EE090F858221648016862F3030135
:10737000016002E0D0F8341119B913494FF40070DC
:10738000086012480168C90702D06FF0010101606E
:107390000F48016841F470010160BFF34F8FBFF3E4
:1073A0006F8F0D490B48086070470000380500409A
:1073B0000404001020C50040488103008C560040A2
:1073C00018F50040E40E00404096024000040040E2
:1073D00088ED00E00090D003F468002001480068C8
:1073E000004700004459002038B5064C20680025AD
:1073F000002805D004484068804725602068009038
:1074000038BD0000000101404C59002010B5124C5D
:1074100002202061606111A0A06104F17800E061A8
:107420004FF4007020620020A06260620BA1A16492
:10743000E06204F51E71E1641021A065C4E9141036
:10744000E06509A1E01DFFF791F808A12046FFF7CC
:107450008DF82020A07110BD6CB800205465726DAD
:10746000696E616C00000000525454005345474758
:10747000455200000269C1688A4203D88068401AF8
:10748000104400E0501A401E70472DE9F047C468D0
:107490001746894606464FF000083069A04201D9D8
:1074A000051B02E0B168201A0D1AB0686D1E001BA2
:1074B000A84200D80546BD4200D33D4670682A4622
:1074C00020444946FFF71AF8B0687F1B2C44A844B3
:1074D000A944A04200D10024F460002FDDD1404631
:1074E000BDE8F0872DE9F04104468846D4E902075B
:1074F000C51BE168606816460844B54206D9414696
:10750000FEF7FCFFB819E060BDE8F0812A4641466D
:10751000FEF7F4FF761B08EB050132466068FEF7C4
:10752000EDFFE660F0E703B401984100009850EAEF
:10753000C12018BF04204A0D18BF40F0010040F2DE
:10754000FF72B2EB515F08BF40F00200012808BF94
:10755000052002B07047000010B52F499FED2C1B8D
:107560002DED020B84B0059820F000408842D8BF72
:107570009DED040B2DDD2949884209D1049840B9BD
:107580004FF0010000F0E6FC00F0A2FC06B010BDD8
:1075900005DB9DED040B00F08FFC06B010BD6846C6
:1075A0009DED040B00F0A0F810F0030004BF9DED6A
:1075B000021B9DED000B0CD001280ED09DED021B8F
:1075C0009DED000B022817D0012000F0DDFB06B076
:1075D00010BD00F0A5FA06B010BD9DED021B9DED9B
:1075E000000B012000F0D0FB51EC100B81F00041AA
:1075F00006B041EC100B10BD00F092FA51EC100BEC
:1076000081F0004106B041EC100B10BD00000000FD
:107610000000000000000000FB21E93F0000F07FB7
:1076200010B52F499FED2C1B2DED020B84B0059852
:1076300020F000408842DCBF00209DED040B32DDCD
:107640002849884209D1049840B94FF0010000F060
:1076500081FC00F03DFC06B010BD05DB9DED040B88
:1076600000F02AFC06B010BD68469DED040B00F04A
:107670003BF810F0030011D0012818D09DED021B3B
:107680009DED000B02281AD000F04AFA51EC100BC5
:1076900081F0004106B041EC100B10BD9DED021BC6
:1076A0009DED000B012000F06FFB06B010BD9DEDBD
:1076B000021B9DED000B00F033FA06B010BD012057
:1076C00000F062FB51EC100B81F0004106B041EC80
:1076D000100B10BD000000000000000000000000C2
:1076E000FB21E93F0000F07F2DE9F14F04462DED2D
:1076F000020B2DED088B8AB09FEDE70B80ED020B9E
:10770000139EE74826F0004585420ADC9DED120BEA
:10771000002084ED000B0AB0BDEC088B03B0BDE87F
:10772000F08FE0489FEDE0AB9FEDE1BBA84247DD65
:10773000E14F9FEDE39B9FEDE48B9DED120B53EC2E
:107740001A2B51EC100B002E1CDDFEF7B9FF41EC9B
:10775000100BBD4208D053EC1B2B51EC100BFEF765
:10776000AFFFC4E900010BE053EC192B51EC100BF7
:10777000FEF7A6FF53EC182BFEF7A2FFC4E90001A9
:107780000120C8E7FEF7FBFE41EC100BBD4208D01C
:1077900053EC1B2B51EC100BFEF7F1FEC4E900017A
:1077A0000BE053EC192B51EC100BFEF7E8FE53ECF9
:1077B000182BFEF7E4FEC4E900014FF0FF30AAE702
:1077C000C348A84279DB9DED120B51EC100B03F07E
:1077D000C3FE41EC180B9FEDC00B53EC102BFEF7D2
:1077E00075FF9FEDBF1B53EC112BFEF7C8FEFEF794
:1077F000ECFF0746FFF708F941EC190B53EC1A2B85
:10780000FEF764FF53EC182BFEF75DFF41EC180BFD
:1078100053EC1B2B51EC190BFEF758FFDFF8C8A2F5
:1078200041EC100B4FEA15580125FA4453EC102B8C
:1078300051EC180BFEF744FF032DC4E900013DD0C5
:10784000C1F30A5005EB4511A8EB00001139814244
:1078500034DA0AEB051BB0EE48AA9BED000BF0EE04
:1078600068AA53EC102B51EC190BFEF72FFF41ECDB
:107870001B0B51EC1A0B53EC1B2BFEF721FF41ECB9
:10788000180B51EC1A0B53EC182BFEF719FF53ECA5
:107890001B2BFEF715FF9BED020B41EC1A0B53EC73
:1078A000102B51EC190BFEF711FF53EC1A2BFEF7BE
:1078B00007FF41EC100B6D1CB8E70EE0002EA8BFCF
:1078C0003846BFF628AF94ED000B51EC100B81F059
:1078D0000041C4E9000178421DE7C6F3130040F4FB
:1078E000801EC6F30A50A0F2F530471100F01F05C4
:1078F000C5F12000DDF848B0089000200690079000
:107900000520EC467949002D07EB0002794408BFB9
:1079100051F8221009D051F8223001EB8201AB401E
:107920004A68089922FA01F11943A1FB0E26A1FB2E
:107930000B131A449A4234BF0123002303EB0608B9
:107940000CEB8003D3E901A60E448E4234BF012123
:10795000002192448A4411B1924502D903E0924534
:1079600001D2012100E00021C3E901A641444CF805
:107970002010011EA0F10100C4DC029800F10050AB
:10798000850F0298DDE903678000DDF81480FFF7BA
:107990003BF841EC1A0B3046FEF70AFF9FED541BF3
:1079A00053EC112BFEF792FE41EC1B0B3846FEF711
:1079B000FFFE9FED511B53EC112BFEF787FE41ECB0
:1079C000180B4046FEF7F4FE9FED4D1B53EC112BB8
:1079D000FEF77CFE41EC190B51EC180B53EC192B04
:1079E000FEF7CDFD53EC1B2BFEF7C9FD53EC1A2B14
:1079F000FEF7C5FDCDE90801002008909DED080BBC
:107A000053EC1A2B51EC100BFEF75AFE53EC1B2BC8
:107A1000FEF756FE53EC182BFEF752FE53EC192BD3
:107A2000FEF751FE9FED381B53EC112BFEF74EFE77
:107A30009FED370B41EC180B53EC102B9DED080B11
:107A400051EC100BFEF742FE53EC182BFEF797FD9E
:107A50009FED310B41EC180B53EC102B9DED080BF7
:107A600051EC100BFEF732FE53EC182BFEF787FD9E
:107A700041EC100B139810F0004F06D06D4251EC02
:107A8000100B81F0004141EC100B284684ED000BF7
:107A900041E60000000000000000000000000000BF
:107AA000FB21E93F7CD9024000004054FB21F93F13
:107AB0003163621A61B4D03DFB21F93F0000000040
:107AC0000000601A61B4D03D7370032E8A19A33B85
:107AD000FB2139410000000083C8C96D305FE43FDD
:107AE000000000000000E03F72F30000C0F2000060
:107AF000000000000000103E000000000000103CEC
:107B0000000000000000103A182D4454FB21F93DFC
:107B10003326A611460B113C00000054FB21F93D11
:107B200010B52DED040B2DED088B82B0B0EE419A0F
:107B3000F0EE619A0B9820F000449FED4BABB4F14E
:107B4000795F11DA9DED0A0B51EC100BFEF73DFE4B
:107B5000002801BFB0EE4A0AF0EE6A0A02B0BDEC9E
:107B6000088B04BF04B010BD9DED0A0B53EC102B25
:107B700051EC100BFEF7AAFD41EC180B3C48062116
:107B8000B0EE480AF0EE680A784400F081F853EC51
:107B9000182B51EC100BFEF799FD9DED0A0B41ECF3
:107BA0001B0B53EC192B51EC100BFEF78FFD41EC26
:107BB000190B53EC1B2B51EC180BFEF787FD53EC04
:107BC000192BFEF77DFD9FED2C0B41EC190B53ECAF
:107BD000102B51EC180BFEF779FD41EC100B2848E7
:107BE000844210DA53EC192B51EC100BFEF768FDB0
:107BF00053EC1A2BFEF767FD41EC100B02B0BDEC05
:107C0000088B04B010BD1F48A042BCBF9FED1E1BD7
:107C10008DED001B06DBA4F5001001900020009004
:107C20009DED001B51EC100B53EC112BFEF748FDA2
:107C30009DED000B41EC180B53EC102B51EC1A0B83
:107C4000FEF73EFD41EC1A0B53EC192B51EC180BCF
:107C5000FEF736FD53EC1A2BFEF735FD41EC100B09
:107C6000CCE7000000000000000000000000F03F32
:107C7000E4EF000000000000000000000000E03F12
:107C80003333D33F0000E93F000000000000D23F43
:107C900070B504462DED028B4D1E00EBC500B0EE15
:107CA000408AF0EE608A90ED000B35F0060017D0A8
:107CB00053EC182B51EC100BFEF708FD41EC100BA8
:107CC0006D1E04EBC50090ED001B51EC100B53EC46
:107CD000112BFEF754FC41EC100B35F00600E7D1F8
:107CE000022D36D0042D1CD0062D1CBFBDEC028BFE
:107CF00070BD53EC182B51EC100BFEF7E7FC94ED24
:107D00000A1B53EC112BFEF73AFC53EC182BFEF731
:107D1000DDFC94ED081B53EC112BFEF730FC41EC1D
:107D2000100B53EC182B51EC100BFEF7CFFC94ED1D
:107D3000061B53EC112BFEF722FC53EC182BFEF71D
:107D4000C5FC94ED040B53EC102BFEF718FC41EC32
:107D5000100B53EC182B51EC100BFEF7B7FC94ED05
:107D6000021B53EC112BFEF70AFC53EC182BFEF709
:107D7000ADFC94ED001B53EC112BFEF700FCBDECA9
:107D8000028B41EC100B70BD31B504462DED040B98
:107D90002DED0A8BB0EE41BAF0EE61BA0B989DED75
:107DA0000A0B20F00040B0F1795F0DDA51EC100BB6
:107DB000FFF7B9FB042808BF00F09AF89DED0A0B05
:107DC000BDEC0A8B05B030BD53EC102B51EC100B01
:107DD000FEF77CFC41EC180B9DED0A0B53EC182BC5
:107DE00051EC100BFEF772FC41EC190B2C48B0EE75
:107DF000480AF0EE680A05217844FFF749FF9FED35
:107E00002ACBB0EE40AAF0EE60AA9CB353EC1C2B38
:107E100051EC190BFEF75AFC41EC1C0B53EC1A2BDE
:107E200051EC190BFEF752FC9FED210B41EC190BA5
:107E300053EC102B51EC1B0BFEF748FC53EC192BA9
:107E4000FEF73EFC53EC182BFEF740FC53EC1B2BCB
:107E5000FEF736FC53EC1C2BFEF732FC9DED0A1BA3
:107E600053EC112BFEF72FFCBDEC0A8B05B041EC57
:107E7000100B30BDFFE753EC1A2B51EC180BFEF73B
:107E800025FC53EC1C2BFEF77AFB53EC192BFEF769
:107E90001DFC9DED0A1B53EC112BFEF770FBE3E775
:107EA0006CEE000000000000495555555555C5BF02
:107EB000000000000000E03F10B553EC102B51EC27
:107EC000100BFEF75CFB41EC100B10BD0000000036
:107ED0009FED050B10B553EC102B51EC100BFEF77A
:107EE00012FD41EC100B10BD00000000000000006E
:107EF0009FED050B10B553EC102B51EC100BFEF75A
:107F0000E5FB41EC100B10BD00000000000000106C
:107F100002E008C8121F08C1002AFAD17047704752
:107F2000002001E001C1121F002AFBD170470000B0
:107F30000121202803DA81400548014003E0402860
:107F400002DA2038814009B10120704700207047D3
:107F5000FC06FFBD0149086070470000F86800207A
:107F60002DE9F843804643F2020669B9694609F0F3
:107F700039F8B04204D018B1284A8D21FEF79AF999
:107F80009DF80000800746D40021404609F066F8BD
:107F9000050040D0112D3ED021482249401AC70883
:107FA000022000EB07440D2D0AD00B2D1DD0B54249
:107FB0001FD11D4920464246BDE8F84306F016BFD2
:107FC00020464246194906F011FF1321404676DF4C
:107FD000002820D007F0C4FA024601B020464346EC
:107FE000BDE8F04312A106F008BF204642461E49F4
:107FF000E2E7284607F0B4FA0246012000EB07400A
:1080000043461AA106F0F9FE2846BDE8F843034AA4
:10801000BC21FEF74FB9BDE8F8830000E874030007
:10802000E8870300B087030018740300A4730300FB
:1080300073645F626C655F6761705F646973636FCF
:108040006E6E65637428292072657475726E65643E
:10805000202573206F6E20636F6E6E5F68616E64A3
:108060006C652025642E0000647403004173736501
:108070007274696E672E20706D5F636F6E6E5F73D2
:10808000656375726528292072657475726E656402
:10809000202573206F6E20636F6E6E5F68616E6463
:1080A0006C652025642E000031B500252C46214644
:1080B000684605F0DAFB00B16D1C641C142CF6D385
:1080C000284638BD30B500291BD000220A614A611C
:1080D0000268AAB14B6803E055689D4203D8224666
:1080E0005469002CF8D154689C420BD91369C1E93A
:1080F0000432136903B1596111610368934200D1DD
:10810000016030BD51610A6130BD10B560B159B137
:1081100002780B785208B2EB530F05D10622401CAF
:10812000491CFEF716FA08B1002010BD012010BD51
:10813000800701D00020704701207047C3688B4240
:1081400006D811440069491E814201D801207047B8
:108150000020704710B5002006F016F9002803D162
:10816000BDE8104000F002B810BD00000A4810B58C
:108170000121007873DF18B108A2DF21FEF79AF819
:1081800010481149BDE81040401AC008032101EB16
:1081900000400EA106F026BEB46500202E2E5C2EF7
:1081A0002E5C2E2E5C6C795F626C655F7065726907
:1081B00070686572616C5C6C795F626C655F702E73
:1081C0006300000070880300B0870300537461727D
:1081D000742041647600000010B5012202210020C5
:1081E00002F07CF808B1072810D1072202210120F3
:1081F00002F074F808B1072808D100210A220846C5
:1082000002F06CF808B1072800D1002010BD000072
:1082100030B52B48A5B03C2100682490294800784F
:108220008DF892006846FEF782F902208DF8000072
:1082300001248DF8024006208DF803003C210FA890
:10824000FEF775F91F4D24A81C351490ADF84C406D
:108250002A1D6846296800F0F9FE20B11AA24FF4E1
:108260009471FEF727F8174A0FA82832A96800F082
:10827000EDFE20B114A240F22B11FEF71BF81821DD
:108280001EA8FEF754F900204FF4967120918DF846
:108290008C000C491F908DF87840ADF884001C319B
:1082A0008DF88D401EAAA1F1200072DF002804D0B5
:1082B00005A24FF49C71FDF7FDFF25B030BD000015
:1082C0009C680300B86500202E2E5C2E2E5C2E2E9E
:1082D0005C6C795F626C655F70657269706865720D
:1082E000616C5C6C795F626C655F702E630000008E
:1082F0000A4810B50121007873DF18B108A2A32144
:10830000FDF7D8FF10481149BDE81040401AC008D9
:10831000032101EB00400EA106F064BDB46500200E
:108320002E2E5C2E2E5C2E2E5C6C795F626C655F4F
:108330007065726970686572616C5C6C795F626CA3
:10834000655F702E6300000070880300B087030033
:1083500053746172742041647600000070B58CB073
:1083600015460E4600236C46C3F10F01415CE154F3
:108370005B1C102BF8D30D2104F11000FEF7D7F889
:108380000020C0F10F02315C2244401C117403280C
:10839000F7D3684646DF0020C0F10F01214491F871
:1083A00020102954401C0328F6D30CB070BDD0F81F
:1083B000D80008B100207047012070470149C978F2
:1083C00001F050BBF058002070B504460078052835
:1083D00029D2DFE800F00328202829006188204DF9
:1083E00001EB410000EBC10005EB401004F140023D
:1083F00005F00EFB20B11BA24FF4EA71FDF75AFF06
:10840000608800EB400101EBC00005EB4010BDE8C7
:10841000704000F07BBB6188204800EBC100D4E9CC
:108420000112C0E9001270BD608800EB40011B48DA
:10843000103000EB810004F110010EC980E80E003D
:10844000608800EB400160690028ECD1134AA36901
:10845000283202EB810122698B60C1E9002070BDE6
:1084600020BF00202E2E5C2E2E5C2E2E5C6C795FA1
:10847000626C655F73657276696365735C6C795F66
:10848000626C655F616E63735F635C6C795F626C85
:10849000655F616E63735F632E630000A0C400209C
:1084A0002DE9F8430446002005261546884608278E
:1084B0000090ACE094F8DC10092970D2DFE801F0FC
:1084C00005222D406670767CA300421C009218F8AD
:1084D000000084F8DD0010B1012811D108E004216A
:1084E00084F8EC1004F13C00C4E93407012087E073
:1084F00084F8EC6004F1BC000121C4E934011BE004
:1085000008207DE000EB0801001DCA78096862F3CD
:108510001F61C4F80811009010E0421C009218F886
:108520000010D4F8E82004F586701154D4F8E8005F
:1085300021B1401CC4F8E800022061E003205FE0A4
:10854000421C009218F80000C4F80001D4F8D410BE
:108550008842D5D20C22D4F8D01002EB0010095872
:108560002046C4F80411FFF722FF0028C8D1204696
:10857000D0E94023D4F8FC1000F03CFC20B1D4F842
:10858000D800401EC4F8D800042039E0421C0092F4
:1085900018F80000A4F8FC0084F8DC6037E034E050
:1085A0006A464146204600F02EFC29E06A464146D4
:1085B000204600F0C5FB23E0B4F8E410B4F8FC203A
:1085C000914204D2491CA4F8E410401C0090B4F875
:1085D000E410B4F8FC00814211D12046D0E94023D8
:1085E000D4F8FC1000F006FC18B1216804F1EC008E
:1085F00088472046FFF7DBFE00289FD080E7072052
:1086000084F8DC0003E0009501E084F8DC70009859
:10861000A842FFF44FAFBDE8F8830000FEB5154651
:108620000E46074672B606F09FFC00BF06F06CFAD5
:108630000028FBD12249234A0120891AC90800EBEE
:108640000144012F23D06FF48050381822D0B0F5A8
:10865000405F24D06FF44051C84206D12B88204699
:1086600019A16A6806F0C9FB04E0204632461DA144
:1086700006F0BCFB21480068C00700D000BE2A46B7
:1086800003B031463846BDE8F04000F079B82046E6
:108690001BA101E0204622A106F0A4FBEAE7A8689E
:1086A00006F05EFF0346D5E90001CDE90010029611
:1086B000204624A1AA6806F0BBFB20462BA1EBE7CD
:1086C00070880300B0870300415353455254494F0B
:1086D0004E204641494C45442061742025733A257B
:1086E00075000000554E4B4E4F574E204641554C9D
:1086F000542061742030782530385800F0ED00E0C7
:10870000534F46544445564943453A2041535345F7
:108710005254494F4E204641494C45440000000008
:10872000534F46544445564943453A20494E5641D5
:108730004C4944204D454D4F5259204143434553E8
:10874000530000004552524F52202575205B25737F
:108750005D2061742025733A25750D0A5043206110
:10876000743A20307825303878000000456E642057
:108770006F66206572726F72207265706F7274001E
:1087800008B501238DF800309DF80030144B1860B7
:1087900059609A606FF48041401807D001280FD1CA
:1087A000DA60D86800889861D86807E01A611869AB
:1087B0008068586118690068986118694068D861D4
:1087C000186858689868D868186958699869D869A5
:1087D00072B600BF9DF800000028FBD162B608BD4C
:1087E00064A3002010B509F05DFF017B00290BD0C8
:1087F000417B39B10021017301688268BDE81040F6
:10880000084610470121F6E710BD000038B504689E
:1088100000251AB110B1207B20B901E0072038BD36
:10882000606808B1082038BD00202060A060E060CA
:1088300011B10120002101E0002001216173A2603B
:1088400006490246009123464FF47A7104A00DF0C8
:10885000F3FC606000B90E25284638BDE5870200AC
:1088600020000000002070472DE9FC4147680E46BB
:1088700004461FB1207B00282DD102E00820BDE86E
:10888000FC81EFF30580226008B300250A460195BC
:1088900001AB0921384600950DF008FD012831D1C2
:1088A0000DF09EFB024601AB0621384600950DF007
:1088B000FDFC012826D1019830B315494FF08050B6
:1088C000086040BFBFF34F8FBFF36F8F1CE0384687
:1088D0000DF014FD08B10020D1E702250023324637
:1088E0000421384600950DF0E1FC01280AD10DF075
:1088F00071FB024600230121384600950DF0D6FC9D
:10890000012801D00420BAE701202073E3E700002A
:1089100004ED00E07CB504464068002500280CD03A
:10892000EFF30581B9B1019501AB00220821009553
:108930000DF0BCFC012817D101E008207CBD019896
:10894000A0B10C494FF08050086040BFBFF34F8F7B
:10895000BFF36F8F0AE00221002300911A46032122
:108960000DF0A4FC012801D004207CBD257300205B
:108970007CBD000004ED00E0064A0146002093782B
:108980002BB1531C1B780B70002191707047052090
:1089900070470000F459002070B588B016460446B0
:1089A0001D46202217496846FDF7A8FD606906901C
:1089B000207C00B101208DF814008DF81C50607CE3
:1089C00000B10E208DF81500E0680290A0680390B9
:1089D00020680190606800900B480021466081701B
:1089E0000A4A6946083005F09FFA002808D1206835
:1089F000401C05D004490122491CC81D05F0C8FAD5
:108A000008B070BDA8670300F4590020C5420300F8
:108A10000C4910B5087001F108000B4C03780122D5
:108A2000E35C1BB1001D07F03FF802E00C3006F0DC
:108A300019FF112803D0002800D0032010BD042006
:108A400010BD0000F45900202859002030B5EFF384
:108A5000108172B60D4A9468012324B10370002975
:108A600000D162B630BD93604FF0E023D3F880515F
:108A7000074C25401560C3F88041D3F88441546009
:108A80005A17C3F8842100220270E8E784A300206B
:108A9000FC06FFBD0B498A68002A11D000280FD1BF
:108AA000EFF3108072B60B684FF0E022C2F800318D
:108AB0004B68C2F8043100228A60002800D162B6F7
:108AC0007047000084A3002002A24FF4E071FDF77C
:108AD000F1BB00002E2E5C2E2E5C2E2E5C6C795F7E
:108AE000626C655F73657276696365735C6C795FF0
:108AF000626C655F616E63735F635C6C795F626C0F
:108B0000655F616E63735F632E6300002DE9F04162
:108B1000104D044664264FF47A47691C384688474E
:108B2000761EFAD1204600F0AFFD20B10AA24FF424
:108B30009B71FDF7BFFB204600F0E4FC002806D047
:108B4000BDE8F04104A240F23911FDF7B3BBBDE826
:108B5000F0810000B06803002E2E5C2E2E5C2E2EBD
:108B60005C6C795F626C655F73657276696365736F
:108B70005C6C795F626C655F616E63735F635C6C94
:108B8000795F626C655F616E63735F632E63000083
:108B900038B50DF01FFA294C022502460095002336
:108BA000012120690DF082FB012804D024A2BC2100
:108BB0000420FDF77FFB0DF00DFA0246009500231F
:108BC000012160690DF072FB012804D01CA2C121B3
:108BD0000420FDF76FFB0DF0FDF902460095002320
:108BE0000121A0690DF062FB012804D014A2C62166
:108BF0000420FDF75FFB0DF0EDF902460095002320
:108C00000121E0690DF052FB012804D00CA2CB2118
:108C10000420FDF74FFB0DF0DDF90246009500231F
:108C20000121206A0DF042FB012806D0BDE8384042
:108C3000D02103A20420FDF73DBB38BDB85700206A
:108C40002E2E5C2E2E5C2E2E5C6D61696E2E6300C6
:108C500070B5054608680C46411C04D005F02BFE93
:108C6000206805F059FD6068411C02D0002105F024
:108C700041FD2968A069C1F82405607D227D29682D
:108C80001043C1F86C05D4E900122868C0F8142517
:108C9000C0F80C15207D012814D1A068411C02D019
:108CA000002105F027FDE068411C04D005F003FE1B
:108CB000E06805F031FDD4E902122868C0F8082503
:108CC000C0F8101570BD70B5054608680C46411C0B
:108CD00004D005F0FAFD206805F028FD6068411C0D
:108CE00002D0002105F00FFD2968A069C1F8240514
:108CF000607D217D2A680843C2F86C05D4E9001222
:108D00002868C0F80C15C0F81425207D012814D15E
:108D1000A068411C02D0002105F0F5FCE068411C70
:108D200004D005F0D2FDE06805F000FDD4E90212A0
:108D30002868C0F80825C0F8101570BD03F0B8BE4B
:108D400070B50446D0F8D000D4F80051082303EBE6
:108D50000515455BB4F8E40085420FD9B4F8FC5022
:108D6000A8420BD21068451C15600A5CB4F8E400F8
:108D7000D4F80451411CA4F8E4102A54B4F8E400D7
:108D8000B4F8FC10884209D0D4F80021D4F8D010EF
:108D900003EB0212895A491E814229D1FC3494E81E
:108DA0000E00FC3C204600F025F828B1B4F8E42081
:108DB000D4F8041100208854B4F8E400B4F8FC108E
:108DC000884201D2072070BDFC3494E80E00FC3CC0
:108DD000204600F00FF818B1216804F1EC00884734
:108DE0002046FFF7E4FA08B1082070BD032070BDEB
:108DF000062070BDD0F8D00000EB021000780128EA
:108E000000D00020704710B504461068431C136062
:108E1000085CB4F8FC1051EA0020A4F8FC004FF004
:108E20000001A4F8E41010D054F8D00F0822216BF0
:108E300002EB0112825A32B10C2202EB01114058AE
:108E400008B1062010BD072010BDFC3494E80E00C8
:108E5000FC3C2046FFF7CEFF18B1216804F1EC007E
:108E600088472046FFF7A3FA08B1082010BD032069
:108E700010BD00002DE9F047814605884A484FF0B3
:108E800000088AB001784246284600F003FE99F8AF
:108E90000500400701D4002176E005F58077B8B2DF
:108EA00001AB0122072107F017FD04003F48404AAB
:108EB0004FF00101A0EB02004FEAD00001EB0046A9
:108EC0000AD0204606F04CFB024630462B46394974
:108ED00005F093FF214629E0284603F0DBFA4FF620
:108EE000FF71044688422BD18A46029803F03CFA6F
:108EF0000446504510D00146284603F0ABFA2846F8
:108F0000FFF75CFAE0B928460AF0CAF82846FFF7EE
:108F100055FA0028BFD013E007F0AAFE04465045DA
:108F200008D1304624A105F05DFF042128460AF04F
:108F3000E5F8B0E70146284603F08CFA4FF0010847
:108F4000B8B22246072107F03FFD07001BD0862F4D
:108F50001ED006F005FB024630462B4623490094FE
:108F600005F053FF394628460AF0C8F80021484664
:108F700007F05EFBB8F1000F02D0204603F074FA50
:108F80000AB0BDE8F0870121484607F051FBF7E73A
:108F90001822174903A8FDF7B1FAADF80E5003A83F
:108FA00002F0C6FAEFE70000F0580020F087030057
:108FB000B087030064770300436F756C64206E6FA5
:108FC0007420616C6C6F63617465206E65772070CE
:108FD0006565725F696420666F7220696E636F6D8C
:108FE000696E6720626F6E642E0000008078030057
:108FF000746403000248816A491C81627047000062
:10900000B857002070B51500044609D0002028602C
:1090100034B1206820B1A079800703D0072070BD4B
:109020000E2070BD084600F09DFCC0B2142804D08C
:109030002179814203D8042070BD052070BDE288EB
:10904000216800FB02102860002070BD2DE9FC475C
:10905000002517880646158090F82D00144689468D
:1090600030B13A462146484600F042FE051E09D17D
:10907000B0784FF00C0A18B32088C846001DB842DB
:1090800002D95046BDE8FC87684679DF0028F9D14F
:109090002088032108F8001020881921401C80B284
:1090A000208008F800102088401C80B2208000EB4F
:1090B0000801BDF800000BF0FBFE21880844208069
:1090C000F0780222C8B1218896F9033001F1030C2F
:1090D0004846BC45D5D8425421884FF0010C491C64
:1090E00089B2218000F801C02188491C89B2218001
:1090F00009F801302088401C20807068B8B12188B0
:1091000090F9003001F1030C4846BC45B9D84254EF
:1091100021880A22491C89B2218042542188491C95
:1091200089B2218009F801302088401C20803089D4
:1091300050B1CDE900474B460622022106F1080056
:109140000BF0CAFF051E9DD1308A50B1CDE9004712
:109150004B460722032106F110000BF0BDFF051E50
:1091600090D1308B50B1CDE900474B4615221421E8
:1091700006F118000BF0B0FF051E83D1306A30B144
:109180003B462246494601F0E2FA051EDBD1706AF1
:1091900030B13B462246494604F0C6F9051ED2D1FD
:1091A00096F82C0038B13B462246494630460AF034
:1091B000EFF8051EC7D1307838B13B462246494604
:1091C000304604F055FA051EBDD128465AE7F8B5D9
:1091D00006464FF000001500ADF8000015D0092339
:1091E0006A46304600F025F80446BDF80000064403
:1091F00058B154B12846FDF7A5F9A04205D1224641
:1092000031462846FDF7A5F908B10020F8BD012038
:10921000F8BD18B504460020ADF8000013466A46B4
:10922000204600F006F8002802D0BDF800002044D7
:1092300018BD70B588B182B10024158803E0065DC1
:10924000641C3444A4B2A54203D8061976789E4221
:1092500001D08C42F3D38C4201D3002070BDA11CFD
:109260001180005D401E80B270BD10B50288102ACA
:109270001BD0112A20D0262A1DD1007A0C460128A5
:1092800001D0022817D1A0780521401CB0FBF1F2D3
:1092900001FB1201204600F01EF800280BD0A16B44
:1092A000002908D0BDE810400847C27B012A02D13E
:1092B0008088A1F8480210BD0C46002184F85212A3
:1092C0008088B4F848128842F5D120790028F2D17C
:1092D0000121DFE770472DE9F05F044600780F4673
:1092E00098B1A7700025C4F84A52A4F84E5284F8E9
:1092F0005052A079012608B1012F09D0E07980B140
:10930000012F05D0022F03D00BE00820BDE8F09F0D
:10931000616B21B184F851620820884701E084F82C
:10932000515204F24B2100200A5C0AB1304603E09E
:10933000401C0628F8D300204FF002084FF0030B22
:10934000012F06D0022F0CD0032F0FD0042F15D1E0
:1093500010E0A17929B194F8241011B908B1304670
:109360000DE0E17911B108B1404608E0207A08B17A
:10937000584604E0607A08B1042000E02846A07056
:10938000616B41B1032801D0042804D1607910B188
:1093900094F85202A0B184F8535204F13C00182111
:1093A0000746FDF7C4F804F12C0084F83C608146C0
:1093B00007F096FD58B194F82C0084F8510008E0AD
:1093C00084F8545284F8536207208847E5E784F80C
:1093D000516094F8240050B1484607F081FD20B157
:1093E00094F8280084F8520001E084F8526084F870
:1093F0005050A27804F24A2104F50D794FF0060A84
:10940000052A62D2DFE802F07A030F22410084F8D5
:109410003160C4F84452C4E9101584F83C808020BF
:10942000A4F8480053E084F8318094F824203846AA
:1094300012B10722027001E080F800B0228A828116
:10944000C4F844524160E168B96040E06069B860C6
:10945000208BB88194F824003D4610B184F83CA0DC
:1094600001E084F83C6020460BF024FE50B185F802
:1094700014800421204602F043FA30BB052184F811
:10948000311020E084F831B01DE0E069B860208C34
:10949000B88194F824003D4610B184F83CA001E066
:1094A00084F83C6020460BF005FE48B185F8148036
:1094B0000421204602F024FA38B984F831A002E0F1
:1094C000042084F83100C4F84492A07878B13A4678
:1094D00004F15400D4F8441272DF00287FF416AF70
:1094E00094F8301094F8540073DF0028F6D1616BC3
:1094F00011B194F831008847002007E784F8315013
:10950000F5E7000010B50446C28E08480849401A25
:10951000C008032101EB004006A105F067FCE18EC5
:109520002089BDE81040012200F098BF1088030098
:10953000B0870300456E61626C65204461746120F0
:10954000536F75726365206E6F74696669636174C9
:10955000696F6E732E2057726974696E6720746F1D
:109560002068616E646C653A202569200000000067
:1095700070B50E4604005ED0002E5CD03068002826
:1095800059D02E482E49227B401AC108032000EBF7
:1095900001452CA1284605F029FC002084F8DC00B8
:1095A000C4F8E000A4F8E400C4F8E80030682060E3
:1095B000706860604FF6FF70208142F602102087CD
:1095C000208504F10A0032210646FCF7B0FF0AF0BC
:1095D000BDFD227B28461FA105F008FC04F10C010B
:1095E000204862DF002827D11E4804F11401103002
:1095F00062DF002820D11B4804F11E01203062DF09
:10960000002819D1174804F12E01303062DF0028FC
:1096100012D1227B284614A105F0E8FB4FF231401D
:109620006081227B284614A105F0E0FB3046BDE8AE
:10963000704000F059BA0E2070BD00001088030081
:10964000B087030030312C757569645F747970657B
:109650003A25640030322C757569645F74797065E1
:109660003A2564006465030030332C757569645FC6
:10967000747970653A25640030342C757569645FBF
:10968000747970653A25640010B50446C28C0848A8
:109690000849401AC008032101EB0040064905F0C3
:1096A000A5FBE18C2089BDE81040012200F0D6BE68
:1096B00010880300B0870300B07B030000B50246AA
:1096C00000889DB0112838D0382814D039283BD1D3
:1096D0000B4602F10A0091881A89914234D101881F
:1096E0009A8C91421ED182881DB0811D18465DF86A
:1096F00004EB06F0CBBF08899388984224D11089E7
:1097000058B14B8B984208D106208DF80000D088C4
:10971000ADF80C000968684688471DB05DF804EB99
:109720000AF04CBD9A8E91420ED182881DB0811DE7
:1097300018465DF804EBFEF7B3BE088992889042A4
:1097400002D14FF6FF7008811DB000BD2DE9F04336
:1097500007463D4A3D480D46101A01F10E080978AA
:10976000C00803229DB002EB0044002964D1A88800
:10977000A0F5744131395FD1A879397B88425BD13A
:10978000204633A105F02EFB002646E006EBC60975
:1097900038F8190000F6F350B0F500502AD000F662
:1097A0002430B0F5404012D000F6F650B0F5005F1E
:1097B00032D1204627A105F015FB08EB49000168CE
:1097C0001291416813910089ADF8500024E02046C1
:1097D00029A105F007FB08EB49000168CDF86210EC
:1097E0004168CDF866100189ADF86A104089ADF87E
:1097F0006C0011E0204629A105F0F4FA08EB4900BD
:109800000168CDF852104168CDF856100189ADF8C5
:109810005A104089ADF85C00761C287AB042B5D861
:1098200000208DF800006888ADF8020039686846AD
:1098300088471DB0BDE8F083204623A105F0D2FA89
:1098400001208DF80000F1E710880300B0870300C5
:1098500031313100436F6E74726F6C20506F696EDE
:1098600074204368617261637465726973746963BB
:1098700020666F756E642E004461746120536F75AD
:1098800072636520436861726163746572697374A1
:10989000696320666F756E642E0000004E6F7469F8
:1098A0006669636174696F6E20706F696E742043BE
:1098B0006861726163746572697374696320666F4D
:1098C000756E642E000000003232320001790329E7
:1098D00002D280790C2801D30720704700207047FE
:1098E0002DE9F041040012D001461C221A48FCF771
:1098F00005FE1948194D0560206858B17ADF002827
:1099000006D12068016829604068686006E00E2082
:10991000BDE8F08111487BDF0028F9D10E4D00240D
:10992000283D4FF6FF76A5F1400700BF04EB840009
:1099300005EB800007EB441120F8046B084A016036
:109940000021FEF763FF08B10320E1E7641C022C4D
:10995000ECD30020DCE70000849A00204858002067
:109960004D50030010B5044600F0B4F808B120468D
:1099700010BD142010BD000010B5044600F0AAF878
:10998000002805D02146BDE81040024803F06DBF15
:1099900010BD0000B09A002070B515460E46044672
:1099A0000BF094FB002809D0054800EB8400806987
:1099B0002A463146BDE8704001F0CEBF70BD0000C0
:1099C000A09A002010B5044600F084F8002805D0C5
:1099D0002146BDE81040024803F047BF10BD00001B
:1099E000B49A0020064808B5C168C943009181684F
:1099F000684603F05EFF0098FEF756FB08BD0000C6
:109A0000A09A002070B50546002400F063F838B134
:109A10002946044803F029FF08B1022400E001248C
:109A2000204670BDAC9A002070B50546002400F0B9
:109A300051F838B12946044803F017FF08B1022451
:109A400000E00124204670BDA89A002010B518211E
:109A5000034803F0E5FE182800D0C0B210BD000096
:109A6000A09A002070B505460C4608460BF02EFB68
:109A700060B1284600F02EF840B10548294600EBB9
:109A80008400BDE87040183003F0EFBE002070BDC8
:109A9000A09A002070B5054614460E4608460BF005
:109AA00015FB002812D0284600F014F800280DD02D
:109AB0000748294600EB860018301CB1BDE870400D
:109AC00003F0DEBEBDE8704003F08FBE70BD000045
:109AD000A09A0020142801D30020704701460148B5
:109AE00003F0C3BEA49A002028B105490A7822B128
:109AF000496809F053B80E207047082070470000ED
:109B00001059002070B506460D480E49401AC1088C
:109B1000032000EB014004460BA105F063F966B198
:109B20000F4800250122C5600270C0E9016520468A
:109B30000CA105F05BF9284670BD0E2070BD000039
:109B400000880300B0870300626C655F64625F6435
:109B50006973636F766572795F696E69740000007E
:109B600010590020626C655F64625F646973636FA3
:109B7000766572795F696E69742C6D5F696E697460
:109B800069616C697A65643A2564000070B5040007
:109B90002DD000292BD020480078002827D02088FD
:109BA0000D46112815D0302804D0322807D033288C
:109BB0001ED109E0211D284606F00EFB18E0211DEC
:109BC000284606F069F813E0211D284606F0C8F97A
:109BD0000EE0A088B5F8CA12884209D1002085F8A5
:109BE000C70285F8C8024FF6FF70A5F8CA0270BD1B
:109BF00095F8C8020028FAD020883028F7D34F28DB
:109C0000F5D8A088B5F8CA128842F0D12846BDE838
:109C1000704000F0CBBF0000105900202DE9F0414A
:109C20000F46064615481649164A401AC108032031
:109C300000EB014414A1204605F0D8F8114D204650
:109C40001AA12A7805F0D2F876B1287870B12046AA
:109C500020A1EA6805F0CAF8E86838B196F8C702AA
:109C600030B11120BDE8F0810E20FBE70820F9E7B4
:109C700039463046BDE8F04100F098BF0088030047
:109C8000B0870300105900203032206164647220D4
:109C90006F66206D5F696E697469616C697A65646D
:109CA000203D20307825303878000000626C655FF8
:109CB00064625F646973636F766572795F73746100
:109CC00072742C6D5F696E697469616C697A656420
:109CD0003A2564006D5F6E756D5F6F665F68616EDB
:109CE000646C6572735F7265673A256400000000FA
:109CF0007CB5054608880C460930904201D90C20F5
:109D00007CBD68466DDF0028FAD1218808206854A0
:109D100020881B21401C80B2208029542088401CB0
:109D200080B220802844DDF801100160BDF80510E4
:109D300081802088801D80B220809DF80010490815
:109D400000D0012129542088401C208000207CBDA7
:109D500010B51A4C0188606810290ED011292BD13A
:109D6000401E606028D1FEF737FA002824D0216811
:109D7000002921D0BDE810400847D0B900210122B8
:109D8000084600F0ABFA08B107280FD107220221DC
:109D9000012000F0A3FA08B1072807D1042202210C
:109DA000002000F09BFA20B1072802D0216801B101
:109DB00088476068401C606010BD0000E4570020C8
:109DC0002DE9F04701883B4E40F2F3194FF6FF753D
:109DD00010291BD011293ED0122954D0502946D128
:109DE000C188F289841D914241D1618902293ED105
:109DF0008688304602F0FCFB050038D004F10C00E8
:109E000000F026F9A8B3294630464EE0C17B87888A
:109E1000044601292BD1A846284602F0E9FB05009B
:109E200017D02F8000202872234843464A460168F5
:109E3000C5F80A104068C5F80E0004F1100105F1DC
:109E40000A0002F09DFC6872F08900280FD12946B3
:109E50002AE0042013E0808802F0CAFB040006D048
:109E60006068FEF757FD08B109F02CF92580BDE8C0
:109E7000F087FFE76868FEF74DFD0028F7D0BDE8E2
:109E8000F04709F01FB987880646384602F0B0FB54
:109E90000400ECD02B464A4606F1080104F10A0002
:109EA00002F06EFC607221463846BDE8F04700F0D3
:109EB000ABBC0000849A0020485800202DE9F04FE8
:109EC0000746858802883E48012197B08346102ABC
:109ED00009D0112A4BD01A2A6ED1387AB1EB101F53
:109EE00047D2012246E0364C083CA068C0430B90A4
:109EF00061680BA803F0DDFC0B990CA800F008FCCE
:109F00002C220CA96846FCF7F9FA0026E946A0467F
:109F100010E000BF09EB46005FF00004B0F804A0B9
:109F200008EB84005146001D03F05FFC641C1D2CEF
:109F3000F6D3761C0098B042ECD8142D07D317B096
:109F4000E321BDE8F04F1FA20420FCF7B3B9294676
:109F5000584603F095FC294608F1040003F090FCF4
:109F6000F87B012828D016482946001D15E029460F
:109F70001AE000220221B1EB101F01D2012600E0FD
:109F800000260F49083901F11000041D294682B14D
:109F900003F076FC36B12946204617B0BDE8F04FF5
:109FA00003F06EBC2946204617B0BDE8F04F03F021
:109FB0001CBC03F01AFCF5E717B0BDE8F08F0000F9
:109FC000A89A00202E2E5C2E2E5C2E2E5C2E2E5C4F
:109FD0002E2E5C2E2E5C636F6D706F6E656E7473CB
:109FE0005C626C655C636F6D6D6F6E5C626C655F0F
:109FF000636F6E6E5F73746174652E6300000000A2
:10A0000010B504460748007800280AD0204602F020
:10A010001DF9204609F018FA2046BDE8104001F06D
:10A02000D9BD10BD8058002010B504468088FFF7C8
:10A03000E9FC012802D02088262805D103480168C0
:10A040002046BDE81040084710BD0000785A0020A7
:10A05000007800F00100704708B505F05BF918B111
:10A060000C4A9E21FCF726F9002000906946012049
:10A0700005F076F818B1074AA521FCF71BF96846E8
:10A0800005F0C0F8002803D0024AA921FCF712F914
:10A0900008BD000048D0020010B5024686B0080096
:10A0A0002ED0002A2CD041884FF6FF73994202D05F
:10A0B0009488A14224D11488112C14D0392C1FD19A
:10A0C000818800291CD053898B4219D1C16800298D
:10A0D00016D001218DF8001002F110010291D189F2
:10A0E000ADF80C1009E092888A4209D1C1680029B4
:10A0F00006D002218DF800104380C268694690475F
:10A1000006B010BD30B585B00C4605461421684632
:10A11000FCF70DFA207804F10E01002830D1A08858
:10A1200001282DD1A0792A78904229D1002217E068
:10A1300002EBC20031F81030022B02D0032B0ED1FB
:10A1400005E001EB40000089ADF8120007E001EBEB
:10A1500040000389ADF80E304089ADF81000521C64
:10A16000207A9042E4D8E868002809D06088ADF8E9
:10A17000020000208DF80000EA68694628469047F2
:10A1800005B030BD10B504460078002811D109484B
:10A1900009492289401AC008032101EB004007A1A8
:10A1A00004F024FEA28A20892169BDE8104003F052
:10A1B000A1B810BD70880300B087030052656D6FB1
:10A1C000746520307825782053656E64204461746E
:10A1D000613A000070B5334D04008EB02DCD08AE4D
:10A1E00086E82D005BD0E9B30868A061214608A885
:10A1F00062DF002851D1207801258DF83200ADF8BA
:10A200003050A21C0CA92846A8DF002845D12021E7
:10A210006846FCF78CF90220ADF8000020788DF834
:10A2200002008DF80C509DF80D00F426ADF8046086
:10A2300040F00C008DF81150ADF806508DF80D006F
:10A240008DF81250608804F10C02694600F036F96E
:10A25000002822D120216846FCF769F90320ADF8D7
:10A26000000000E01BE020788DF802008DF80C5013
:10A270009DF80D008DF81150ADF8046040F010000D
:10A280008DF81250ADF806508DF80D008DF8135072
:10A290006088221D694600F011F90EB070BD0E20D5
:10A2A000FBE70000A0680300002915D0002813D0A8
:10A2B0000A460188102907D0502909D057290BD107
:10A2C0000146104605F058BF0146104605F08CBD0A
:10A2D0000146104605F0F2BF7047000070B500233C
:10A2E000042810D20D4D00EB4004012A02D10129AF
:10A2F0000CD00022094E00EB4000304461B101292E
:10A3000006D0022906D00723184670BD0E30C2B20F
:10A310002A55F9E74270F7E78270F5E710690020E7
:10A320002DE9F8430546861C00208DF80000904674
:10A330000F464FF001096846FEF788FB1B4C20686A
:10A340003860D4E90001401AA168081A41F21C01E2
:10A3500067180EE00121384603F0A5FA02F08AFCE6
:10A360000146384603F09FFAD4E90001401AA1687B
:10A37000081A401C8642EDD8B8F1000F03D0052022
:10A3800065F3891002E0062065F39F50A2682168FA
:10A39000114004EB8101C8602068304420609DF8C2
:10A3A0000000FEF777FB4846BDE8F88348A8002088
:10A3B00070B50D4604460A2902D10D21FFF7F8FFBA
:10A3C000A0682268411CA1601554D4E901018142B2
:10A3D00004D32046BDE8704003F0F7BD70BD000017
:10A3E000034803C8814201D1012070470020704713
:10A3F00048A800201CB5044602F04CF800236A4629
:10A40000092106F0ABFB052805D10348012241795B
:10A410002046FFF73FFB1CBD505800201CB50446EA
:10A420000020009042F6A620ADF8000001208DF833
:10A430000200084801AA6946006801902046A0DF92
:10A44000002805D10448012281792046FFF722FB2C
:10A450001CBD00001C6303005058002070B58AB07A
:10A460000D460646144624216846FCF760F8022093
:10A4700001A9ADF81E0008910021ADF81C10ADF83F
:10A480001A5001218DF81810ADF800608DF80440C5
:10A49000210A8DF802008DF80510684609F05EFE6D
:10A4A00009F08CFE0AB0002070BD0000024908448B
:10A4B00090F930007047000048A200202DE9F043D9
:10A4C0008146887891B090460C4600B901208DF8FD
:10A4D0003E002088ADF83C0000250095607C694670
:10A4E00008F09AFF6E46A07C711C08F095FFE07B97
:10A4F00000289DF8020002D040F0080001E020F0A2
:10A5000008008DF80200217C11B140F0100001E03C
:10A5100020F010008DF80200217B11B140F0010005
:10A5200001E020F001008DF80200217D09B1022137
:10A5300000E0012161F342008DF802001C2102A815
:10A54000FBF7F5FF607BC10601D4800617D50E9599
:10A550000EAFE07C791C08F05FFF9DF8380007978C
:10A5600020F00F00401C20F0F00010308DF8380073
:10A570009DF83A0020F00600801C8DF83A00607BC0
:10A580008DF80800A07B8DF80900142109A8FBF7BD
:10A59000CEFF0FA8CDE90906A088ADF83000A0686D
:10A5A00020B1E088ADF82C00A0680D90A06998B3A8
:10A5B00001950088ADF81000A06901AD01A940889F
:10A5C000ADF81200A069406806950390A069007B71
:10A5D00008F022FFA069691C407B08F01DFFA069FC
:10A5E000807A00289DF8060002D040F0080001E0C3
:10A5F00020F008008DF80600A169C97A11B140F079
:10A60000100001E020F010008DF80600A169097A21
:10A6100019B140F0010002E00DE020F001008DF8DA
:10A620000600A169897B09B1022100E0012161F3E3
:10A6300042008DF80600E06900B10590434609AA82
:10A6400002A94846AADF11B0BDE8F08308B502466A
:10A6500090F8C6020B4600EB8001C1EB801002EBC4
:10A66000400092F8C52242B1521ED2B202EBC201A2
:10A6700000EB4102518A491C00E0C188ADF800108E
:10A680000089ADF80200694618469DDF08BD70B527
:10A6900004464FF6FF750A462846AC4209D14FF4EE
:10A6A00080742146104603F0BBF880B2A0420BD064
:10A6B00070BDFF2CFCD82146104603F0A1F890F0A5
:10A6C000010F01D0204670BD284670BD70B5084C02
:10A6D000050009D010342168002907D008682060DF
:10A6E000496828468847F6E70834F4E770BD00005B
:10A6F00034A20020054A012120B1012805D1917022
:10A70000FFF7E4BF51700020FAE7704734A2002041
:10A7100073B58CB00646002000900D9880B10024DF
:10A720006D4621460DA803F0A0F830B1009805EB66
:10A73000400084800098401C0090641C142CF0D3CE
:10A740002C2269463046FBF7D9FE0EB070BD2DE9CC
:10A75000F04117880646B81D14460D46984202D9A6
:10A760000C20BDE8F0813188072206290AD34FF476
:10A77000486C4FF6FF73614501D9994202D1708848
:10A78000062801D21046ECE7604501D99842F9D17C
:10A79000994203D0984201D08142F3D80520E85570
:10A7A00020881221401C80B2208029542088401C1F
:10A7B00080B22080411930880AF07AFB2188084451
:10A7C00080B22080411970880AF072FB2188084409
:10A7D00020800020C5E7000001A28221FBF76ABDAE
:10A7E0002E2E5C2E2E5C2E2E5C6C795F626C655F6B
:10A7F0007065726970686572616C5C6C795F626CBF
:10A80000655F702E6300000038B54A7A0F4B62B165
:10A8100000220A725969002906D001228DF8002011
:10A82000ADF802006846884738BD0A7A62B19B6875
:10A830004C68024619462046FEF716F80028F3D069
:10A84000BDE8384008F03EBC5B68F1E7849A002020
:10A85000F0B587B016460F4604461D4618220B4930
:10A860006846FBF74BFE0A488DF80870ADF80240C9
:10A87000ADF80A608DF80C50017800222046FFF7F1
:10A8800009F9684600F054FE07B0F0BD8C6403007F
:10A89000F0580020FDF764BB10B5044612B11088D3
:10A8A000002211E04FF6FF70FAE7030A43EA0023A3
:10A8B000A05C5840C0F30313584080EA003080B2D7
:10A8C000C3B280EA4310521C8A42EED310BD00008E
:10A8D00070B588B00646002005900690ADF81410BB
:10A8E000ADF816100190029001AA05A9304690DF3C
:10A8F000050021D004F034FE0346114811493246C8
:10A90000401AC108012000EB014004460E4904F042
:10A9100074FABDF8042012B9BDF8060028B1BDF8DC
:10A920000630204609A104F068FABDF808201AB1E3
:10A930002046164904F05AFA08B0284670BD0000B7
:10A94000C8870300B08703002070030054686520A7
:10A950007265717565737465642054582F52582060
:10A960007061636B6574206C656E677468206973D1
:10A9700020746F6F206C6F6E672062792025752FB1
:10A980002575206F63746574732E00006C7003006E
:10A9900010B5044602F0A0FA2046BDE8104002F0CF
:10A9A00065BB000070B504460948012102F096FF1E
:10A9B000BFF35F8F0025002808D1204602F0D4F8AD
:10A9C000002803D1BFF35F8F0148056070BD000010
:10A9D0005C5800207FB50C4610B1012004B070BD5A
:10A9E0002079002638B141F61D5501281BD00228D8
:10A9F00026D00F20F2E70220207102960396E0682D
:10AA00000190694601A808F013F850B102988188B6
:10AA1000E18000882081BDF80010029808F086F8D7
:10AA2000DCE70A20DAE70A4B6A460021A01D07F09E
:10AA3000BBFF38B1064918398E61CE610A28CDD1E5
:10AA40002846CBE702488188019808F06FF8F5E7BF
:10AA50006C5900202DE9F843054690F8C6020F46D0
:10AA600000EB8001C1EB801005EB400695F8C54274
:10AA7000914604EBC40006EB40013279601C0A31B8
:10AA8000904226D16B460022284601F09BFE18B367
:10AA900010E0401EA04201D1002004E004EBC400FD
:10AAA00006EB40001C30804602466B46284601F00B
:10AAB00089FE30B100203870694648469EDFBDE807
:10AAC000F88395F8C5024146401C641C85F8C50210
:10AAD000E4B23079A042DCD8012038700020EEE7E3
:10AAE0002DE9F047894690F8C612904601EB8102A5
:10AAF000C2EB811100EB4107384608F033F806003D
:10AB00002FD0194CA06806282BD2184D762205EBC1
:10AB1000C0103946A0F80280001DFBF7EFFC0027AB
:10AB2000B9F1000F04D0A06805EBC010077004E075
:10AB3000A168022005EBC1110870A06805EBC011E7
:10AB4000401CCE67A060E16888420AD1002604E07C
:10AB500005EBC610C16F8847761CE0688642F7D3C4
:10AB6000A760BDE8F087000010590020149E002067
:10AB700070B50E4690F8C612154601EB8102C2EB85
:10AB80008111A0B000EB410007F0ECFF040009D0F8
:10AB90007C2205496846FBF7B1FCADF802506846D7
:10ABA0000196A04720B070BDE864030070B50E4662
:10ABB00004464FF43371FBF7BAFC11480025A4F8A2
:10ABC000CA62856084F8C9520E4884F8C65284F877
:10ABD000C552006820602246012130469BDF0121DA
:10ABE000112806D0002809D184F8C71284F8C85269
:10ABF00003E084F8C71284F8C812002070BD00007A
:10AC000010590020FC9D00202DE9FF4F02EB42006F
:10AC10002DED068B81B09B464000FBF7C9FD0D462C
:10AC200045EC100B9FED2C8B044653EC182B51EC8C
:10AC3000100BFBF74BFD9FED2A9B53EC192BFBF7F9
:10AC400042FD41EC100BFCF787FC9FED27AB51EC6C
:10AC5000100B53EC1A2BFBF739FDFBF7B6FD45EC57
:10AC6000104B824653EC182B51EC100BFBF72EFDCA
:10AC700053EC192BFBF727FD41EC100BFCF7D0FC34
:10AC800053EC1A2B51EC100BFBF720FDFBF79DFD4D
:10AC9000DFF85C908046002507980024471907EBF1
:10ACA0000A0600BF0898CDF800B02044A0EB0801C8
:10ACB0008BB281B2D9F818C0B2B2B8B2E047641C06
:10ACC000E4B2052CEED36D1CEDB2052DE4D301B03A
:10ACD000BDEC068BBDE8FF8F1839359D46DF913FEF
:10ACE0004AD8124DFB21F93F0000000000805B4074
:10ACF00040CC00202DE9FF4FA1B0382112A8FBF76E
:10AD000016FC482219496846FBF7F8FB03204FF070
:10AD1000180800252090002408FB05F922980DEB67
:10AD2000040100EBC50B219819F80170002600EB17
:10AD3000040AF80708D00E4A0BEB060081B25369EB
:10AD40001FFA8AF02E9A9847761C7F08B6B2082E12
:10AD5000EFD3641CA4B24445E0D36D1C2098ADB27F
:10AD60008542D8D325B0BDE8F08F0000786A030093
:10AD700040CC002038B56BB1012B0AD11D24074D02
:10AD80002A2300BF55F822200092054A156A224660
:10AD9000A84738BD3E245B23024DF3E718C80020C6
:10ADA00040CC0020F0C7002038B5074A52F82110E7
:10ADB000002907D00091054CC38882884188246A05
:10ADC0000088A04738BD000020C7002040CC0020EC
:10ADD0002DE9FC5F804600241A48DDF830909A4641
:10ADE0008B4600940194824229D800200A216E46A5
:10ADF000B2FBF1F301FB1323B2FBF1F2641C3354F9
:10AE000064B21AB1401C40B20828F1DB00273D466D
:10AE100013E0601B401E40B25346325C08EB070053
:10AE200080B25946FFF7A6FF504601F097F8C119C6
:10AE300001EB09006D1CC7B26DB2A542E9DBBDE8AC
:10AE4000FC9F00007F96980038B500914188C28829
:10AE5000058880880A4493B2284482B20248046973
:10AE60002846A04738BD000040CC002010B5002186
:10AE7000024802F033FD80F3100010BD64B80020DA
:10AE800000F027B870B51E2003F094FC052000F0F8
:10AE900042F8192003F02DFD0025192003F08AFC4B
:10AEA0006006040E1B2003F0FBFC10B144F001040B
:10AEB00001E004F0FE04192003F01BFD6D1CEDB24F
:10AEC000082DEAD3E007E1D1BDE870401E2003F071
:10AED00010BD70B5B0F5001F1CD3C0F30745C0F31B
:10AEE0000724C6B200F030F81E2003F063FC2020D7
:10AEF00000F011F8284600F00EF8204600F00BF89C
:10AF0000304600F008F81E2003F0F3FCBDE8704066
:10AF1000FFF7B8BF70BD70B505460024192003F0D7
:10AF200049FC05FA04F000064FF01A0002D403F0C1
:10AF300041FC01E003F0DDFC192003F0DAFC641CA5
:10AF4000E4B2082CEAD370BD10B51E2003F032FC29
:10AF50000620FFF7E0FFBDE810401E2003F0C9BC4B
:10AF60002DE9FE4F151ACDE900104FF000085E1ACA
:10AF700047464FF0FF30002D02DD4FF0010102E0A7
:10AF800003D14FF000018B4602E08346C5F1000576
:10AF9000002E02DD4FF0010002E003D14FF000006F
:10AFA000824602E08246C5F10006B54201DD2C462C
:10AFB00000E03446601C4FF00009029019E0009850
:10AFC0000C9A81B2019880B200F041F8A84437444D
:10AFD000A04504DD0198A8EB040858440190A7425D
:10AFE00003DD00983F1B5044009009F101001FFA57
:10AFF00080F902998945E2DBBDE8FE8F2DE9F04733
:10B000001F469046CA19521E93B200EB0802521E08
:10B01000002492B2DDF82090FBF70CFF002612E02E
:10B0200000250CE019F81400FCF71AF809EB4400AD
:10B030004078FCF715F8641C6D1CA4B2ADB2BD429B
:10B04000F0D3761CB6B24645EAD3BDE8F08710B51A
:10B0500014460B460246FBF7EDFE2046BDE81040C5
:10B06000FBF7F4BF2DE9F8431D46089C16468846B9
:10B0700007460B460094FFF773FF3A462B464146BE
:10B0800010460094FFF76CFF2B46324619463846AF
:10B090000094FFF765FF32462B4641461046009468
:10B0A000FFF75EFFBDE8F8832DE9F0470C468046C8
:10B0B000124813491F46401AC008032101EB004003
:10B0C000164610A1DDF8209003F08CFE781E83B2A6
:10B0D000701E82B221464046FBF7ACFE0AE04546B0
:10B0E00004E04846FBF7B2FF6D1CADB2B542F8D3A1
:10B0F000641CA4B2BC42F2D3BDE8F08770880300A0
:10B10000B08703006472765F6C63645F66696C6C21
:10B110000D0A000030B50021F9B004460A4601A826
:10B120005FF0F80300F8113000EB4105491CC9B28B
:10B130006A70F029F6D31E2003F002FB1E2003F0F4
:10B14000E2FB1C2003F0FCFA1C2003F0DCFB1820BF
:10B1500003F0F6FA182003F0D6FB032003F0F0FA10
:10B1600003256846009503F07FFB009A012191407A
:10B17000C0F80C150F481049401AC00805EB0040F4
:10B180000EA103F02FFEFBF793FE1F20F0230021FA
:10B1900000901A460846FFF787FF0C4820600C48CD
:10B1A00060600C48A0600C48E0600C48206179B0F9
:10B1B00030BD000070880300B08703006472765FC2
:10B1C0006C63645F696E69740D0A0000A9B00200C7
:10B1D0004FB0020061AF020065B00200FDAF020097
:10B1E00010B50446164817498AB0401AC008032112
:10B1F00001EB004014A103F0F5FD18221649684642
:10B20000FBF77CF91548069015494FF48070CDE99D
:10B21000070109900723134A06A96846FDF7BCFBFE
:10B2200018B111A29921FBF745F81748606017483B
:10B230001749A06000200870488088800AB010BDBF
:10B2400070880300B08703006472765F7561727462
:10B250005F696E69740D0A00C06A030040C800206F
:10B2600040C90020414203002E2E5C2E2E5C2E2E63
:10B270005C68617264776172655C6472765F756147
:10B2800072742E630000000097B2020095B20200B3
:10B29000D4680020704770B50D460646002404E0CF
:10B2A000305DFDF7B5FB641CA4B2AC42F8D370BDB1
:10B2B00009490120096809B1002070470749CA6996
:10B2C000002AF9D1044A283212688968491E8A4244
:10B2D000F3D1022070470000B8990020F8570020F1
:10B2E00013460A460021FFF7B3BA00002DE9F843E0
:10B2F000104D0F4680461E4691466946286802F06A
:10B3000048FA040014D01C21FBF711F90120207128
:10B31000C4F81490380BC4F80080C4E90260694690
:10B32000286802F057FA07F0ABFA0020BDE8F8836E
:10B330000420FBE73C66030010B503780022072BCE
:10B3400006D2DFE803F005040610202930000A7059
:10B3500010BD01230B7003898B818388CB81C0686A
:10B3600088600A7410BD02220A7002898A8182886C
:10B37000CA81C2688A60807D062802D000200874D5
:10B3800010BD0120FBE703220A70C2888A8102896E
:10B39000CA81C068886010BD04230B70C088888192
:10B3A000CA818A6010BD0520087010BD70B5064DB9
:10B3B0000646002455F8241009B130468847641C1D
:10B3C000042CF7D370BD0000ACA3002030B50446B8
:10B3D000006887B00D46806800281FD01821684695
:10B3E000FBF7A5F80195A0680590207910B1012818
:10B3F00010D107E001208DF8000020690290E0687C
:10B40000039005E002208DF80000E0680003029040
:10B4100060690490206881686846884707B030BD3D
:10B420002DE9F04186B016460C00804629D0112C3B
:10B4300027D0082C25D018216846FBF778F8ADF8FE
:10B440000280404601F026F8ADF804001B481C4974
:10B450000027401AC5080D2C16D0204604F080F8AD
:10B460000246012000EB05404346164903F0C5FCA7
:10B4700007208DF8000002948DF80C70684600F0EB
:10B4800065F806B0BDE8F081022000EB05404246B9
:10B490000D4903F0ABFC03208DF8000026B1307895
:10B4A000C00701D0012000E002208DF8080041F221
:10B4B00001108DF80C70ADF80A00DFE7F887030083
:10B4C000B0870300A07A03009079030010B504460A
:10B4D000408800F0DFFFA080024801682046BDE8F8
:10B4E000104008475858002010B50446808800F0E6
:10B4F0001BFF6080024801682046BDE810400847F5
:10B50000685800202DE9F04107460024064E074DFB
:10B5100005E000BF56F8241038468847641CE878D8
:10B520008442F7DBBDE8F081B09D00208058002008
:10B5300010B50446408800F0ADFFA08002480168C5
:10B540002046BDE8104008474064030001490968EF
:10B5500008470000E464030082B0CDE9000121F057
:10B56000004001909DED000B02B051EC100B7047B4
:10B5700070B586B0044618216846FAF7D8FFA0894E
:10B580000125A0F54040ADF804002078324E062891
:10B5900035D2DFE800F0340303032E4EA08900F01B
:10B5A00093F930B9E08943F6FE71A0F54040884236
:10B5B00025D8A07B8DF808002078032811D0002022
:10B5C0008DF80900A0680390606860B109208DF8CB
:10B5D0000000606804908DF81450684605F010FA79
:10B5E0000DE00120ECE708208DF800008DF81050E8
:10B5F000F3E7A08900F068F908B1E08930B170780C
:10B60000002801D005F046FB06B070BD606840B16F
:10B610000B208DF80000606802908DF80C5075705A
:10B62000DBE70A208DF80000BDF8040005F0D0FB30
:10B63000F5E7606858B114208DF80000606802904A
:10B640008DF80C504FF6FF70ADF80400C5E71320DD
:10B650008DF80000F6E700006C58002038B504466D
:10B660000E480078A8B1A4F57F40FF380FD0684697
:10B6700007F038F878B10521017001210171C4800B
:10B68000684607F03DF807F0EDF8002038BD0420CB
:10B6900038BD022038BD082038BD00007459002094
:10B6A0000C4808B5007888B1684607F01BF878B1F7
:10B6B00006210170684607F023F80748017809B1B0
:10B6C0000121017307F0CEF8002008BD022008BD5B
:10B6D000082008BD7459002070A40020F0B587B080
:10B6E00014216846FAF723FF2F4C207818B16846DA
:10B6F000FFF75CFE55E0201D02F0D2F898BB40F643
:10B70000F8700168481C02D14FF0102041694FF0D9
:10B710008050026940694B1C01D100FB02F12348B3
:10B7200000220161A1F54051C160214902F0E2FD12
:10B73000002822D120481C238C221E49006802F0D8
:10B7400015F804F0A7FE050016D0022D14D000272E
:10B750000126062D13D005A806F0C4FF90B106708F
:10B760000C2D19D200E01CE0DFE805F0160E160ED5
:10B7700016151615161012100B2007B0F0BD267006
:10B780006760B4E70820F8E7077105E0032100E0EF
:10B790000221017100E0067105A806F0B1FF07F073
:10B7A00061F80020E9E7000074590020FC680020DF
:10B7B0004C660300BCA30020B465030038B5040048
:10B7C00014D0694607F034F9A0B1BDF8000000EBD1
:10B7D0008001094800EB8100C16849B1A17A39B103
:10B7E000C168491EC1600020A07238BD052038BD67
:10B7F000062038BD0A2038BD48A400201FB501A985
:10B80000684607F0D1F804B010BD07B513460A46E4
:10B810006946002007F0C8F80EBD07B513460A4672
:10B820000021684607F0C0F80EBD20B119B10068CC
:10B83000086000207047052070470000F8B50D46ED
:10B84000040018D0BDB1694607F0F2F8A8B1BDF800
:10B8500000000B4900EB800001EB800001210C305F
:10B86000666802F020F82E6060680C306860012085
:10B87000A0720020F8BD0520F8BD0A20F8BD000028
:10B8800048A4002018B1032300220AF069B805205B
:10B890007047022300220AF063B80000084910B57F
:10B8A0000A69042A0AD0074A096942F821000448B3
:10B8B0000121103001F0F7FF002010BD0C2010BD59
:10B8C00054590020ACA3002043F6FE71A0F540407F
:10B8D000884201D8012070470020704710B5044607
:10B8E0000078182802D1FEF7B1F8207010BD10B50D
:10B8F00004460078182802D1FEF7A8F8207010BD81
:10B9000070B50D460446B0F83812D0F83402012262
:10B91000FDF77FFC00B1057004F13C0204F50D71E8
:10B9200004F1540072DF70BD70B513460022054665
:10B93000112900D10122074C33B12179FEF7AAF871
:10B9400000226178284600E06178BDE87040FEF78B
:10B95000A1B80000F8580020F7B517460E0011D026
:10B960000098002560B100242146684601F07DFF63
:10B9700018B1A0B23946B0476D1C641C142CF3D327
:10B980002846FEBD0020FEBD406806F0CBBE00008C
:10B990000EB515A19DF8080020F00F00401C20F006
:10B9A000F00010308DF80800042202A87CDF18B1E6
:10B9B0000F4A6F21FAF77EFC002000900190502181
:10B9C000ADF80400ADF800104FF4C870A021ADF838
:10B9D0000600ADF8021068467ADF002803D0044A5A
:10B9E0007921FAF767FC0EBD4C5953420000000064
:10B9F000F0D0020070B508B1012070BD194C0025CF
:10BA0000207B08B1257301E000F0A0F82078082819
:10BA100026D2DFE800F02504080C10251420BDE82C
:10BA2000704000F021B8BDE8704000F07DB8BDE87E
:10BA3000704000F05FB8BDE8704000F03BB860882F
:10BA4000084900EB8000283901EB80004068BDE820
:10BA5000704004F0FFBC6560BDE8704004F008BDB4
:10BA60000F2070BD70A400201149F0B48A1C002082
:10BA70000346A1F128050C18A67A4EB1A37200EB7B
:10BA8000800405EB8404E66816B9247C012C0AD0F6
:10BA9000401C80B20228EED30B704B804B60F0BC90
:10BAA00041F61D5070471080F0BC00F03DB800001A
:10BAB00070A400200C48418801EB8102A0F128010C
:10BAC00001EB8201CA6852B10521017007480221C9
:10BAD0008180016800230122054802F06FBB042227
