:020000040002F8
:1060000080F60020B1640200B9640200D16202008F
:10601000BD640200BF640200C16402000000000011
:1060200000000000000000000000000015620200F7
:10603000C56402000000000059620200C964020049
:1060400061700200CB640200C5740200817102001D
:10605000CB640200CB640200816A0200CB640200C0
:10606000CB640200CB640200CB640200CB6402006C
:10607000CB640200CB640200CB640200CB6402005C
:10608000D1740200B9700200CB640200CB6402003C
:10609000CB640200CB640200DD710200CB6402001D
:1060A000CB640200CB640200CB640200CB6402002C
:1060B000CB640200CB64020000000000000000007E
:1060C000CB640200CB640200CB640200CB6402000C
:1060D000CB640200CB640200CB640200000000002D
:1060E00000000000000000000000000000000000B0
:1060F00000000000000000000000000000000000A0
:10610000000000000000000000000000000000008F
:10611000000000000000000000000000000000007F
:10612000000000000000000000000000000000006F
:10613000000000000000000000000000000000005F
:10614000000000000000000000000000000000004F
:10615000000000000000000000000000000000003F
:10616000000000000000000000000000000000002F
:10617000000000000000000000000000000000001F
:10618000000000000000000000000000000000000F
:1061900000000000000000000000000000000000FF
:1061A00000000000000000000000000000000000EF
:1061B00000000000000000000000000000000000DF
:1061C00000000000000000000000000000000000CF
:1061D00000000000000000000000000000000000BF
:1061E00000000000000000000000000000000000AF
:1061F000000000000000000000000000000000009F
:10620000DFF80CD000F0EEFB004800471DD602007E
:1062100080F60020264B19680868B0E8F04F80F33C
:106220000988BFF36F8F4FF0000080F3118870472B
:10623000000000000748006880F3088862B661B675
:10624000BFF34F8FBFF36F8F4FF4F07080F311885F
:1062500000DF000000600200EFF30980BFF36F8FE2
:10626000134B1A681EF0100F08BF20ED108A20E9AA
:10627000F04F106008B44FF0400080F31188BFF376
:106280004F8FBFF36F8F0FF0ADF94FF0000080F329
:10629000118808BC19680868B0E8F04F1EF0100FAC
:1062A00008BFB0EC108A80F30988BFF36F8F704786
:1062B0000871002000B583B002900091019244F271
:1062C000010071466A4602F01DFA03B000BD0000ED
:1062D000094B1EF0040F1CBFEFF309801847EFF3C2
:1062E00008800649064A884201D8904202D88D4665
:1062F0004FF0000018470000E56B020080F6002018
:1063000080EE002030B450E8012F93B2C4892344BA
:106310008489A34228BF1B1B0489A34202BFBFF389
:106320002F8F002007E0C3EA020340E80134002C6D
:10633000E9D14FF001000A6030BC704750E8012FEE
:10634000C2EA024240E801210029F7D1704730B487
:1063500050E8022F1FFAA2F3C488A34202BFBFF382
:106360002F8F00200DE0C48923448489A34228BFD5
:106370001B1BC2EA034340E80234002CE8D14FF073
:1063800001000A6030BC704750E8022FC2EA224286
:1063900040E802210029F7D17047034653E8022F55
:1063A000D988B2EB324F4FF0000017BF92B241EAEA
:1063B000014142EA014104E05A68B2EB324F08BFA2
:1063C000012043E80212002AE8D1704730B40446A5
:1063D00054E8000F0D4644E80053002BF8D1156037
:1063E00030BC704730B4044654E8000F40EA010561
:1063F00044E80053002BF7D1156030BC704730B42F
:10640000044654E8000F00EA010544E80053002B5D
:10641000F7D1156030BC704730B4044654E8000F23
:1064200080EA010544E80053002BF7D1156030BC29
:10643000704730B4044654E8000F00EB010544E80F
:106440000053002BF7D1156030BC704730B40446C0
:1064500054E8000FA0EB010544E80053002BF7D1EE
:10646000156030BC704770B404464FF0000054E82B
:10647000006F0D68AE4207BF44E80023012044E8E6
:1064800000630E60002B1CBF0020F0E770BC70475B
:1064900030B4044654E8000F88422CBF451A054624
:1064A00044E80053002BF5D1156030BC7047000064
:1064B0000648804706480047FEE7FEE7FEE7FEE79E
:1064C000FEE7FEE7FEE7FEE7FEE7FEE711720200E9
:1064D00001620200202A04DB203A00FA02F10020C7
:1064E00070479140C2F1200320FA03F31943904012
:1064F0007047000000487047786A030040EA0103D3
:106500009B0703D009E008C9121F08C0042AFAD269
:1065100003E011F8013B00F8013B521EF9D270472D
:10652000D2B201E000F8012B491EFBD270470022D5
:10653000F6E710B513460A4604461946FFF7F0FF82
:10654000204610BD421C10F8011B0029FBD1801A07
:10655000704730B504460020034600E05B1C9342C0
:1065600003D2E05CCD5C401BF8D030BD034611F88F
:10657000012B00F8012B002AF9D1184670472DE9AC
:10658000FE4F804681EA0300C00F0C46009021F0C8
:10659000004123F00045B8EB0200A94105D2404676
:1065A000214690461C460B46024623F0004010430D
:1065B00047D0270DC7F30A00C3F30A510290401ACF
:1065C000019040286BDAC3F3130040F4801B00985D
:1065D000924620B10023D2EB030A63EB0B0B019828
:1065E0005946C0F140025046FFF774FF06460D467B
:1065F00050465946019A00F017F910EB0800614126
:10660000002487EA115284EAE7731A4340D0009AC3
:1066100062B3019A012A4FEA075215DC001B61EBB5
:1066200002014FF0004202EA0752CDE90042001C8D
:1066300041F5801132462B4600F017F903B0BDE852
:10664000F08F40462146F9E7001B61EB0201001C78
:1066500041F5801300185B412018A2F5001747EBA5
:10666000030140EAD570B6196D4111E06D084FEA9B
:10667000360645EAC0754FEA0752001B61EB02017E
:10668000001C41F5801149084FEA300000195141C2
:1066900032462B4603B0BDE8F04F00F0D7B8009863
:1066A000012240000023D0EB020263EBE07300986C
:1066B00021464FEAE074B8EB000061EB0401E9E722
:1066C00083F000435BE781F0004158E72DE9FE4F7E
:1066D00081EA030404F0004421F0004100944FF0EB
:1066E000000B23F0004350EA01045ED052EA030499
:1066F0005BD0C3F30A54C1F30A552C44A4F2F3341B
:106700000194A0FB0254C1F3130141F48011C3F3BF
:10671000130343F4801301FB024400FB034E840A7D
:10672000970A44EA815447EA8357A4FB0768029515
:106730008D0A05FB07854FEA932C04FB0C542705B3
:10674000029D4FEA065847EA1637B5EB08056EEB8F
:10675000070C870E920E47EA811742EA8312A7FBC5
:106760000201B6EB0B0164EB00042B0D43EA0C3382
:106770005E1844EB1C50DA465146E7FB0201C5F3B4
:1067800013044FEA0B3343EA14534FEA0432019CDB
:1067900043EA0603A4F10C040294009CCDE900B482
:1067A00000F063F803B0BDE8F08F00200146F9E780
:1067B0000EB540F2334102910021CDE900110A46A5
:1067C0000B4600F052F803B000BD70B5C1F30A5299
:1067D00001F000450024C1F3130140F2FF3341F4FE
:1067E00080119A4201DA002070BD40F233439A4290
:1067F000A2F2334203DC524200F006F800E090407F
:106800002C43F1D0404270BD202A04DB203A21FA0B
:1068100002F00021704721FA02F3D040C2F12002B9
:106820009140084319467047202A06DBCB17203ACF
:1068300041FA02F043EAE07306E041FA02F3D04085
:10684000C2F12002914008431946704710B5141E4A
:1068500073F1000408DA401C41F1000192185B4119
:106860001A4301D120F0010010BD2DE9F04D9246F0
:106870009B4611B1B1FA81F202E0B0FA80F2203207
:106880009046FFF727FE04460F4640EA0A0041EA19
:106890000B0153465A46084313D0114653EA0100F0
:1068A00019D0C8F140025046FFF7AEFF05460E462C
:1068B000504659464246FFF70DFE084305D00120D9
:1068C00004E020463946BDE8F08D0020054346EA45
:1068D000E0762C4337430A986305E40AA0EB0800EE
:1068E0000022FD0A44EA47540A3002D5002001463E
:1068F000E9E7010510196941DDE908450019694119
:10690000BDE8F04DA2E72DE9F04D81EA030404F063
:10691000004B21F0004514464FF0000A23F00041DF
:1069200050EA050220D054EA01021DD0C5F30A57EF
:106930000246C5F31303C1F31300C1F30A5640F432
:10694000801543F48013A7EB0608101BD64608F207
:10695000FD3873EB050002D308F1010801E092183D
:106960005B41B8F1000F03DA00200146BDE8F08D6D
:1069700000204FF48011064684460EE0171B73EB8F
:10698000050705D3121B63EB050306434CEA010C14
:1069900049084FEA300092185B4150EA0107EDD1F7
:1069A00052EA030012D082EA040083EA0501084398
:1069B00005D0101BAB4106D20122002306E00022C5
:1069C0004FF0004302E06FF0010253101AEB060093
:1069D0004CEB085110EB0A0041EB0B01BDE8F04D08
:1069E000FFF734BF064C074D06E0E06840F00103B6
:1069F00094E8070098471034AC42F6D3FFF704FC44
:106A000088860300A88603000EB5C10F80EAE070F7
:106A10000844CA07002140F233438DE80E000A46BD
:106A20000B46FFF722FF03B000BD70B58C1810F8BD
:106A3000015B15F0070301D110F8013B2A1106D1C3
:106A400010F8012B03E010F8016B01F8016B5B1EDD
:106A5000F9D12B0705D40023521E0DD401F8013BB8
:106A6000FAE710F8013BCB1A921C03E013F8015B24
:106A700001F8015B521EF9D5A142D8D3002070BDA8
:106A80002DE9F04700268AB0DFF85091B0464FF468
:106A90008075012437460696284607F0D3FF38B1A3
:106AA000D9F80403204203D0284607F0C1FF26434B
:106AB0002D1D64007F1CADB2082FEDD34FF4BE74C2
:106AC000204607F0BFFF48B1204607F0B1FF46F06F
:106AD000004606AA0121002007F096FF404D16F05F
:106AE000FF0F15D00127002437420DD009EB840198
:106AF000D1F81005D1F81015C0F3042055F8242062
:106B0000C1F3014102B190477F00641C082CEBD314
:106B1000002E5FDA4FF0FF30CDF8108054E02819D6
:106B200010F8507F90F9000027F0C008401C3BD0BF
:106B300007A9404607F053F810B34FEA97194046AB
:106B400003F0D0FD55F820701FB1B9F1030F03D049
:106B500006E0B9F1030F27D104A9404607F047F832
:106B60004FF0A04101EB8800D0F8000706A9C0F360
:106B7000014A404607F033F818B1BAF1020F03D0CA
:106B800012E0BAF1030F0FD1B9F1030F08D1BAF136
:106B9000020F1DD00221404607F002FF761CF6B21C
:106BA00017B149464046B847641C042CB7D3002EA1
:106BB00010D06A460121002007F026FF06990098B0
:106BC000884207D006900498002634460790A6E72E
:106BD0000321E0E70AB0BDE8F08700000060004054
:106BE0005CB900201CB5814608F028FA07F0F6FFD2
:106BF0000028FBD130485FEA090507682F48304973
:106C00004FF00106A0EB01004FEAD00006EB004474
:106C100017D020462BA1AA6908F052F9D5E9020144
:106C2000CDE90001D5E9002320462CA108F060F948
:106C3000E8690090D5E90423204636A108F04FF911
:106C400003E020463DA108F037F91B48001D00680D
:106C5000800703D52046464908F02EF9DFF8148155
:106C6000002500BF06FA05F0384206D058F8252066
:106C70001AB1204640A108F023F96D1C1A2DF1D35A
:106C8000380606D50C480C30026820463DA108F0B5
:106C900017F9380406D5084810300268204641A18B
:106CA00008F00EF90448C8300068C00700D000BEE4
:106CB000484600F085F8000028ED00E060870300FA
:106CC000B886030048415244204641554C54206147
:106CD00074203078253038580000000020205230D1
:106CE0003A2020307825303858202052313A202060
:106CF000307825303858202052323A2020307825FC
:106D0000303858202052333A2020307825303858F7
:106D10000000000020205231323A203078253038EF
:106D20005820204C523A20203078253038582020E6
:106D30005053523A203078253038580053746163EC
:106D40006B2076696F6C6174696F6E3A2073746141
:106D5000636B20706F696E746572206F75747369F0
:106D6000646520737461636B20617265612E00003D
:106D7000DC7B03008C72002043617573653A20252B
:106D8000732E00004D656D4D616E61676520466133
:106D9000756C7420416464726573733A2030782591
:106DA00030385800427573204661756C7420416418
:106DB00064726573733A20307825303858000000CB
:106DC000BFF34F8F05480168054A01F4E0611143A4
:106DD0000160BFF34F8F00BFFDE700000CED00E046
:106DE0000400FA052DE9F04104461D4616460F46FB
:106DF0002A2000F00FF9204600F000F9304600F09C
:106E0000FDF82B2000F006F9384600F0F7F8284688
:106E100000F0F4F8BDE8F0412C2000F0FBB810B50C
:106E20000D2007F0B5FD0E2007F0B2FD0B2007F096
:106E3000AFFD0C2007F0ACFD0F2007F0A9FD0D20E1
:106E400007F0DBFD0E2007F0D8FD0B2007F0D5FD85
:106E50000C2007F0D2FDBDE810400F2007F0CDBD9B
:106E600010B5FFF7DCFF0E2007F0B2FD642007F03D
:106E70000BF90E2007F0C1FD642007F005F90F2083
:106E800007F0BBFD642007F0FFF8112000F0C2F806
:106E9000782007F0F9F8362000F0BCF8002000F068
:106EA000C6F83A2000F0B6F8052000F0C0F8B2208D
:106EB00000F0B0F80C2000F0BAF80C2000F0B7F8A1
:106EC000002000F0B4F8332000F0B1F8332000F0D7
:106ED000AEF8B72000F09EF8352000F0A8F8BB20EF
:106EE00000F098F8192000F0A2F8C02000F092F805
:106EF0002C2000F09CF8C22000F08CF8012000F05B
:106F000096F8C32000F086F8122000F090F8C42014
:106F100000F080F8202000F08AF8C62000F07AF80F
:106F20000F2000F084F8D02000F074F8A42000F0C6
:106F30007EF8A12000F07BF8E02000F06BF8D02074
:106F400000F075F8042000F072F80D2000F06FF8E2
:106F5000112000F06CF8132000F069F82B2000F0ED
:106F600066F83F2000F063F8542000F060F84C20F1
:106F700000F05DF8182000F05AF80D2000F057F8E6
:106F80000B2000F054F81F2000F051F8232000F0EF
:106F90004EF8E12000F03EF8D02000F048F8042040
:106FA00000F045F80C2000F042F8112000F03FF806
:106FB000132000F03CF82C2000F039F83F2000F0BE
:106FC00036F8442000F033F8512000F030F82F203C
:106FD00000F02DF81F2000F02AF81F2000F027F8FD
:106FE000202000F024F8232000F021F8212000F0D8
:106FF00011F8BDE81040292000F00CB810B5044687
:10700000000A00F014F8E0B2BDE8104000F00FB83C
:1070100000F00DB810B504460D2007F0D9FC20464D
:1070200000F005F8BDE810400D2007F0E6BC70B593
:10703000044600250C2007F0CBFC20064FF00B0087
:1070400002D507F0DAFC01E007F0C2FC0C2007F0E3
:10705000D4FC60066D1C040EEDB2082DEAD370BDA1
:1070600070B54FF48076304606F0FEFF114CB50542
:1070700060B1304606F0FFFF0120C5F808036079D3
:1070800020B9012060712168002088474FF4827682
:10709000304606F0E9FF00280AD0304606F0EBFF44
:1070A0000220C5F808032168BDE8704001200847A8
:1070B00070BD0000447200202DE9F041164E4FF4DF
:1070C000A071304608F0A5F80025EFF311844020A8
:1070D00080F31188D6F804758100304608F099F8DD
:1070E0000EF002FF381A20F07F46012E07D90EF06D
:1070F000EDFE022803D000260EF002FF0543761EA7
:10710000FAD225B105494FF08050086040BFE0B287
:1071100080F31188BDE8F0810010014004ED00E02B
:1071200000F0E8B970B50E46144900EB400001EBE1
:10713000C0051446E86A183520B101280FD002288E
:1071400005D113E0284600F009FAA04201D200243C
:1071500011E022463146284600F038FA0BE0284676
:1071600000F0FCF9A042F4D20446F2E7314628468A
:1071700000F0FFF90446204670BD00005CCF0020FF
:1071800038B54FF0A040D0F8041582008A43C0F80B
:10719000082501F08041C0F80C150E480E4C002562
:1071A000C0F80851D0F80811009121460CF0BAFE41
:1071B00000280ED1A07FFF2801D007F010FC6577D2
:1071C0002572D4E9002101B004F10800BDE8304087
:1071D000104738BD0030004008BA002008B5002034
:1071E00000900948694600680EF0D2F8009800281F
:1071F00008D006494FF08050086040BFBFF34F8F62
:10720000BFF36F8F08BD00007873002004ED00E02D
:10721000F0B59E480126021D01780024101D330799
:1072200006290BD115782D0708D10578C5F303156C
:10723000032D06D0042D04D0052D02D0062907D039
:107240000EE0B3F82453924FC5F304253D6002E0ED
:1072500015782D0704D10578C5F30315032D02D049
:10726000062904D00FE08C4F8A4D7D670EE015781B
:107270002D0708D10578C5F30315032D06D0042D7D
:1072800004D0052D02D0062907D00EE0D3F84452D1
:10729000824FC5F342353D6002E015782D0704D1D9
:1072A0000578C5F30315032D02D0062906D011E099
:1072B0007B4D2F6827F080772F600EE015782D0723
:1072C00008D10578C5F30315032D06D0042D04D08D
:1072D000052D02D006290AD011E04FF08045C5F8EF
:1072E0000C41C5F810416D4D2D1F2C6002E0157842
:1072F0002D0704D10578C5F30315032D02D0062907
:1073000005D00CE0654F032564373D600AE0157831
:107310002D0704D10578C5F30315032D02D00629E6
:107320000DD014E05F4F05253D605E4D78352E6031
:107330005C4D08352C603F242D1F2C6002E0147832
:10734000240704D10478C4F30314052C02D00629C1
:1073500057D062E0544C2468544D2C60524C241D8C
:1073600024682D1D2C60504C083424682D1D2C6081
:107370004D4C0C3424682D1D2C604B4C103424686B
:107380002D1D2C60484C143424682D1D2C60464C57
:1073900018342468454D20352C60434C1C34246837
:1073A0002D1D2C60404C203424682D1D2C603E4C3B
:1073B000243424682D1D2C603B4C283424682D1D5A
:1073C0002C60394C2C3424682D1D2C60364C303404
:1073D0002468364D40352C60334C343424682D1DE0
:1073E0002C60314C383424682D1D2C602E4C3C34DC
:1073F00024682D1D2C602C4C403424682D1D2C60DD
:1074000002E01478240708D10478C4F30314032C91
:1074100006D0042C04D0052C02D0062907D019E090
:10742000D3F85812224A01F04F01116002E011789E
:1074300009070FD10078C0F30310032803D00428F4
:1074400001D0052806D11B480168C90702D06FF09A
:1074500001010160D3F83001062808D1D3F83401C6
:10746000062804D11448016841F4806101600C4889
:107470007438016841F470010160BFF34F8FBFF3AE
:107480006F8F0F490D480860F0BD0000E00F00F05D
:10749000403501400DF0ADBA00C007403C0500404A
:1074A000FCED00E0105600400404001020C5004030
:1074B000E40E0040000400403C1700400090D00360
:1074C0000880002001480068004700004C7200203E
:1074D00038B5064C20680025002805D004484068CF
:1074E000804725602068009038BD00000001014001
:1074F0005472002010B5124C02202061606111A06E
:10750000A06104F17800E0614FF400702062002077
:10751000A06260620BA1A164E06204F51E71E164E7
:107520001021A065C4E91410E06509A1E01DFFF772
:107530001DF808A12046FFF719F82020A07110BD02
:107540005CCF00205465726D696E616C00000000B4
:107550005254540053454747455200000269C168E0
:107560008A4203D88068401A104400E0501A401E36
:1075700070472DE9F047C4681746894606464FF024
:1075800000083069A04201D9051B02E0B168201A49
:107590000D1AB0686D1E001BA84200D80546BD42FA
:1075A00000D33D4670682A4620444946FEF7A6FFB0
:1075B000B0687F1B2C44A844A944A04200D10024F9
:1075C000F460002FDDD14046BDE8F0872DE9F041A1
:1075D00004468846D4E90207C51BE1686068164680
:1075E0000844B54206D94146FEF788FFB819E06065
:1075F000BDE8F0812A464146FEF780FF761B08EB86
:10760000050132466068FEF779FFE660F0E703B4F3
:1076100001984100009850EAC12018BF04204A0D8B
:1076200018BF40F0010040F2FF72B2EB515F08BF9B
:1076300040F00200012808BF052002B0704700009A
:1076400010B52F499FED2C1B2DED020B84B0059832
:1076500020F000408842D8BF9DED040B2DDD294964
:10766000884209D1049840B94FF0010000F0E6FCCF
:1076700000F0A2FC06B010BD05DB9DED040B00F090
:107680008FFC06B010BD68469DED040B00F0A0F81D
:1076900010F0030004BF9DED021B9DED000B0CD00C
:1076A00001280ED09DED021B9DED000B022817D086
:1076B000012000F0DDFB06B010BD00F0A5FA06B019
:1076C00010BD9DED021B9DED000B012000F0D0FBD5
:1076D00051EC100B81F0004106B041EC100B10BDD5
:1076E00000F092FA51EC100B81F0004106B041EC31
:1076F000100B10BD000000000000000000000000A2
:10770000FB21E93F0000F07F10B52F499FED2C1BB6
:107710002DED020B84B0059820F000408842DCBFBC
:1077200000209DED040B32DD2849884209D10498E0
:1077300040B94FF0010000F081FC00F03DFC06B0C4
:1077400010BD05DB9DED040B00F02AFC06B010BD5A
:1077500068469DED040B00F03BF810F0030011D0DB
:10776000012818D09DED021B9DED000B02281AD0B8
:1077700000F04AFA51EC100B81F0004106B041ECE8
:10778000100B10BD9DED021B9DED000B012000F0C4
:107790006FFB06B010BD9DED021B9DED000B00F0D0
:1077A00033FA06B010BD012000F062FB51EC100B63
:1077B00081F0004106B041EC100B10BD000000004C
:1077C0000000000000000000FB21E93F0000F07F06
:1077D0002DE9F14F04462DED020B2DED088B8AB0FB
:1077E0009FEDE70B80ED020B139EE74826F0004566
:1077F00085420ADC9DED120B002084ED000B0AB0DF
:10780000BDEC088B03B0BDE8F08FE0489FEDE0AB26
:107810009FEDE1BBA84247DDE14F9FEDE39B9FED6C
:10782000E48B9DED120B53EC1A2B51EC100B002E38
:107830001CDDFEF745FF41EC100BBD4208D053ECB8
:107840001B2B51EC100BFEF73BFFC4E900010BE0D2
:1078500053EC192B51EC100BFEF732FF53EC182BA5
:10786000FEF72EFFC4E900010120C8E7FEF787FEFE
:1078700041EC100BBD4208D053EC1B2B51EC100B0C
:10788000FEF77DFEC4E900010BE053EC192B51EC2F
:10789000100BFEF774FE53EC182BFEF770FEC4E9D4
:1078A00000014FF0FF30AAE7C348A84279DB9DED05
:1078B000120B51EC100B03F06BFF41EC180B9FED1A
:1078C000C00B53EC102BFEF701FF9FEDBF1B53ECD9
:1078D000112BFEF754FEFEF778FF0746FFF794F8EA
:1078E00041EC190B53EC1A2BFEF7F0FE53EC182B5E
:1078F000FEF7E9FE41EC180B53EC1B2B51EC190B76
:10790000FEF7E4FEDFF8C8A241EC100B4FEA155871
:107910000125FA4453EC102B51EC180BFEF7D0FE66
:10792000032DC4E900013DD0C1F30A5005EB451118
:10793000A8EB00001139814234DA0AEB051BB0EEE6
:1079400048AA9BED000BF0EE68AA53EC102B51EC0B
:10795000190BFEF7BBFE41EC1B0B51EC1A0B53EC61
:107960001B2BFEF7ADFE41EC180B51EC1A0B53EC40
:10797000182BFEF7A5FE53EC1B2BFEF7A1FE9BED8B
:10798000020B41EC1A0B53EC102B51EC190BFEF7C8
:107990009DFE53EC1A2BFEF793FE41EC100B6D1C71
:1079A000B8E70EE0002EA8BF3846BFF628AF94ED2A
:1079B000000B51EC100B81F00041C4E9000178424A
:1079C0001DE7C6F3130040F4801EC6F30A50A0F270
:1079D000F530471100F01F05C5F12000DDF848B073
:1079E00008900020069007900520EC467949002D6C
:1079F00007EB0002794408BF51F8221009D051F872
:107A0000223001EB8201AB404A68089922FA01F169
:107A10001943A1FB0E26A1FB0B131A449A4234BF53
:107A20000123002303EB06080CEB8003D3E901A636
:107A30000E448E4234BF0121002192448A4411B188
:107A4000924502D903E0924501D2012100E00021D4
:107A5000C3E901A641444CF82010011EA0F1010029
:107A6000C4DC029800F10050850F0298DDE903673D
:107A70008000DDF81480FEF7C7FF41EC1A0B30469A
:107A8000FEF796FE9FED541B53EC112BFEF71EFEE6
:107A900041EC1B0B3846FEF78BFE9FED511B53EC60
:107AA000112BFEF713FE41EC180B4046FEF780FE4B
:107AB0009FED4D1B53EC112BFEF708FE41EC190B0B
:107AC00051EC180B53EC192BFEF759FD53EC1B2B03
:107AD000FEF755FD53EC1A2BFEF751FDCDE90801D9
:107AE000002008909DED080B53EC1A2B51EC100B65
:107AF000FEF7E6FD53EC1B2BFEF7E2FD53EC182BD3
:107B0000FEF7DEFD53EC192BFEF7DDFD9FED381B74
:107B100053EC112BFEF7DAFD9FED370B41EC180B00
:107B200053EC102B9DED080B51EC100BFEF7CEFD26
:107B300053EC182BFEF723FD9FED310B41EC180B96
:107B400053EC102B9DED080B51EC100BFEF7BEFD16
:107B500053EC182BFEF713FD41EC100B139810F0AB
:107B6000004F06D06D4251EC100B81F0004141EC0A
:107B7000100B284684ED000B41E6000000000000D9
:107B80000000000000000000FB21E93F7CD902401A
:107B900000004054FB21F93F3163621A61B4D03DCB
:107BA000FB21F93F000000000000601A61B4D03DE5
:107BB0007370032E8A19A33BFB213941000000009A
:107BC00083C8C96D305FE43F000000000000E03F63
:107BD0009AF10000E8F00000000000000000103EF4
:107BE000000000000000103C000000000000103AFF
:107BF000182D4454FB21F93D3326A611460B113CA8
:107C000000000054FB21F93D10B52DED040B2DEDC6
:107C1000088B82B0B0EE419AF0EE619A0B9820F09A
:107C200000449FED4BABB4F1795F11DA9DED0A0B87
:107C300051EC100BFEF7C9FD002801BFB0EE4A0A57
:107C4000F0EE6A0A02B0BDEC088B04BF04B010BDB0
:107C50009DED0A0B53EC102B51EC100BFEF736FD8B
:107C600041EC180B3C480621B0EE480AF0EE680AD9
:107C7000784400F081F853EC182B51EC100BFEF710
:107C800025FD9DED0A0B41EC1B0B53EC192B51EC20
:107C9000100BFEF71BFD41EC190B53EC1B2B51ECA9
:107CA000180BFEF713FD53EC192BFEF709FD9FEDA2
:107CB0002C0B41EC190B53EC102B51EC180BFEF76D
:107CC00005FD41EC100B2848844210DA53EC192BC7
:107CD00051EC100BFEF7F4FC53EC1A2BFEF7F3FCFF
:107CE00041EC100B02B0BDEC088B04B010BD1F4876
:107CF000A042BCBF9FED1E1B8DED001B06DBA4F553
:107D000000100190002000909DED001B51EC100B25
:107D100053EC112BFEF7D4FC9DED000B41EC180B3E
:107D200053EC102B51EC1A0BFEF7CAFC41EC1A0B6A
:107D300053EC192B51EC180BFEF7C2FC53EC1A2B29
:107D4000FEF7C1FC41EC100BCCE700000000000086
:107D5000000000000000F03F0CEE000000000000FA
:107D6000000000000000E03F3333D33F0000E93F54
:107D7000000000000000D23F70B504462DED028BDC
:107D80004D1E00EBC500B0EE408AF0EE608A90ED2B
:107D9000000B35F0060017D053EC182B51EC100BEC
:107DA000FEF794FC41EC100B6D1E04EBC50090ED4A
:107DB000001B51EC100B53EC112BFEF7E0FB41ECD8
:107DC000100B35F00600E7D1022D36D0042D1CD063
:107DD000062D1CBFBDEC028B70BD53EC182B51EC73
:107DE000100BFEF773FC94ED0A1B53EC112BFEF7FE
:107DF000C6FB53EC182BFEF769FC94ED081B53EC03
:107E0000112BFEF7BCFB41EC100B53EC182B51EC83
:107E1000100BFEF75BFC94ED061B53EC112BFEF7E9
:107E2000AEFB53EC182BFEF751FC94ED040B53EC16
:107E3000102BFEF7A4FB41EC100B53EC182B51EC6C
:107E4000100BFEF743FC94ED021B53EC112BFEF7D5
:107E500096FB53EC182BFEF739FC94ED001B53EC0A
:107E6000112BFEF78CFBBDEC028B41EC100B70BDAF
:107E700031B504462DED040B2DED0A8BB0EE41BA61
:107E8000F0EE61BA0B989DED0A0B20F00040B0F1C6
:107E9000795F0DDA51EC100BFFF7B9FB042808BF2E
:107EA00000F09AF89DED0A0BBDEC0A8B05B030BDD1
:107EB00053EC102B51EC100BFEF708FC41EC180BA7
:107EC0009DED0A0B53EC182B51EC100BFEF7FEFB4B
:107ED00041EC190B2C48B0EE480AF0EE680A052177
:107EE0007844FFF749FF9FED2ACBB0EE40AAF0EEB1
:107EF00060AA9CB353EC1C2B51EC190BFEF7E6FB6C
:107F000041EC1C0B53EC1A2B51EC190BFEF7DEFB6A
:107F10009FED210B41EC190B53EC102B51EC1B0B7B
:107F2000FEF7D4FB53EC192BFEF7CAFB53EC182BCE
:107F3000FEF7CCFB53EC1B2BFEF7C2FB53EC1C2BC8
:107F4000FEF7BEFB9DED0A1B53EC112BFEF7BBFBAE
:107F5000BDEC0A8B05B041EC100B30BDFFE753ECD4
:107F60001A2B51EC180BFEF7B1FB53EC1C2BFEF750
:107F700006FB53EC192BFEF7A9FB9DED0A1B53ECF6
:107F8000112BFEF7FCFAE3E794EC00000000000080
:107F9000495555555555C5BF000000000000E03F4C
:107FA00010B553EC102B51EC100BFEF7E8FA41EC36
:107FB000100B10BD000000009FED050B10B553EC39
:107FC000102B51EC100BFEF79EFC41EC100B10BD7A
:107FD00000000000000000009FED050B10B553EC01
:107FE000102B51EC100BFEF771FB41EC100B10BD88
:107FF000000000000000001002E008C8121F08C1C5
:10800000002AFAD170477047002001E001C1121F19
:10801000002AFBD1704700000121202803DA8140AB
:108020000548014003E0402802DA2038814009B1C8
:108030000120704700207047FC06FFBD0149086021
:10804000704700000C8000202DE9F843804643F281
:10805000020669B9694609F033F8B04204D018B194
:10806000284A8D21FEF726F99DF80000800746D4A6
:108070000021404609F060F8050040D0112D3ED0A7
:1080800021482249401AC708022000EB07440D2D61
:108090000AD00B2D1DD0B5421FD11D4920464246A6
:1080A000BDE8F84306F00CBF20464246194906F0E9
:1080B00007FF1321404676DF002820D007F0B6FAEC
:1080C000024601B020464346BDE8F04312A106F047
:1080D000FEBE204642461E49E2E7284607F0A6FAC1
:1080E0000246012000EB074043461AA106F0EFFECE
:1080F0002846BDE8F843034ABC21FEF7DBB8BDE8DB
:10810000F88300009C74030000870300B886030016
:10811000CC7303005873030073645F626C655F6720
:1081200061705F646973636F6E6E65637428292084
:1081300072657475726E6564202573206F6E20639E
:108140006F6E6E5F68616E646C652025642E000042
:1081500018740300417373657274696E672E207022
:108160006D5F636F6E6E5F7365637572652829203E
:1081700072657475726E6564202573206F6E20635E
:108180006F6E6E5F68616E646C652025642E000002
:1081900031B500252C462146684605F084FC00B127
:1081A0006D1C641C142CF6D3284638BD30B500294C
:1081B0001BD000220A614A610268AAB14B6803E041
:1081C00055689D4203D822465469002CF8D1546862
:1081D0009C420BD91369C1E90432136903B1596197
:1081E00011610368934200D1016030BD51610A61A1
:1081F00030BD10B560B159B102780B785208B2EBBE
:10820000530F05D10622401C491CFEF7A2F908B104
:10821000002010BD012010BD800701D00020704754
:1082200001207047C3688B4206D811440069491E7B
:10823000814201D8012070470020704710B500200E
:1082400006F0D0F9002803D1BDE8104000F002B8D4
:1082500010BD00000A4810B50121007873DF18B185
:1082600008A2DF21FEF726F810481149BDE81040AA
:10827000401AC008032101EB00400EA106F01CBE0D
:10828000BC7E00202E2E5C2E2E5C2E2E5C6C795F28
:10829000626C655F7065726970686572616C5C6C58
:1082A000795F626C655F702E630000007087030069
:1082B000B886030053746172742041647600000034
:1082C00010B501220221002002F024F908B107288C
:1082D00010D107220221012002F01CF908B1072861
:1082E00008D100210A22084602F014F908B1072833
:1082F00000D1002010BD000030B52B48A5B03C21B6
:1083000000682490294800788DF892006846FEF7AE
:108310000EF902208DF8000001248DF8024006209D
:108320008DF803003C210FA8FEF701F91F4D24A88A
:108330001C351490ADF84C402A1D6846296800F0A1
:108340007FFF20B11AA24FF49471FDF7B3FF174AD3
:108350000FA82832A96800F073FF20B114A240F2E0
:108360002B11FDF7A7FF18211EA8FEF7E0F800204B
:108370004FF4967120918DF88C000C491F908DF868
:108380007840ADF884001C318DF88D401EAAA1F113
:10839000200072DF002804D005A24FF49C71FDF785
:1083A00089FF25B030BD0000AC670300C07E00200F
:1083B0002E2E5C2E2E5C2E2E5C6C795F626C655FBF
:1083C0007065726970686572616C5C6C795F626C13
:1083D000655F702E630000000A4810B50121007827
:1083E00073DF18B108A2A321FDF764FF10481149FB
:1083F000BDE81040401AC008032101EB00400EA167
:1084000006F05ABDBC7E00202E2E5C2E2E5C2E2E39
:108410005C6C795F626C655F7065726970686572CB
:10842000616C5C6C795F626C655F702E630000004C
:1084300070870300B886030053746172742041642E
:108440007600000070B58CB015460E4600236C46D1
:10845000C3F10F01415CE1545B1C102BF8D30D21DB
:1084600004F11000FEF763F80020C0F10F02315C48
:108470002244401C11740328F7D3684646DF0020CD
:10848000C0F10F01214491F820102954401C032809
:10849000F6D30CB070BDD0F8D80008B100207047FA
:1084A000012070470149C97801F0D6BB1072002045
:1084B00070B504460078052829D2DFE800F00328CB
:1084C000202829006188204D01EB410000EBC1000C
:1084D00005EB401004F1400205F0B8FB20B11BA2EF
:1084E0004FF4EA71FDF7E6FE608800EB400101EB16
:1084F000C00005EB4010BDE8704000F0EFBB6188A4
:10850000204800EBC100D4E90112C0E9001270BD9F
:10851000608800EB40011B48103000EB810004F143
:1085200010010EC980E80E00608800EB4001606910
:108530000028ECD1134AA369283202EB8101226999
:108540008B60C1E9002070BD10D600202E2E5C2E5D
:108550002E5C2E2E5C6C795F626C655F7365727643
:10856000696365735C6C795F626C655F616E637390
:108570005F635C6C795F626C655F616E63735F63A0
:108580002E63000090DB00202DE9F8430446002014
:1085900005261546884608270090ACE094F8DC10C4
:1085A000092970D2DFE801F005222D406670767C43
:1085B000A300421C009218F8000084F8DD0010B1FE
:1085C000012811D108E0042184F8EC1004F13C00EA
:1085D000C4E93407012087E084F8EC6004F1BC00B2
:1085E0000121C4E934011BE008207DE000EB080113
:1085F000001DCA78096862F31F61C4F80811009071
:1086000010E0421C009218F80010D4F8E82004F59D
:1086100086701154D4F8E80021B1401CC4F8E80079
:10862000022061E003205FE0421C009218F8000085
:10863000C4F80001D4F8D4108842D5D20C22D4F862
:10864000D01002EB001009582046C4F80411FFF7BF
:1086500022FF0028C8D12046D0E94023D4F8FC10DE
:1086600000F0C2FC20B1D4F8D800401EC4F8D800F5
:10867000042039E0421C009218F80000A4F8FC0025
:1086800084F8DC6037E034E06A464146204600F07A
:10869000B4FC29E06A464146204600F04BFC23E04A
:1086A000B4F8E410B4F8FC20914204D2491CA4F8B8
:1086B000E410401C0090B4F8E410B4F8FC008142CF
:1086C00011D12046D0E94023D4F8FC1000F08CFCF6
:1086D00018B1216804F1EC0088472046FFF7DBFE63
:1086E00000289FD080E7072084F8DC0003E0009595
:1086F00001E084F8DC700098A842FFF44FAFBDE8B9
:10870000F8830000FEB515460E46074672B606F021
:1087100095FC00BF06F062FA0028FBD12249234AEB
:108720000120891AC90800EB0144012F23D06FF4FE
:108730008050381822D0B0F5405F24D06FF44051FB
:10874000C84206D12B88204619A16A6806F0BFFBF3
:1087500004E0204632461DA106F0B2FB2148006825
:10876000C00700D000BE2A4603B031463846BDE8F7
:10877000F04000F079B820461BA101E0204622A17C
:1087800006F09AFBEAE7A86806F050FF0346D5E931
:108790000001CDE900100296204624A1AA6806F047
:1087A000B1FB20462BA1EBE770870300B8860300DE
:1087B000415353455254494F4E204641494C45443C
:1087C0002061742025733A2575000000554E4B4EEC
:1087D0004F574E204641554C542061742030782527
:1087E00030385800F0ED00E0534F465444455649A8
:1087F00043453A20415353455254494F4E20464138
:10880000494C454400000000534F465444455649E6
:1088100043453A20494E56414C4944204D454D4F21
:108820005259204143434553530000004552524F93
:1088300052202575205B25735D2061742025733AD5
:1088400025750D0A50432061743A20307825303860
:1088500078000000456E64206F66206572726F724A
:10886000207265706F72740008B501238DF80030B6
:108870009DF80030144B186059609A606FF4804185
:10888000401807D001280FD1DA60D86800889861B5
:10889000D86807E01A61186980685861186900682B
:1088A000986118694068D861186858689868D868ED
:1088B000186958699869D86972B600BF9DF80000B8
:1088C0000028FBD162B608BD34BA002010B582681A
:1088D000C368934203D003F013F9002010BD0520B4
:1088E00010BD29B112B1531E134203D009207047A5
:1088F0000E2070470160838000218160C1600846BE
:10890000704710B58268C3689A1A83889A4203D860
:1089100003F000F9002010BD042010BD10B509F0CF
:108920002FFF017B00290BD0417B39B1002101735E
:1089300001688268BDE81040084610470121F6E74B
:1089400010BD000038B5046800251AB110B1207BB5
:1089500020B901E0072038BD606808B1082038BDA3
:1089600000202060A060E06011B10120002101E042
:10897000002001216173A26006490246009123464E
:108980004FF47A7104A00DF0E1FB606000B90E2590
:10899000284638BD1D8902002000000000207047D5
:1089A0002DE9FC4147680E4604461FB1207B002894
:1089B0002DD102E00820BDE8FC81EFF305802260A4
:1089C00008B300250A46019501AB092138460095F8
:1089D0000DF0F6FB012831D10DF08CFA024601AB07
:1089E0000621384600950DF0EBFB012826D10198B1
:1089F00030B315494FF08050086040BFBFF34F8F30
:108A0000BFF36F8F1CE038460DF002FC08B1002068
:108A1000D1E70225002332460421384600950DF0A7
:108A2000CFFB01280AD10DF05FFA02460023012195
:108A3000384600950DF0C4FB012801D00420BAE7A8
:108A400001202073E3E7000004ED00E07CB504465C
:108A50004068002500280CD0EFF30581B9B10195DD
:108A600001AB0022082100950DF0AAFB012817D1C7
:108A700001E008207CBD0198A0B10C494FF0805066
:108A8000086040BFBFF34F8FBFF36F8F0AE0022132
:108A9000002300911A4603210DF092FB012801D01A
:108AA00004207CBD257300207CBD000004ED00E0A7
:108AB00070B50B4E01460B48B578FFF707FF04462B
:108AC0005DB10020B070711C0122C81D05F07EFB55
:108AD00018B105A2CE21FDF7EDFB204670BD0000C8
:108AE000FC72002000BC00202E2E5C2E2E5C2E2E50
:108AF0005C2E2E5C2E2E5C2E2E5C636F6D706F6E66
:108B0000656E74735C6C69627261726965735C75C1
:108B10006172745C6170705F756172745F666966C2
:108B20006F2E6300F0B5244E89B01F460D00044639
:108B300072603FD0A888296882B22048FFF7D1FE32
:108B4000002835D1A889A96882B21C481030FFF7E7
:108B5000C8FE00282CD1202219496846FDF7CEFC1A
:108B600060690690207C00B101208DF814008DF81A
:108B70001C70607C00B10E208DF81500E06802903A
:108B8000A068039020680190606800900A480D4A30
:108B90006946083005F0E6FA002809D1B07020686F
:108BA000401C05D004490122491CC81D05F00EFBDC
:108BB00009B0F0BD0720FBE7FC72002000BC0020DC
:108BC000B86603000141030010B501461048FFF7E5
:108BD00098FE040019D10F480F4A0178515C19B171
:108BE000001D07F019F802E00C3006F0FDFE60B938
:108BF000084907480839FFF769FE30B905490122DD
:108C00000839044805F0F2FA0446204610BD000079
:108C100010BC0020047300203872002030B5EFF340
:108C2000108172B60D4A9468012324B103700029A3
:108C300000D162B630BD93604FF0E023D3F880518D
:108C4000074C25401560C3F88041D3F88441546037
:108C50005A17C3F8842100220270E8E754BA0020B2
:108C6000FC06FFBD0B498A68002A11D000280FD1ED
:108C7000EFF3108072B60B684FF0E022C2F80031BB
:108C80004B68C2F8043100228A60002800D162B625
:108C90007047000054BA002002A24FF4E071FDF7C3
:108CA00009BB00002E2E5C2E2E5C2E2E5C6C795F94
:108CB000626C655F73657276696365735C6C795F1E
:108CC000626C655F616E63735F635C6C795F626C3D
:108CD000655F616E63735F632E6300002DE9F04191
:108CE000104D044664264FF47A47691C384688477D
:108CF000761EFAD1204600F0C1FD20B10AA24FF441
:108D00009B71FDF7D7FA204600F0F6FC002806D04C
:108D1000BDE8F04104A240F23911FDF7CBBABDE83D
:108D2000F0810000B06703002E2E5C2E2E5C2E2EEC
:108D30005C6C795F626C655F73657276696365739D
:108D40005C6C795F626C655F616E63735F635C6CC2
:108D5000795F626C655F616E63735F632E630000B1
:108D600038B50DF0C1F8294C0225024600950023C4
:108D7000012120690DF024FA012804D024A29E21AB
:108D80000420FDF797FA0DF0AFF802460095002396
:108D9000012160690DF014FA012804D01CA2A3215E
:108DA0000420FDF787FA0DF09FF802460095002396
:108DB0000121A0690DF004FA012804D014A2A82111
:108DC0000420FDF777FA0DF08FF802460095002396
:108DD0000121E0690DF0F4F9012804D00CA2AD21C5
:108DE0000420FDF767FA0DF07FF802460095002396
:108DF0000121206A0DF0E4F9012806D0BDE83840D1
:108E0000B22103A20420FDF755BA38BD007000203E
:108E10002E2E5C2E2E5C2E2E5C6D61696E2E6300F4
:108E20002DE9F041064608680C46411C4FF0A0476A
:108E30004FF0010506D005FA00F1C7F808152068C3
:108E400005F08AFD6068411C02D0002105F072FD2A
:108E50003168A069C1F82405607D227D3168104326
:108E6000C1F86C05D4E900123068C0F81425C0F8C8
:108E70000C15207D012815D1A068411C02D00021CD
:108E800005F058FDE068411C05D08540C7F808553D
:108E9000E06805F061FDD4E902123068C0F80825E9
:108EA000C0F81015BDE8F0812DE9F04106460868CC
:108EB0000C46411C4FF0A0474FF0010506D005FAC3
:108EC00000F1C7F80815206805F050FD6068411CE6
:108ED00002D0002105F037FD3168A069C1F82405F2
:108EE000607D217D32680843C2F86C05D4E9001228
:108EF0003068C0F80C15C0F81425207D012815D164
:108F0000A068411C02D0002105F01DFDE068411C55
:108F100005D08540C7F80855E06805F027FDD4E97D
:108F200002123068C0F80825C0F81015BDE8F081BD
:108F300003F0EEBE70B50446D0F8D000D4F800516E
:108F4000082303EB0515455BB4F8E40085420FD90F
:108F5000B4F8FC50A8420BD21068451C15600A5C9E
:108F6000B4F8E400D4F80451411CA4F8E4102A54E5
:108F7000B4F8E400B4F8FC10884209D0D4F8002119
:108F8000D4F8D01003EB0212895A491E814229D12C
:108F9000FC3494E80E00FC3C204600F025F828B193
:108FA000B4F8E420D4F8041100208854B4F8E400A4
:108FB000B4F8FC10884201D2072070BDFC3494E85C
:108FC0000E00FC3C204600F00FF818B1216804F1B7
:108FD000EC0088472046FFF75EFA08B1082070BD14
:108FE000032070BD062070BDD0F8D00000EB021049
:108FF0000078012800D00020704710B504461068A2
:10900000431C1360085CB4F8FC1051EA0020A4F87B
:10901000FC004FF00001A4F8E41010D054F8D00F79
:109020000822216B02EB0112825A32B10C2202EBB0
:109030000111405808B1062010BD072010BDFC34B6
:1090400094E80E00FC3C2046FFF7CEFF18B12168E3
:1090500004F1EC0088472046FFF71DFA08B108200C
:1090600010BD032010BD00002DE9F04781460588A2
:109070004A484FF000088AB001784246284600F07E
:1090800003FE99F80500400701D4002176E005F5BC
:109090008077B8B201AB0122072107F08DFC0400F4
:1090A0003F48404A4FF00101A0EB02004FEAD000D8
:1090B00001EB00460AD0204606F0B8FA02463046D8
:1090C0002B46394905F003FF214629E0284603F0E5
:1090D00011FB4FF6FF71044688422BD18A46029855
:1090E00003F072FA0446504510D00146284603F0BA
:1090F000E1FA2846FFF7D6F9E0B928460AF03EF82B
:109100002846FFF7CFF90028BFD013E007F020FE74
:109110000446504508D1304624A105F0CDFE042177
:1091200028460AF059F8B0E70146284603F0C2FA8B
:109130004FF00108B8B22246072107F0B5FC07003E
:109140001BD0862F1ED006F071FA024630462B4601
:109150002349009405F0C3FE394628460AF03CF83E
:109160000021484607F0D4FAB8F1000F02D020469B
:1091700003F0AAFA0AB0BDE8F0870121484607F0DB
:10918000C7FAF7E71822174903A8FDF7B7F9ADF8B2
:109190000E5003A802F0E8FAEFE70000107200207A
:1091A00008870300B886030018770300436F756CC7
:1091B00064206E6F7420616C6C6F63617465206EE7
:1091C000657720706565725F696420666F722069DB
:1091D0006E636F6D696E6720626F6E642E000000B3
:1091E00034780300046403000248816A491C8162E8
:1091F000704700000070002070B51500044609D0CB
:109200000020286034B1206820B1A079800703D005
:10921000072070BD0E2070BD084600F09DFCC0B256
:10922000142804D02179814203D8042070BD052080
:1092300070BDE288216800FB02102860002070BD2C
:109240002DE9FC47002517880646158090F82D006B
:109250001446894630B13A462146484600F042FE5F
:10926000051E09D1B0784FF00C0A18B32088C84603
:10927000001DB84202D95046BDE8FC87684679DF38
:109280000028F9D12088032108F80010208819212E
:10929000401C80B2208008F800102088401C80B25A
:1092A000208000EB0801BDF800000BF08BFD218849
:1092B00008442080F0780222C8B1218896F9033052
:1092C00001F1030C4846BC45D5D8425421884FF0E3
:1092D000010C491C89B2218000F801C02188491C79
:1092E00089B2218009F801302088401C20807068F4
:1092F000B8B1218890F9003001F1030C4846BC4513
:10930000B9D8425421880A22491C89B2218042548A
:109310002188491C89B2218009F801302088401C2D
:109320002080308950B1CDE900474B46062202210A
:1093300006F108000BF05AFE051E9DD1308A50B18F
:10934000CDE900474B460722032106F110000BF040
:109350004DFE051E90D1308B50B1CDE900474B46F4
:109360001522142106F118000BF040FE051E83D1D2
:10937000306A30B13B462246494601F004FB051EE7
:10938000DBD1706A30B13B462246494604F0DCF935
:10939000051ED2D196F82C0038B13B4622464946EC
:1093A00030460AF063F8051EC7D1307838B13B4625
:1093B00022464946304604F079FA051EBDD12846BA
:1093C0005AE7F8B506464FF000001500ADF800006A
:1093D00015D009236A46304600F025F80446BDF84A
:1093E0000000064458B154B12846FDF7ABF8A0423E
:1093F00005D1224631462846FDF7ABF808B10020DA
:10940000F8BD0120F8BD18B504460020ADF80000F5
:1094100013466A46204600F006F8002802D0BDF840
:109420000000204418BD70B588B182B100241588B1
:1094300003E0065D641C3444A4B2A54203D80619B7
:1094400076789E4201D08C42F3D38C4201D3002027
:1094500070BDA11C1180005D401E80B270BD10B5B2
:109460000288102A1BD0112A20D0262A1DD1007A6A
:109470000C46012801D0022817D1A0780521401CF4
:10948000B0FBF1F201FB1201204600F01EF80028AB
:109490000BD0A16B002908D0BDE810400847C27B63
:1094A000012A02D18088A1F8480210BD0C46002193
:1094B00084F852128088B4F848128842F5D1207995
:1094C0000028F2D10121DFE770472DE9F05F044663
:1094D00000780F4698B1A7700025C4F84A52A4F846
:1094E0004E5284F85052A079012608B1012F09D0BC
:1094F000E07980B1012F05D0022F03D00BE00820C6
:10950000BDE8F09F616B21B184F851620820884763
:1095100001E084F8515204F24B2100200A5C0AB1A8
:10952000304603E0401C0628F8D300204FF0020824
:109530004FF0030B012F06D0022F0CD0032F0FD0BA
:10954000042F15D110E0A17929B194F8241011B994
:1095500008B130460DE0E17911B108B1404608E0AC
:10956000207A08B1584604E0607A08B1042000E08F
:109570002846A070616B41B1032801D0042804D1B2
:10958000607910B194F85202A0B184F8535204F1FA
:109590003C0018210746FCF7CAFF04F12C0084F8B0
:1095A0003C60814607F00CFD58B194F82C0084F81B
:1095B000510008E084F8545284F853620720884729
:1095C000E5E784F8516094F8240050B1484607F06C
:1095D000F7FC20B194F8280084F8520001E084F8E8
:1095E000526084F85050A27804F24A2104F50D79B3
:1095F0004FF0060A052A62D2DFE802F07A030F2252
:10960000410084F83160C4F84452C4E9101584F86C
:109610003C808020A4F8480053E084F8318094F81E
:109620002420384612B10722027001E080F800B011
:10963000228A8281C4F844524160E168B96040E006
:109640006069B860208BB88194F824003D4610B161
:1096500084F83CA001E084F83C6020460BF0B4FCA8
:1096600050B185F814800421204602F078FA30BB0E
:10967000052184F8311020E084F831B01DE0E06964
:10968000B860208CB88194F824003D4610B184F86D
:109690003CA001E084F83C6020460BF095FC48B10A
:1096A00085F814800421204602F059FA38B984F86C
:1096B00031A002E0042084F83100C4F84492A0787C
:1096C00078B13A4604F15400D4F8441272DF00280D
:1096D0007FF416AF94F8301094F8540073DF00282C
:1096E000F6D1616B11B194F831008847002007E78B
:1096F00084F83150F5E7000010B50446C28E0848E2
:109700000849401AC008032101EB004006A105F0FA
:10971000D7FBE18E2089BDE81040012200F0BABFDE
:1097200018870300B8860300456E61626C652044AB
:1097300061746120536F75726365206E6F74696622
:1097400069636174696F6E732E2057726974696EF4
:109750006720746F2068616E646C653A202569200B
:109760000000000070B50E4604005ED0002E5CD0F4
:109770003068002859D02E482E49227B401AC10853
:10978000032000EB01452CA1284605F099FB0020A1
:1097900084F8DC00C4F8E000A4F8E400C4F8E800B1
:1097A00030682060706860604FF6FF70208142F67C
:1097B00002102087208504F10A0032210646FCF7BA
:1097C000B6FE0AF0E1FB227B28461FA105F078FBDC
:1097D00004F10C01204862DF002827D11E4804F163
:1097E0001401103062DF002820D11B4804F11E0153
:1097F000203062DF002819D1174804F12E013030E3
:1098000062DF002812D1227B284614A105F058FB04
:109810004FF231406081227B284614A105F050FBB5
:109820003046BDE8704000F059BA0E2070BD00000F
:1098300018870300B886030030312C757569645FA2
:10984000747970653A25640030322C757569645FEF
:10985000747970653A2564007864030030332C75A0
:109860007569645F747970653A25640030342C75CD
:109870007569645F747970653A25640010B50446B3
:10988000C28C08480849401AC008032101EB004077
:10989000064905F015FBE18C2089BDE81040012246
:1098A00000F0F8BE18870300B8860300C07A0300F2
:1098B00000B5024600889DB0112838D0382814D051
:1098C00039283BD10B4602F10A0091881A8991424E
:1098D00034D101889A8C91421ED182881DB0811D9D
:1098E00018465DF804EB06F041BF0889938898425A
:1098F00024D1108958B14B8B984208D106208DF89D
:109900000000D088ADF80C000968684688471DB093
:109910005DF804EB0AF070BB9A8E91420ED18288FA
:109920001DB0811D18465DF804EBFEF72DBE0889B9
:109930009288904202D14FF6FF7008811DB000BDA1
:109940002DE9F04307463D4A3D480D46101A01F106
:109950000E080978C00803229DB002EB00440029DC
:1099600064D1A888A0F5744131395FD1A879397BD9
:1099700088425BD1204633A105F09EFA002646E0DE
:1099800006EBC60938F8190000F6F350B0F50050A0
:109990002AD000F62430B0F5404012D000F6F65040
:1099A000B0F5005F32D1204627A105F085FA08EB1B
:1099B000490001681291416813910089ADF8500087
:1099C00024E0204629A105F077FA08EB4900016858
:1099D000CDF862104168CDF866100189ADF86A10C3
:1099E0004089ADF86C0011E0204629A105F064FA29
:1099F00008EB49000168CDF852104168CDF85610C7
:109A00000189ADF85A104089ADF85C00761C287ABF
:109A1000B042B5D800208DF800006888ADF802008B
:109A20003968684688471DB0BDE8F083204623A109
:109A300005F042FA01208DF80000F1E718870300D5
:109A4000B886030031313100436F6E74726F6C2041
:109A5000506F696E742043686172616374657269E6
:109A60007374696320666F756E642E00446174615F
:109A700020536F757263652043686172616374651A
:109A800072697374696320666F756E642E000000DE
:109A90004E6F74696669636174696F6E20706F6977
:109AA0006E7420436861726163746572697374696E
:109AB0006320666F756E642E000000003232320043
:109AC0000179032902D280790C2801D3072070473D
:109AD000002070472DE9F041040012D001461C22FD
:109AE0001A48FCF70BFD1948194D0560206858B15C
:109AF0007ADF002806D12068016829604068686024
:109B000006E00E20BDE8F08111487BDF0028F9D186
:109B10000E4D0024283D4FF6FF76A5F1400700BF0B
:109B200004EB840005EB800007EB441120F8046B84
:109B3000084A01600021FEF705FF08B10320E1E7B4
:109B4000641C022CECD30020DCE7000098B100205C
:109B500058710020614F030010B5044600F0B4F8BE
:109B600008B1204610BD142010BD000010B50446F9
:109B700000F0AAF8002805D02146BDE810400248B0
:109B800003F091BF10BD0000C4B1002070B51546B0
:109B90000E4604460BF024FA002809D0054800EBD5
:109BA000840080692A463146BDE8704002F004B85E
:109BB00070BD0000B4B1002010B5044600F084F878
:109BC000002805D02146BDE81040024803F06BBFD5
:109BD00010BD0000C8B10020064808B5C168C943DF
:109BE00000918168684603F082FF0098FEF7D0FA82
:109BF00008BD0000B4B1002070B50546002400F097
:109C000063F838B12946044803F04DFF08B1022437
:109C100000E00124204670BDC0B1002070B50546AB
:109C2000002400F051F838B12946044803F03BFF06
:109C300008B1022400E00124204670BDBCB1002020
:109C400010B51821034803F009FF182800D0C0B24E
:109C500010BD0000B4B1002070B505460C460846A2
:109C60000BF0BEF960B1284600F02EF840B105486F
:109C7000294600EB8400BDE87040183003F013BFA4
:109C8000002070BDB4B1002070B5054614460E46E4
:109C900008460BF0A5F9002812D0284600F014F869
:109CA00000280DD00748294600EB860018301CB16B
:109CB000BDE8704003F002BFBDE8704003F0B3BEE2
:109CC00070BD0000B4B10020142801D300207047FB
:109CD0000146014803F0E7BEB8B1002028B10549AC
:109CE0000A7822B1496808F0C7BF0E2070470820E3
:109CF000704700006071002070B506460D480E499F
:109D0000401AC108032000EB014004460BA105F0F6
:109D1000D3F866B10F4800250122C5600270C0E982
:109D2000016520460CA105F0CBF8284670BD0E2039
:109D300070BD0000B8860300B8860300626C655FE2
:109D400064625F646973636F766572795F696E6977
:109D50007400000060710020626C655F64625F6483
:109D60006973636F766572795F696E69742C6D5F74
:109D7000696E697469616C697A65643A256400008A
:109D800070B504002DD000292BD020480078002881
:109D900027D020880D46112815D0302804D032282D
:109DA00007D033281ED109E0211D284606F084FA89
:109DB00018E0211D284605F0DFFF13E0211D28468D
:109DC00006F03EF90EE0A088B5F8CA12884209D123
:109DD000002085F8C70285F8C8024FF6FF70A5F885
:109DE000CA0270BD95F8C8020028FAD02088302831
:109DF000F7D34F28F5D8A088B5F8CA128842F0D119
:109E00002846BDE8704000F0EDBF00006071002002
:109E10002DE9F0410F46064615481649164A401AE4
:109E2000C108032000EB014414A1204605F048F8C6
:109E3000114D20461AA12A7805F042F876B128780B
:109E400070B1204620A1EA6805F03AF8E86838B118
:109E500096F8C70230B11120BDE8F0810E20FBE773
:109E60000820F9E739463046BDE8F04100F0BABFB6
:109E7000B8860300B886030060710020303220618C
:109E8000646472206F66206D5F696E697469616CCD
:109E9000697A6564203D20307825303878000000EC
:109EA000626C655F64625F646973636F7665727923
:109EB0005F73746172742C6D5F696E697469616C33
:109EC000697A65643A2564006D5F6E756D5F6F66D3
:109ED0005F68616E646C6572735F7265673A256472
:109EE000000000007CB5054608880C460930904209
:109EF00001D90C207CBD68466DDF0028FAD121888D
:109F00000820685420881B21401C80B220802954DE
:109F10002088401C80B220802844DDF801100160B8
:109F2000BDF8051081802088801D80B220809DF8BA
:109F30000010490800D0012129542088401C2080AD
:109F400000207CBD10B51A4C0188606810290ED025
:109F500011292BD1401E606028D1FEF7B1F90028ED
:109F600024D02168002921D0BDE810400847D0B98D
:109F700000210122084600F0CDFA08B107280FD1D0
:109F800007220221012000F0C5FA08B1072807D1F5
:109F900004220221002000F0BDFA20B1072802D0DF
:109FA000216801B188476068401C606010BD0000F6
:109FB000F47000202DE9F04701883B4E40F2F31980
:109FC0004FF6FF7510291BD011293ED0122954D00D
:109FD000502946D1C188F289841D914241D16189BD
:109FE00002293ED18688304602F032FC050038D086
:109FF00004F10C0000F026F9A8B3294630464EE0E3
:10A00000C17B8788044601292BD1A846284602F047
:10A010001FFC050017D02F800020287223484346DC
:10A020004A460168C5F80A104068C5F80E0004F1F8
:10A03000100105F10A0002F0D3FC6872F0890028D3
:10A040000FD129462AE0042013E0808802F000FCAA
:10A05000040006D06068FEF7F9FC08B109F0A0F82A
:10A060002580BDE8F087FFE76868FEF7EFFC002871
:10A07000F7D0BDE8F04709F093B887880646384620
:10A0800002F0E6FB0400ECD02B464A4606F108013C
:10A0900004F10A0002F0A4FC607221463846BDE8D3
:10A0A000F04700F0CDBC000098B1002058710020AE
:10A0B0002DE9F04F0746858802883E48012197B078
:10A0C0008346102A09D0112A4BD01A2A6ED1387A29
:10A0D000B1EB101F47D2012246E0364C083CA06885
:10A0E000C0430B9061680BA803F001FD0B990CA80D
:10A0F00000F02AFC2C220CA96846FCF7FFF9002688
:10A10000E946A04610E000BF09EB46005FF00004FE
:10A11000B0F804A008EB84005146001D03F083FC56
:10A12000641C1D2CF6D3761C0098B042ECD8142D7C
:10A1300007D317B0E321BDE8F04F1FA20420FCF7BE
:10A14000B9B82946584603F0B9FC294608F104007D
:10A1500003F0B4FCF87B012828D016482946001DDE
:10A1600015E029461AE000220221B1EB101F01D2AE
:10A17000012600E000260F49083901F11000041DF6
:10A18000294682B103F09AFC36B12946204617B021
:10A19000BDE8F04F03F092BC2946204617B0BDE859
:10A1A000F04F03F040BC03F03EFCF5E717B0BDE80C
:10A1B000F08F0000BCB100202E2E5C2E2E5C2E2EC7
:10A1C0005C2E2E5C2E2E5C2E2E5C636F6D706F6E7F
:10A1D000656E74735C626C655C636F6D6D6F6E5CF5
:10A1E000626C655F636F6E6E5F73746174652E631E
:10A1F0000000000010B504460748007800280AD087
:10A20000204602F053F9204609F08CF92046BDE8BB
:10A21000104001F00FBE10BDA071002010B5044623
:10A220008088FFF7E9FC012802D02088262805D184
:10A23000034801682046BDE81040084710BD0000F3
:10A2400080730020007800F00100704708B505F029
:10A25000CBF818B10C4A9E21FCF72CF80020009096
:10A260006946012004F0E6FF18B1074AA521FCF772
:10A2700021F8684605F030F8002803D0024AA921E9
:10A28000FCF718F808BD0000A8D2020010B502467D
:10A2900086B008002ED0002A2CD041884FF6FF73DC
:10A2A000994202D09488A14224D11488112C14D050
:10A2B000392C1FD1818800291CD053898B4219D198
:10A2C000C168002916D001218DF8001002F110019B
:10A2D0000291D189ADF80C1009E092888A4209D127
:10A2E000C168002906D002218DF800104380C268A1
:10A2F0006946904706B010BD30B585B00C4605469E
:10A3000014216846FCF713F9207804F10E010028A7
:10A3100030D1A08801282DD1A0792A78904229D166
:10A32000002217E002EBC20031F81030022B02D0FD
:10A33000032B0ED105E001EB40000089ADF81200BF
:10A3400007E001EB40000389ADF80E304089ADF81D
:10A350001000521C207A9042E4D8E868002809D006
:10A360006088ADF8020000208DF80000EA686946B8
:10A370002846904705B030BD10B504460078002847
:10A3800011D1094809492289401AC008032101EB6B
:10A39000004007A104F094FDA28A20892169BDE84C
:10A3A000104003F0C5B810BD70870300B8860300E5
:10A3B00052656D6F746520307825782053656E6422
:10A3C00020446174613A00001FB558B1A3F57F4481
:10A3D000FF3C05D01488F42C06D9072004B010BD2A
:10A3E0000820FBE70E20F9E7002400940194029472
:10A3F00003948088ADF80000CDE9022101208DF89A
:10A40000020069461846AEDFE8E7000070B5334D3C
:10A4100004008EB02DCD08AE86E82D005BD0E9B3E8
:10A420000868A061214608A862DF002851D1207881
:10A4300001258DF83200ADF83050A21C0CA9284639
:10A44000A8DF002845D120216846FCF770F80220DB
:10A45000ADF8000020788DF802008DF80C509DF8C2
:10A460000D00F426ADF8046040F00C008DF811509A
:10A47000ADF806508DF80D008DF81250608804F18B
:10A480000C02694600F036F9002822D120216846E6
:10A49000FCF74DF80320ADF8000000E01BE0207849
:10A4A0008DF802008DF80C509DF80D008DF81150BC
:10A4B000ADF8046040F010008DF81250ADF8065071
:10A4C0008DF80D008DF813506088221D694600F04C
:10A4D00011F90EB070BD0E20FBE70000B867030055
:10A4E000002915D0002813D00A460188102907D06A
:10A4F000502909D057290BD10146104605F0ACBEB2
:10A500000146104605F0E0BC0146104605F046BF86
:10A510007047000070B50023042810D20D4D00EBE9
:10A520004004012A02D101290CD00022094E00EB7F
:10A530004000304461B1012906D0022906D007232A
:10A54000184670BD0E30C2B22A55F9E74270F7E7DF
:10A550008270F5E7248000202DE9F8430546861C2B
:10A5600000208DF8000090460F464FF00109684624
:10A57000FEF754FB1B4C20683860D4E90001401AF8
:10A58000A168081A41F21C0167180EE00121384643
:10A5900003F0A7FA02F09EFC0146384603F0A1FA48
:10A5A000D4E90001401AA168081A401C8642EDD87F
:10A5B000B8F1000F03D0052065F3891002E00620F2
:10A5C00065F39F50A2682168114004EB8101C860C7
:10A5D0002068304420609DF80000FEF743FB4846A9
:10A5E000BDE8F88338BF002070B50D4604460A293F
:10A5F00002D10D21FFF7F8FFA0682268411CA1607D
:10A600001554D4E90101814204D32046BDE87040CD
:10A6100003F009BE70BD0000034803C8814201D1A8
:10A62000012070470020704738BF00201CB5044649
:10A6300002F060F800236A46092106F0FFFA0528B7
:10A6400005D10348012241792046FFF71DFB1CBDBF
:10A65000707100201CB504460020009042F6A62030
:10A66000ADF8000001208DF80200084801AA6946F3
:10A67000006801902046A0DF002805D1044801228F
:10A6800081792046FFF700FB1CBD0000AC6203008F
:10A690007071002070B58AB00D460646144624211C
:10A6A0006846FBF744FF022001A9ADF81E0008919F
:10A6B0000021ADF81C10ADF81A5001218DF81810CA
:10A6C000ADF800608DF80440210A8DF802008DF885
:10A6D0000510684609F060FC09F08EFC0AB0002005
:10A6E00070BD00000249084490F930007047000036
:10A6F0005CB900202DE9F0438146887891B09046FE
:10A700000C4600B901208DF83E002088ADF83C00D1
:10A7100000250095607C694608F0ECFE6E46A07C42
:10A72000711C08F0E7FEE07B00289DF8020002D0D3
:10A7300040F0080001E020F008008DF80200217CC4
:10A7400011B140F0100001E020F010008DF802007F
:10A75000217B11B140F0010001E020F001008DF8F3
:10A760000200217D09B1022100E0012161F34200D4
:10A770008DF802001C2102A8FBF7D9FE607BC10600
:10A7800001D4800617D50E950EAFE07C791C08F039
:10A79000B1FE9DF83800079720F00F00401C20F014
:10A7A000F00010308DF838009DF83A0020F00600D7
:10A7B000801C8DF83A00607B8DF80800A07B8DF836
:10A7C0000900142109A8FBF7B2FE0FA8CDE909067C
:10A7D000A088ADF83000A06820B1E088ADF82C006A
:10A7E000A0680D90A06998B301950088ADF810009D
:10A7F000A06901AD01A94088ADF81200A0694068C8
:10A8000006950390A069007B08F074FEA069691C9E
:10A81000407B08F06FFEA069807A00289DF8060052
:10A8200002D040F0080001E020F008008DF806009A
:10A83000A169C97A11B140F0100001E020F01000C8
:10A840008DF80600A169097A19B140F0010002E013
:10A850000DE020F001008DF80600A169897B09B1A7
:10A86000022100E0012161F342008DF80600E06959
:10A8700000B10590434609AA02A94846AADF11B0D3
:10A88000BDE8F08308B5024690F8C6020B4600EB1F
:10A890008001C1EB801002EB400092F8C52242B16A
:10A8A000521ED2B202EBC20100EB4102518A491C96
:10A8B00000E0C188ADF800100089ADF802006946DB
:10A8C00018469DDF08BD70B504464FF6FF750A4671
:10A8D0002846AC4209D14FF480742146104603F05B
:10A8E000BDF880B2A0420BD070BDFF2CFCD8214631
:10A8F000104603F0A3F890F0010F01D0204670BD80
:10A90000284670BD70B5084C050009D01034216888
:10A91000002907D008682060496828468847F6E77C
:10A920000834F4E770BD000048B90020054A012151
:10A9300020B1012805D19170FFF7E4BF51700020CC
:10A94000FAE7704748B9002073B58CB0064600207E
:10A9500000900D9880B100246D4621460DA803F0AB
:10A96000A2F830B1009805EB400084800098401CAC
:10A970000090641C142CF0D32C2269463046FBF75F
:10A98000BDFD0EB070BD2DE9F04117880646B81D1B
:10A9900014460D46984202D90C20BDE8F08131885A
:10A9A000072206290AD34FF4486C4FF6FF7361451E
:10A9B00001D9994202D17088062801D21046ECE7ED
:10A9C000604501D99842F9D1994203D0984201D00B
:10A9D0008142F3D80520E85520881221401C80B21E
:10A9E000208029542088401C80B220804119308862
:10A9F0000AF0E8F92188084480B220804119708863
:10AA00000AF0E0F92188084420800020C5E7000012
:10AA100001A28221FBF74EBC2E2E5C2E2E5C2E2E28
:10AA20005C6C795F626C655F706572697068657295
:10AA3000616C5C6C795F626C655F702E6300000016
:10AA400038B54A7A0F4B62B100220A72596900295F
:10AA500006D001228DF80020ADF802006846884734
:10AA600038BD0A7A62B19B684C6802461946204696
:10AA7000FDF796FF0028F3D0BDE8384008F090BB02
:10AA80005B68F1E798B10020F0B587B016460F4635
:10AA900004461D4618220B496846FBF72FFD0A485D
:10AAA0008DF80870ADF80240ADF80A608DF80C50D2
:10AAB000017800222046FFF7E7F8684600F054FED0
:10AAC00007B0F0BD1C64030010720020FDF7BCBA93
:10AAD00010B5044612B11088002211E04FF6FF7045
:10AAE000FAE7030A43EA0023A05C5840C0F30313CB
:10AAF000584080EA003080B2C3B280EA4310521C52
:10AB00008A42EED310BD000070B588B00646002022
:10AB100005900690ADF81410ADF816100190029053
:10AB200001AA05A9304690DF050021D004F07EFD82
:10AB30000346114811493246401AC108012000EB72
:10AB4000014004460E4904F0C2F9BDF8042012B9D0
:10AB5000BDF8060028B1BDF80630204609A104F072
:10AB6000B6F9BDF808201AB12046164904F0A8F934
:10AB700008B0284670BD0000D8860300B8860300E0
:10AB8000D46F0300546865207265717565737465D0
:10AB9000642054582F5258207061636B6574206C88
:10ABA000656E67746820697320746F6F206C6F6EB8
:10ABB000672062792025752F2575206F6374657471
:10ABC000732E00002070030010B5044602F0B4FAA2
:10ABD0002046BDE8104002F079BB000070B5044685
:10ABE0000948012102F098FFBFF35F8F002500287C
:10ABF00008D1204602F0E8F8002803D1BFF35F8FA8
:10AC00000148056070BD00007C7100207FB50C46D6
:10AC100010B1012004B070BD2079002638B141F692
:10AC20001D5501281BD0022826D00F20F2E7022054
:10AC3000207102960396E0680190694601A807F02A
:10AC400065FF50B102988188E18000882081BDF8BD
:10AC50000010029807F0D8FFDCE70A20DAE70A4B79
:10AC60006A460021A01D07F00DFF38B106491839CA
:10AC70008E61CE610A28CDD12846CBE70248818873
:10AC8000019807F0C1FFF5E7747200202DE9F84341
:10AC9000054690F8C6020F4600EB8001C1EB80101C
:10ACA00005EB400695F8C542914604EBC40006EB5F
:10ACB00040013279601C0A31904226D16B46002255
:10ACC000284601F0AFFE18B310E0401EA04201D1AB
:10ACD000002004E004EBC40006EB40001C3080467A
:10ACE00002466B46284601F09DFE30B100203870C8
:10ACF000694648469EDFBDE8F88395F8C50241469F
:10AD0000401C641C85F8C502E4B23079A042DCD84E
:10AD1000012038700020EEE72DE9F047894690F8D1
:10AD2000C612904601EB8102C2EB811100EB410794
:10AD3000384607F085FF06002FD0194CA06806287A
:10AD40002BD2184D762205EBC0103946A0F80280B0
:10AD5000001DFBF7D3FB0027B9F1000F04D0A0685A
:10AD600005EBC010077004E0A168022005EBC111DB
:10AD70000870A06805EBC011401CCE67A060E168B8
:10AD800088420AD1002604E005EBC610C16F88474F
:10AD9000761CE0688642F7D3A760BDE8F087000024
:10ADA0006071002044B2002070B50E4690F8C612C3
:10ADB000154601EB8102C2EB8111A0B000EB41000E
:10ADC00007F03EFF040009D07C2205496846FBF7E6
:10ADD00095FBADF8025068460196A04720B070BDC3
:10ADE0003062030070B50E4604464FF43371FBF732
:10ADF0009EFB11480025A4F8CA62856084F8C952F8
:10AE00000E4884F8C65284F8C55200682060224675
:10AE1000012130469BDF0121112806D0002809D1ED
:10AE200084F8C71284F8C85203E084F8C71284F883
:10AE3000C812002070BD0000607100202CB20020FC
:10AE40002DE9FF4F02EB42002DED068B81B09B46B2
:10AE50004000FBF7ADFC0D4645EC100B9FED2C8B35
:10AE6000044653EC182B51EC100BFBF72FFC9FED15
:10AE70002A9B53EC192BFBF726FC41EC100BFCF73B
:10AE8000DFFB9FED27AB51EC100B53EC1A2BFBF7BC
:10AE90001DFCFBF79AFC45EC104B824653EC182B3B
:10AEA00051EC100BFBF712FC53EC192BFBF70BFCCE
:10AEB00041EC100BFCF728FC53EC1A2B51EC100B57
:10AEC000FBF704FCFBF781FCDFF85C908046002573
:10AED00007980024471907EB0A0600BF0898CDF829
:10AEE00000B02044A0EB08018BB281B2D9F818C0A1
:10AEF000B2B2B8B2E047641CE4B2052CEED36D1CCC
:10AF0000EDB2052DE4D301B0BDEC068BBDE8FF8F9B
:10AF10001839359D46DF913F4AD8124DFB21F93F44
:10AF20000000000000805B4030E300202DE9FF4F6F
:10AF3000A1B0382112A8FBF7FAFA4822194968464D
:10AF4000FBF7DCFA03204FF01808002520900024BE
:10AF500008FB05F922980DEB040100EBC50B2198C5
:10AF600019F80170002600EB040AF80708D00E4A11
:10AF70000BEB060081B253691FFA8AF02E9A9847AC
:10AF8000761C7F08B6B2082EEFD3641CA4B24445E9
:10AF9000E0D36D1C2098ADB28542D8D325B0BDE872
:10AFA000F08F00008869030030E3002038B56BB1F2
:10AFB000012B0AD11D24074D2A2300BF55F822205A
:10AFC0000092054A156A2246A84738BD3E245B23F5
:10AFD000024DF3E708DF002030E30020E0DE002030
:10AFE00038B5074A52F82110002907D00091054CC6
:10AFF000C38882884188246A0088A04738BD000041
:10B0000010DE002030E300202DE9FC5F80460024A4
:10B010001A48DDF830909A468B460094019482429B
:10B0200029D800200A216E46B2FBF1F301FB13235D
:10B03000B2FBF1F2641C335464B21AB1401C40B24A
:10B040000828F1DB00273D4613E0601B401E40B29C
:10B050005346325C08EB070080B25946FFF7A6FF63
:10B06000504601F0ABF8C11901EB09006D1CC7B2E5
:10B070006DB2A542E9DBBDE8FC9F00007F96980019
:10B0800038B500914188C288058880880A4493B207
:10B09000284482B2024804692846A04738BD00000F
:10B0A00030E3002010B50021024802F035FD80F3A6
:10B0B000100010BD54CF002000F02BB870B51E203A
:10B0C00003F07FFC4FF0A046052000F044F8192063
:10B0D00003F08CFC0025192003F073FC6006D6F801
:10B0E0001015000EC90E11F0010F02D040F001043E
:10B0F00001E000F0FE04192003F078FC6D1CEDB2B5
:10B10000082DE8D3E007DFD1BDE870401E2003F032
:10B110006DBC70B5B0F5001F1CD3C0F30745C0F37C
:10B120000724C6B200F030F81E2003F04AFC2020AD
:10B1300000F011F8284600F00EF8204600F00BF859
:10B14000304600F008F81E2003F050FCBDE87040C7
:10B15000FFF7B4BF70BD70B505460024192003F099
:10B1600030FC05FA04F000064FF01A0002D403F098
:10B1700028FC01E003F03AFC192003F037FC641CC2
:10B18000E4B2082CEAD370BD10B51E2003F019FC00
:10B190000620FFF7E0FFBDE810401E2003F026BCAC
:10B1A0002DE9FE4F151ACDE900104FF000085E1A88
:10B1B00047464FF0FF30002D02DD4FF0010102E065
:10B1C00003D14FF000018B4602E08346C5F1000534
:10B1D000002E02DD4FF0010002E003D14FF000002D
:10B1E000824602E08246C5F10006B54201DD2C46EA
:10B1F00000E03446601C4FF00009029019E000980E
:10B200000C9A81B2019880B200F041F8A84437440A
:10B21000A04504DD0198A8EB040858440190A7421A
:10B2200003DD00983F1B5044009009F101001FFA14
:10B2300080F902998945E2DBBDE8FE8F2DE9F047F0
:10B240001F469046CA19521E93B200EB0802521EC6
:10B25000002492B2DDF82090FBF7C4FD002612E036
:10B2600000250CE019F81400FBF7D2FE09EB4400AE
:10B270004078FBF7CDFE641C6D1CA4B2ADB2BD429C
:10B28000F0D3761CB6B24645EAD3BDE8F08710B5D8
:10B2900014460B460246FBF7A5FD2046BDE81040CC
:10B2A000FBF7ACBE2DE9F8431D46089C16468846C0
:10B2B00007460B460094FFF773FF3A462B4641467C
:10B2C00010460094FFF76CFF2B463246194638466D
:10B2D0000094FFF765FF32462B4641461046009426
:10B2E000FFF75EFFBDE8F8832DE9F0470C46804686
:10B2F000124813491F46401AC008032101EB0040C1
:10B30000164610A1DDF8209003F0D6FD781E83B21A
:10B31000701E82B221464046FBF764FD0AE04546B6
:10B3200004E04846FBF76AFE6D1CADB2B542F8D3A7
:10B33000641CA4B2BC42F2D3BDE8F087708703005E
:10B34000B88603006472765F6C63645F66696C6CD8
:10B350000D0A000030B50021F9B004460A4601A8E4
:10B360005FF0F80300F8113000EB4105491CC9B249
:10B370006A70F029F6D31E2003F002FB4FF0A045BF
:10B38000A800C5F808051C2005F5A16503F0F8FA2A
:10B3900068062860182003F0F3FA4FF080702860E8
:10B3A000032003F0EDFA0820686010481049401AA5
:10B3B000C008032101EB00400EA103F07DFDFBF767
:10B3C0004FFD1F20F023002100901A460846FFF78A
:10B3D0008BFF0C4820600C4860600C48A0600C4853
:10B3E000E0600C48206179B030BD00007087030038
:10B3F000B88603006472765F6C63645F696E69741B
:10B400000D0A0000E9B202008FB20200A1B10200F1
:10B41000A5B202003DB2020010B504461648174915
:10B420008AB0401AC008032101EB004014A103F0C8
:10B4300043FD182216496846FBF760F81548069048
:10B4400015494FF48070CDE9070109900723134A8D
:10B4500006A96846FDF766FB18B111A29921FAF713
:10B4600029FF1748606017481749A060002008703E
:10B47000488088800AB010BD70870300B88603003A
:10B480006472765F756172745F696E69740D0A002B
:10B49000D069030030DF002030E000207D40030051
:10B4A0002E2E5C2E2E5C2E2E5C686172647761728B
:10B4B000655C6472765F756172742E6300000000D3
:10B4C000CFB40200CDB40200E87F0020704770B511
:10B4D0000D460646002404E0305DFDF775FB641C54
:10B4E000A4B2AC42F8D370BD09490120096809B182
:10B4F000002070470749CA69002AF9D1044A283256
:10B5000012688968491E8A42F3D102207047000000
:10B51000CCB000200871002013460A460021FFF736
:10B52000B3BA00002DE9F843104D0F4680461E4681
:10B5300091466946286802F04AFA040014D01C219A
:10B54000FAF7F5FF01202071C4F81490380BC4F805
:10B550000080C4E902606946286802F059FA07F0E1
:10B56000FDF90020BDE8F8830420FBE74C650300EB
:10B5700010B503780022072B06D2DFE803F005049C
:10B580000610202930000A7010BD01230B700389BA
:10B590008B818388CB81C06888600A7410BD0222C9
:10B5A0000A7002898A818288CA81C2688A60807D25
:10B5B000062802D00020087410BD0120FBE70322FA
:10B5C0000A70C2888A810289CA81C068886010BDF9
:10B5D00004230B70C0888881CA818A6010BD052051
:10B5E000087010BD70B5064D0646002455F82410AD
:10B5F00009B130468847641C042CF7D370BD0000A5
:10B600007CBA002030B50446006887B00D468068DB
:10B6100000281FD018216846FAF789FF0195A06815
:10B620000590207910B1012810D107E001208DF894
:10B63000000020690290E068039005E002208DF888
:10B640000000E0680003029060690490206881684F
:10B650006846884707B030BD2DE9F04186B01646F0
:10B660000C00804629D0112C27D0082C25D0182179
:10B670006846FAF75CFFADF80280404601F03AF800
:10B68000ADF804001B481C490027401AC5080D2CC2
:10B6900016D0204603F0CAFF0246012000EB054009
:10B6A0004346164903F013FC07208DF8000002946E
:10B6B0008DF80C70684600F065F806B0BDE8F081C2
:10B6C000022000EB054042460D4903F0F9FB032040
:10B6D0008DF8000026B13078C00701D0012000E0CD
:10B6E00002208DF8080041F201108DF80C70ADF8C1
:10B6F0000A00DFE710870300B8860300547A0300CE
:10B700004479030010B50446408800F0F3FFA080A0
:10B71000024801682046BDE81040084778710020C3
:10B7200010B50446808800F02FFF60800248016851
:10B730002046BDE810400847887100202DE9F041FF
:10B7400007460024064E074D05E000BF56F82410BA
:10B7500038468847641CE8788442F7DBBDE8F0810E
:10B76000DCB70020A071002010B50446408800F02E
:10B77000C1FFA080024801682046BDE8104008478C
:10B78000D06303000149096808470000746403009E
:10B7900082B0CDE9000121F0004001909DED000B49
:10B7A00002B051EC100B704770B586B004461821FA
:10B7B0006846FAF7BCFEA0890125A0F54040ADF827
:10B7C00004002078324E062835D2DFE800F034033A
:10B7D00003032E4EA08900F0A6F930B9E08943F6A4
:10B7E000FE71A0F54040884225D8A07B8DF8080066
:10B7F0002078032811D000208DF80900A06803905C
:10B80000606860B109208DF80000606804908DF8D0
:10B810001450684605F064F90DE00120ECE70820BB
:10B820008DF800008DF81050F3E7A08900F07BF947
:10B8300008B1E08930B17078002801D005F09AFA9B
:10B8400006B070BD606840B10B208DF800006068E4
:10B8500002908DF80C507570DBE70A208DF800001F
:10B86000BDF8040005F024FBF5E7606858B114202A
:10B870008DF80000606802908DF80C504FF6FF7054
:10B88000ADF80400C5E713208DF80000F6E70000CE
:10B890008C71002038B504460E480078A8B1A4F594
:10B8A0007F40FF380FD0684606F08AFF78B1052147
:10B8B000017001210171C480684606F08FFF07F016
:10B8C0003FF8002038BD042038BD022038BD0820D4
:10B8D00038BD00007C7200200C4808B5007888B1A3
:10B8E000684606F06DFF78B106210170684606F0E3
:10B8F00075FF0748017809B10121017307F020F8AD
:10B90000002008BD022008BD082008BD7C72002070
:10B9100040BB0020F0B587B014216846FAF707FE57
:10B920002F4C207818B16846FFF75CFE55E0201DCB
:10B9300002F0D4F898BB40F6F8700168481C02D1B8
:10B940004FF0102041694FF08050026940694B1C54
:10B9500001D100FB02F1234800220161A1F5405111
:10B96000C160214902F0F4FD002822D120481C23A7
:10B970008C221E49006802F017F804F0FBFD050058
:10B9800016D0022D14D000270126062D13D005A8AD
:10B9900006F016FF90B106700C2D19D200E01CE0E5
:10B9A000DFE805F0160E160E1615161516101210F5
:10B9B0000B2007B0F0BD26706760B4E70820F8E7F9
:10B9C000077105E0032100E00221017100E006712A
:10B9D00005A806F003FF06F0B3FF0020E9E700002A
:10B9E0007C720020108000205C6503008CBA00206F
:10B9F000C464030038B5040014D0694607F086F823
:10BA0000A0B1BDF8000000EB8001094800EB810007
:10BA1000C16849B1A17A39B1C168491EC16000202D
:10BA2000A07238BD052038BD062038BD0A2038BDBB
:10BA300018BB00201FB501A9684607F023F804B021
:10BA400010BD07B513460A466946002007F01AF8EC
:10BA50000EBD07B513460A460021684607F012F8E6
:10BA60000EBD20B119B100680860002070470520A4
:10BA700070470000F8B50D46040018D0BDB1694606
:10BA800007F044F8A8B1BDF800000B4900EB8000B6
:10BA900001EB800001210C30666802F022F82E6074
:10BAA00060680C3068600120A0720020F8BD05209D
:10BAB000F8BD0A20F8BD000018BB002018B1032310
:10BAC000002209F0D7BE052070470223002209F0AA
:10BAD000D1BE0000084910B50A69042A0AD0074AF5
