:020000040002F8
:1060000030CB0020B1640200B9640200D16202000A
:10601000BD640200BF640200C16402000000000011
:1060200000000000000000000000000015620200F7
:10603000C56402000000000059620200C964020049
:10604000116F0200CB64020065720200E56F02006E
:10605000CB640200CB640200716A0200CB640200D0
:10606000CB640200CB640200CB640200CB6402006C
:10607000CB640200CB640200CB640200CB6402005C
:10608000CB640200656F0200CB640200CB640200A7
:10609000CB640200CB6402001D700200CB640200DE
:1060A000CB640200CB640200CB640200CB6402002C
:1060B000CB640200CB64020000000000000000007E
:1060C000CB640200CB640200CB640200CB6402000C
:1060D000CB640200CB640200CB640200000000002D
:1060E00000000000000000000000000000000000B0
:1060F00000000000000000000000000000000000A0
:10610000000000000000000000000000000000008F
:10611000000000000000000000000000000000007F
:10612000000000000000000000000000000000006F
:10613000000000000000000000000000000000005F
:10614000000000000000000000000000000000004F
:10615000000000000000000000000000000000003F
:10616000000000000000000000000000000000002F
:10617000000000000000000000000000000000001F
:10618000000000000000000000000000000000000F
:1061900000000000000000000000000000000000FF
:1061A00000000000000000000000000000000000EF
:1061B00000000000000000000000000000000000DF
:1061C00000000000000000000000000000000000CF
:1061D00000000000000000000000000000000000BF
:1061E00000000000000000000000000000000000AF
:1061F000000000000000000000000000000000009F
:10620000DFF80CD000F07AFB0048004795C302008D
:1062100030CB0020264B19680868B0E8F04F80F3B7
:106220000988BFF36F8F4FF0000080F3118870472B
:10623000000000000748006880F3088862B661B675
:10624000BFF34F8FBFF36F8F4FF4F07080F311885F
:1062500000DF000000600200EFF30980BFF36F8FE2
:10626000134B1A681EF0100F08BF20ED108A20E9AA
:10627000F04F106008B44FF0400080F31188BFF376
:106280004F8FBFF36F8F0EF0FFF84FF0000080F3D9
:10629000118808BC19680868B0E8F04F1EF0100FAC
:1062A00008BFB0EC108A80F30988BFF36F8F704786
:1062B0004078002000B583B002900091019244F232
:1062C000010071466A4601F059FF03B000BD0000AD
:1062D000094B1EF0040F1CBFEFF309801847EFF3C2
:1062E00008800649064A884201D8904202D88D4665
:1062F0004FF00000184700008D6C020030CB0020EA
:1063000030C3002030B450E8012F93B2C489234435
:106310008489A34228BF1B1B0489A34202BFBFF389
:106320002F8F002007E0C3EA020340E80134002C6D
:10633000E9D14FF001000A6030BC704750E8012FEE
:10634000C2EA024240E801210029F7D1704730B487
:1063500050E8022F1FFAA2F3C488A34202BFBFF382
:106360002F8F00200DE0C48923448489A34228BFD5
:106370001B1BC2EA034340E80234002CE8D14FF073
:1063800001000A6030BC704750E8022FC2EA224286
:1063900040E802210029F7D17047034653E8022F55
:1063A000D988B2EB324F4FF0000017BF92B241EAEA
:1063B000014142EA014104E05A68B2EB324F08BFA2
:1063C000012043E80212002AE8D1704730B40446A5
:1063D00054E8000F0D4644E80053002BF8D1156037
:1063E00030BC704730B4044654E8000F40EA010561
:1063F00044E80053002BF7D1156030BC704730B42F
:10640000044654E8000F00EA010544E80053002B5D
:10641000F7D1156030BC704730B4044654E8000F23
:1064200080EA010544E80053002BF7D1156030BC29
:10643000704730B4044654E8000F00EB010544E80F
:106440000053002BF7D1156030BC704730B40446C0
:1064500054E8000FA0EB010544E80053002BF7D1EE
:10646000156030BC704770B404464FF0000054E82B
:10647000006F0D68AE4207BF44E80023012044E8E6
:1064800000630E60002B1CBF0020F0E770BC70475B
:1064900030B4044654E8000F88422CBF451A054624
:1064A00044E80053002BF5D1156030BC7047000064
:1064B0000648804706480047FEE7FEE7FEE7FEE79E
:1064C000FEE7FEE7FEE7FEE7FEE7FEE77970020083
:1064D00001620200202A04DB203A00FA02F10020C7
:1064E00070479140C2F1200320FA03F31943904012
:1064F000704700000048704758DB050040EA010380
:106500009B0703D009E008C9121F08C0042AFAD269
:1065100003E011F8013B00F8013B521EF9D270472D
:10652000D2B201E000F8012B491EFBD270470022D5
:10653000F6E710B513460A4604461946FFF7F0FF82
:10654000204610BD421C10F8011B0029FBD1801A07
:10655000704730B504460020034600E05B1C9342C0
:1065600003D2E05CCD5C401BF8D030BD2DE9FE4F7E
:10657000804681EA0300C00F0C46009021F00041E4
:1065800023F00045B8EB0200A94105D24046214660
:1065900090461C460B46024623F00040104347D06D
:1065A000270DC7F30A00C3F30A510290401A019065
:1065B00040286BDAC3F3130040F4801B0098924626
:1065C00020B10023D2EB030A63EB0B0B0198594671
:1065D000C0F140025046FFF77DFF06460D4650468B
:1065E0005946019A00F01BF910EB080061410024A4
:1065F00087EA115284EAE7731A4340D0009A62B3E3
:10660000019A012A4FEA075215DC001B61EB0201D7
:106610004FF0004202EA0752CDE90042001C41F56A
:10662000801132462B4600F01BF903B0BDE8F08F15
:1066300040462146F9E7001B61EB0201001C41F5D1
:10664000801300185B412018A2F5001747EB0301E7
:1066500040EAD570B6196D4111E06D084FEA360673
:1066600045EAC0754FEA0752001B61EB0201001CAE
:1066700041F5801149084FEA300000195141324676
:106680002B4603B0BDE8F04F00F0DBB800980122C4
:1066900040000023D0EB020263EBE0730098214638
:1066A0004FEAE074B8EB000061EB0401E9E783F026
:1066B00000435BE781F0004158E72DE9FE4F81EA96
:1066C000030404F0004421F0004100944FF0000B5B
:1066D00023F0004350EA01045ED052EA03045BD089
:1066E000C3F30A54C1F30A552C44A4F2F3340194C1
:1066F000A0FB0254C1F3130141F48011C3F313034F
:1067000043F4801301FB024400FB034E840A970A02
:1067100044EA815447EA8357A4FB076802958D0A2F
:1067200005FB07854FEA932C04FB0C542705029DBB
:106730004FEA065847EA1637B5EB08056EEB070C2B
:10674000870E920E47EA811742EA8312A7FB0201E5
:10675000B6EB0B0164EB00042B0D43EA0C335E181F
:1067600044EB1C50DA465146E7FB0201C5F3130423
:106770004FEA0B3343EA14534FEA0432019C43EAD5
:106780000603A4F10C040294009CCDE900B400F0CF
:1067900067F803B0BDE8F08F00200146F9E70EB5B9
:1067A000C10F80EAE0700844CA07002140F2334379
:1067B0008DE80E000A460B4600F052F803B000BD0B
:1067C00070B5C1F30A5201F000450024C1F3130172
:1067D00040F2FF3341F480119A4201DA002070BD8B
:1067E00040F233439A42A2F2334203DC524200F0B9
:1067F00006F800E090402C43F1D0404270BD202AC2
:1068000004DB203A21FA02F00021704721FA02F35A
:10681000D040C2F120029140084319467047202A17
:1068200006DBCB17203A41FA02F043EAE07306E0B8
:1068300041FA02F3D040C2F12002914008431946C8
:10684000704710B5141E73F1000408DA401C41F1C2
:10685000000192185B411A4301D120F0010010BDE4
:106860002DE9F04D92469B4611B1B1FA81F202E05A
:10687000B0FA80F220329046FFF72CFE04460F4615
:1068800040EA0A0041EA0B0153465A46084313D036
:10689000114653EA010019D0C8F140025046FFF7F3
:1068A000AEFF05460E46504659464246FFF712FED9
:1068B000084305D0012004E020463946BDE8F08DAC
:1068C0000020054346EAE0762C4337430A986305E7
:1068D000E40AA0EB08000022FD0A44EA47540A300B
:1068E00002D500200146E9E7010510196941DDE9FB
:1068F000084500196941BDE8F04DA2E7064C074D77
:1069000006E0E06840F0010394E80700984710347F
:10691000AC42F6D3FFF778FCC8F40500E8F40500B4
:106920002DE9F04D81EA030404F0004B21F000450D
:1069300014464FF0000A23F0004150EA050220D02F
:1069400054EA01021DD0C5F30A570246C5F31303EA
:10695000C1F31300C1F30A5640F4801543F48013C9
:10696000A7EB0608101BD64608F2FD3873EB0500AE
:1069700002D308F1010801E092185B41B8F1000F61
:1069800003DA00200146BDE8F08D00204FF48011AD
:10699000064684460EE0171B73EB050705D3121B52
:1069A00063EB050306434CEA010C49084FEA30004B
:1069B00092185B4150EA0107EDD152EA030012D070
:1069C00082EA040083EA0501084305D0101BAB41AD
:1069D00006D20122002306E000224FF0004302E02D
:1069E0006FF0010253101AEB06004CEB085110EB4C
:1069F0000A0041EB0B01BDE8F04DFFF722BF0EB5D9
:106A000040F2334102910021CDE900110A460B46C4
:106A1000FFF726FF03B000BD70B58C1810F8015BBE
:106A200015F0070301D110F8013B2A1106D110F827
:106A3000012B03E010F8016B01F8016B5B1EF9D12B
:106A40002B0705D40023521E0DD401F8013BFAE7B1
:106A500010F8013BCB1A921C03E013F8015B01F81C
:106A6000015B521EF9D5A142D8D3002070BD0000B1
:106A70002DE9F04F89B00027002008904FF4807076
:106A800007900126002412E0079806F009FF40B1A4
:106A900000BF7B480068304018B1079806F0F2FE4E
:106AA000374376000798001D80B20790641C082CBD
:106AB000EAD34FF4BE7006F0F3FE50B14FF4BE704F
:106AC00006F0E0FE47F0004708AA0121002006F08A
:106AD000BFFEF8B200B3012600241BE006EA07005F
:106AE000B0B100BF674850F82400C0F304208046CE
:106AF00000BF644850F82400C0F30140814620469E
:106B000002F082FD054615B149464046A84700BF40
:106B10007600641C082CE1D307F0004000287DD0EB
:106B2000002006900590002505E04FF0FF3004A9F5
:106B300041F825006D1C002DF7D000BF0020069005
:106B400000245FE05048005D0390039820F0C009E6
:106B50004D480057401C002853D004A9484605F072
:106B600004FF00284DD003984FEA901A484602F0DF
:106B700053FD804602F048FD0290029810B9BAF128
:106B8000030F3DD1BAF1030F03D105A9484605F023
:106B9000F7FE00BF00BF4FF0A041084600F5E061DE
:106BA00051F82910C1F3014800BF08A9484605F073
:106BB000DCFE8346BBF1000F02D0B8F1020F05D016
:106BC000BBF1000F1BD1B8F1030F18D1BAF1030FBD
:106BD0000FD1B8F1020F01D1032000E00220019093
:106BE0004846019906F0D8FD0698401CC0B20690B0
:106BF00000BF029818B151464846029A904700BF1C
:106C000000BF641C042C9DD3069888B34FF0010884
:106C100003AA0121002006F01BFE00E02DE0002564
:106C20000BE003A850F8250008A951F82510884268
:106C300002D04FF0000802E06D1C002DF1D000BF23
:106C4000B8F1000F02D00020069010E000250CE003
:106C500003A850F8250008A941F8250005A850F818
:106C6000250004A941F825006D1C002DF0D000BFBF
:106C7000069800287FF462AF00BF09B0BDE8F08F2E
:106C8000046300401065004008BB00201CB50746A7
:106C900000BF07F0B5F900BF00BF06F013FF0028E2
:106CA000FBD100BF00BF3C4646480668002C29D0F7
:106CB0004549464BC91AC908012343EA014044A18A
:106CC000A26907F095F8D4E90201CDE900013E4937
:106CD0003E4D491BC908012545EA014042A1D4E9BE
:106CE000002307F0B5F8E06900903749374D491B9C
:106CF000C908012545EA014049A1D4E9042307F068
:106D000093F809E03049314A891AC908012242EA58
:106D100001404DA107F062F82A48001D006800F00C
:106D2000020048B12849294A891AC908012242EAC1
:106D30000140524907F052F8002515E00120A84013
:106D4000304080B14E4850F8250060B14C4951F8B0
:106D500025201D491D4BC91AC908012343EA0140DA
:106D600048A107F045F86D1C1A2DE7D306F0800006
:106D700060B114490C310A681349144BC91AC90887
:106D8000012343EA014042A107F032F806F4004033
:106D900060B10C4910310A680B490C4BC91AC9087B
:106DA000012343EA014042A107F022F800BF054851
:106DB000C830006800F0010000B100BE00BF3846D6
:106DC00000F084F828ED00E0A8F50500F8F40500CF
:106DD00048415244204641554C542061742030783B
:106DE0002530385800000000202052303A20203052
:106DF0007825303858202052313A202030782530FC
:106E00003858202052323A20203078253038582007
:106E10002052333A202030782530385800000000C6
:106E200020205231323A2030782530385820204CFA
:106E3000523A202030782530385820205053523A8A
:106E40002030782530385800537461636B207669A0
:106E50006F6C6174696F6E3A20737461636B20703C
:106E60006F696E746572206F7574736964652073E1
:106E70007461636B20617265612E000018EA050081
:106E80005479002043617573653A2025732E000004
:106E90004D656D4D616E616765204661756C74204E
:106EA000416464726573733A203078253038580035
:106EB000427573204661756C742041646472657319
:106EC000733A2030782530385800000000BF00BFEA
:106ED00000BF00BF00BFBFF34F8F00BF00BF00BFA8
:106EE0000948006800F4E06008490843001D0649AD
:106EF000086000BF00BF00BFBFF34F8F00BF00BFDF
:106F000000BF00BF00BFFDE70CED00E00000FA0588
:106F100010B54FF4807005F013FF80B14FF480700E
:106F200005F017FF012005F01DFF0D48407930B92D
:106F300001200B49487108460168002088474FF43A
:106F4000827005F0FDFE50B14FF4827005F001FF34
:106F5000022005F007FF024801680120884710BDA4
:106F6000147900202DE9F0414FF4A0711A4807F080
:106F70007CF9002400BF00BFEFF3118005464020DC
:106F800000F0AAFE00BF2E4600BF14480068074666
:106F90004FF48071104807F068F90EF081F8381A44
:106FA00020F07F45012D04D90EF06AF8022800D0A8
:106FB000012502E00EF080F80443281EA5F101052A
:106FC000F8D124B14FF080500549086040BF3046E9
:106FD00000F082FEBDE8F081001001400415014080
:106FE00004ED00E010B51E2000BF4FF0A04319468D
:106FF000D1F80425012383409343C1F808350123C8
:1070000083401340C1F80C3500BF0249024804F028
:10701000FCFD10BD7CBB00200030004008B5002006
:10702000009069460E4800680DF0BCF80098B0B1B9
:1070300000BF4FF080500B49086040BF00BF00BF49
:1070400000BFBFF34F8F00BF00BF00BF00BF00BF36
:1070500000BFBFF36F8F00BF00BF00BF00BF08BD00
:10706000387A002004ED00E00148024908607047CA
:107070000090D003407A002010B503F02DF928B11C
:107080006B480088C0F304206A49086003F078F96F
:1070900010B169486949486703F09AF930B164480A
:1070A000E0380068C0F342306549086003F0BAF97F
:1070B00028B16448006820F080706249086003F0DD
:1070C000C9F948B10020604908604FF08041C1F81B
:1070D00010015B49091F086003F0E6F918B10320AD
:1070E00057496431086003F0F7F968B10520574942
:1070F0000860012055497831086000205349083163
:1071000008603F20091F086003F0FEF9002855D0F1
:107110004748E03000684E4908604548E430006860
:10712000091D08604248E8300068091D08604048B1
:10713000EC300068091D08603D48F0300068091D0A
:1071400008603B48F4300068091D08603848F83092
:1071500000683F49203108603548FC300068091D4F
:1071600008603C480068091D08603A48001D006836
:10717000091D0860374808300068091D0860354857
:107180000C300068091D0860324810300068304932
:10719000403108602F4814300068091D08602D48F0
:1071A00018300068091D08602A481C300068091D55
:1071B0000860284820300068091D086003F062F864
:1071C00030B11B48CC38006800F04F0022490860FD
:1071D00003F0ACF840B12148006800F0010018B19C
:1071E0006FF001001D49086003F0E2F828B11C4867
:1071F000006840F480601A490860124874380068DA
:1072000040F470000F497439086000BF00BF00BF30
:10721000BFF34F8F00BF00BF00BF00BF00BF00BF64
:10722000BFF36F8F00BF00BF00BFFFF71DFF10BD92
:1072300024030010403501400DF0ADBA00C00740F6
:107240003C050040FCED00E00C0100401056004001
:1072500020C5004024040010E40E0040000400405B
:107260003C17004010B502490868804710BD000077
:107270001C79002003B401984100009850EAC12015
:1072800018BF04204A0D18BF40F0010040F2FF7201
:10729000B2EB515F08BF40F00200012808BF052093
:1072A00002B070470000000010B52F499FED2C1B65
:1072B0002DED020B84B0059820F000408842D8BF25
:1072C0009DED040B2DDD2949884209D1049840B970
:1072D0004FF0010000F00CFD00F0A2FC06B010BD64
:1072E00005DB9DED040B00F08FFC06B010BD684679
:1072F0009DED040B00F0A0F810F0030004BF9DED1D
:10730000021B9DED000B0CD001280ED09DED021B41
:107310009DED000B022817D0012000F0DDFB06B028
:1073200010BD00F0A5FA06B010BD9DED021B9DED4D
:10733000000B012000F0D0FB51EC100B81F000415C
:1073400006B041EC100B10BD00F092FA51EC100B9E
:1073500081F0004106B041EC100B10BD00000000B0
:107360000000000000000000FB21E93F0000F07F6A
:1073700010B52F499FED2C1B2DED020B84B0059805
:1073800020F000408842DCBF00209DED040B32DD80
:107390002849884209D1049840B94FF0010000F013
:1073A000A7FC00F03DFC06B010BD05DB9DED040B15
:1073B00000F02AFC06B010BD68469DED040B00F0FD
:1073C0003BF810F0030011D0012818D09DED021BEE
:1073D0009DED000B02281AD000F04AFA51EC100B78
:1073E00081F0004106B041EC100B10BD9DED021B79
:1073F0009DED000B012000F06FFB06B010BD9DED70
:10740000021B9DED000B00F033FA06B010BD012009
:1074100000F062FB51EC100B81F0004106B041EC32
:10742000100B10BD00000000000000000000000074
:10743000FB21E93F0000F07F2DE9F14F04462DEDDF
:10744000020B2DED088B8AB09FEDE70B80ED020B50
:10745000139EE74826F0004585420ADC9DED120B9D
:10746000002084ED000B0AB0BDEC088B03B0BDE832
:10747000F08FE0489FEDE0AB9FEDE1BBA84247DD18
:10748000E14F9FEDE39B9FEDE48B9DED120B53ECE1
:107490001A2B51EC100B002E1CDDFFF708F941EC04
:1074A000100BBD4208D053EC1B2B51EC100BFFF717
:1074B000FEF8C4E900010BE053EC192B51EC100B62
:1074C000FFF7F5F853EC182BFFF7F1F8C4E90001CA
:1074D0000120C8E7FFF74AF841EC100BBD4208D085
:1074E00053EC1B2B51EC100BFFF740F8C4E90001E3
:1074F0000BE053EC192B51EC100BFFF737F853EC62
:10750000182BFFF733F8C4E900014FF0FF30AAE76A
:10751000C348A84279DB9DED120B51EC100B03F030
:1075200067F941EC180B9FEDC00B53EC102BFFF7E4
:10753000C4F89FEDBF1B53EC112BFFF717F8FFF7B3
:107540003FF90746FFF72BF941EC190B53EC1A2BC7
:10755000FFF7B3F853EC182BFFF7ACF841EC180B1E
:1075600053EC1B2B51EC190BFFF7A7F8DFF8C8A25F
:1075700041EC100B4FEA15580125FA4453EC102B3F
:1075800051EC180BFFF793F8032DC4E900013DD02F
:10759000C1F30A5005EB4511A8EB000011398142F7
:1075A00034DA0AEB051BB0EE48AA9BED000BF0EEB7
:1075B00068AA53EC102B51EC190BFFF77EF841EC45
:1075C0001B0B51EC1A0B53EC1B2BFFF770F841EC23
:1075D000180B51EC1A0B53EC182BFFF768F853EC0F
:1075E0001B2BFFF764F89BED020B41EC1A0B53ECDD
:1075F000102B51EC190BFFF760F853EC1A2BFFF727
:1076000056F841EC100B6D1CB8E70EE0002EA8BF39
:107610003846BFF628AF94ED000B51EC100B81F00B
:107620000041C4E9000178421DE7C6F3130040F4AD
:10763000801EC6F30A50A0F2F530471100F01F0576
:10764000C5F12000DDF848B00890002006900790B2
:107650000520EC467949002D07EB0002794408BF6C
:1076600051F8221009D051F8223001EB8201AB40D1
:107670004A68089922FA01F11943A1FB0E26A1FBE1
:107680000B131A449A4234BF0123002303EB06086C
:107690000CEB8003D3E901A60E448E4234BF0121D6
:1076A000002192448A4411B1924502D903E09245E7
:1076B00001D2012100E00021C3E901A641444CF8B8
:1076C0002010011EA0F10100C4DC029800F100505E
:1076D000850F0298DDE903678000DDF81480FFF76D
:1076E0005EF841EC1A0B3046FFF789F99FED541B09
:1076F00053EC112BFEF7E1FF41EC1B0B3846FFF773
:107700007EF99FED511B53EC112BFEF7D6FF41EC98
:10771000180B4046FFF773F99FED4D1B53EC112BEF
:10772000FEF7CBFF41EC190B51EC180B53EC192B66
:10773000FEF71CFF53EC1B2BFEF718FF53EC1A2B24
:10774000FEF714FFCDE90801002008909DED080B1D
:1077500053EC1A2B51EC100BFEF7A9FF53EC1B2B2B
:10776000FEF7A5FF53EC182BFEF7A1FF53EC192BE6
:10777000FEF7A0FF9FED381B53EC112BFEF79DFF8A
:107780009FED370B41EC180B53EC102B9DED080BC4
:1077900051EC100BFEF791FF53EC182BFEF7E6FEB1
:1077A0009FED310B41EC180B53EC102B9DED080BAA
:1077B00051EC100BFEF781FF53EC182BFEF7D6FEB1
:1077C00041EC100B139810F0004F06D06D4251ECB5
:1077D000100B81F0004141EC100B284684ED000BAA
:1077E00041E6000000000000000000000000000072
:1077F000FB21E93F7CD9024000004054FB21F93FC6
:107800003163621A61B4D03DFB21F93F00000000F2
:107810000000601A61B4D03D7370032E8A19A33B37
:10782000FB2139410000000083C8C96D305FE43F8F
:10783000000000000000E03F1266030060650300E6
:10784000000000000000103E000000000000103C9E
:10785000000000000000103A182D4454FB21F93DAF
:107860003326A611460B113C00000054FB21F93DC4
:1078700010B52DED040B2DED088B82B0B0EE419AC2
:10788000F0EE619A0B9820F000449FED4BABB4F101
:10789000795F11DA9DED0A0B51EC100BFEF790FFAA
:1078A000002801BFB0EE4A0AF0EE6A0A02B0BDEC51
:1078B000088B04BF04B010BD9DED0A0B53EC102BD8
:1078C00051EC100BFEF7F9FE41EC180B3C48062179
:1078D000B0EE480AF0EE680A784400F081F853EC04
:1078E000182B51EC100BFEF7E8FE9DED0A0B41EC56
:1078F0001B0B53EC192B51EC100BFEF7DEFE41EC89
:10790000190B53EC1B2B51EC180BFEF7D6FE53EC66
:10791000192BFEF7CCFE9FED2C0B41EC190B53EC11
:10792000102B51EC180BFEF7C8FE41EC100B284849
:10793000844210DA53EC192B51EC100BFEF7B7FE12
:1079400053EC1A2BFEF7B6FE41EC100B02B0BDEC67
:10795000088B04B010BD1F48A042BCBF9FED1E1B8A
:107960008DED001B06DBA4F50010019000200090B7
:107970009DED001B51EC100B53EC112BFEF797FE05
:107980009DED000B41EC180B53EC102B51EC1A0B36
:10799000FEF78DFE41EC1A0B53EC192B51EC180B32
:1079A000FEF785FE53EC1A2BFEF784FE41EC100B1C
:1079B000CCE7000000000000000000000000F03FE5
:1079C0008462030000000000000000000000E03FAF
:1079D0003333D33F0000E93F000000000000D23FF6
:1079E00070B504462DED028B4D1E00EBC500B0EEC8
:1079F000408AF0EE608A90ED000B35F0060017D05B
:107A000053EC182B51EC100BFEF757FE41EC100B0A
:107A10006D1E04EBC50090ED001B51EC100B53ECF8
:107A2000112BFEF7A3FD41EC100B35F00600E7D15A
:107A3000022D36D0042D1CD0062D1CBFBDEC028BB0
:107A400070BD53EC182B51EC100BFEF736FE94ED85
:107A50000A1B53EC112BFEF789FD53EC182BFEF794
:107A60002CFE94ED081B53EC112BFEF77FFD41EC2F
:107A7000100B53EC182B51EC100BFEF71EFE94ED7F
:107A8000061B53EC112BFEF771FD53EC182BFEF780
:107A900014FE94ED040B53EC102BFEF767FD41EC44
:107AA000100B53EC182B51EC100BFEF706FE94ED67
:107AB000021B53EC112BFEF759FD53EC182BFEF76C
:107AC000FCFD94ED001B53EC112BFEF74FFDBDECBC
:107AD000028B41EC100B70BD31B504462DED040B4B
:107AE0002DED0A8BB0EE41BAF0EE61BA0B989DED28
:107AF0000A0B20F00040B0F1795F0DDA51EC100B69
:107B0000FFF7B8FB042808BF00F09AF89DED0A0BB8
:107B1000BDEC0A8B05B030BD53EC102B51EC100BB3
:107B2000FEF7CBFD41EC180B9DED0A0B53EC182B27
:107B300051EC100BFEF7C1FD41EC190B2C48B0EED7
:107B4000480AF0EE680A05217844FFF749FF9FEDE7
:107B50002ACBB0EE40AAF0EE60AA9CB353EC1C2BEB
:107B600051EC190BFEF7A9FD41EC1C0B53EC1A2B41
:107B700051EC190BFEF7A1FD9FED210B41EC190B08
:107B800053EC102B51EC1B0BFEF797FD53EC192B0C
:107B9000FEF78DFD53EC182BFEF78FFD53EC1B2BDE
:107BA000FEF785FD53EC1C2BFEF781FD9DED0A1BB6
:107BB00053EC112BFEF77EFDBDEC0A8B05B041ECBA
:107BC000100B30BDFFE753EC1A2B51EC180BFEF7EE
:107BD00074FD53EC1C2BFEF7C9FC53EC192BFEF77C
:107BE0006CFD9DED0A1B53EC112BFEF7BFFCE3E788
:107BF0000C61030000000000495555555555C5BF9F
:107C0000000000000000E03F10B553EC102B51ECD9
:107C1000100BFEF7ABFC41EC100B10BD0000000098
:107C20009FED050B10B553EC102B51EC100BFEF72C
:107C300077FE41EC100B10BD0000000000000000BA
:107C40009FED050B10B553EC102B51EC100BFEF70C
:107C500034FD41EC100B10BD0000000000000010CE
:107C600002E008C8121F08C1002AFAD17047704705
:107C7000002001E001C1121F002AFBD17047000063
:107C80000146202908DA012088400A4A104008B13C
:107C9000012070470020FCE7402909DAA1F120000B
:107CA000012202FA00F008B10120F2E70020F0E71B
:107CB0000120EEE7FC06FFBD00BFEFF31081084690
:107CC00072B6704700BFEFF31081084672B6704776
:107CD000C1B281F311887047C1B281F31188704736
:107CE000C1B281F311887047C1B281F31188704726
:107CF0000149086070470000447A0020F8B5054645
:107D00000E46D6B96946284608F0B8FC044643F248
:107D100002018C420AD000BF274637B100BF3B4A60
:107D20008D213846FEF7C6FA00BF00BF9DF800005F
:107D3000C0F3400000B1F8BD00BF0021284608F0A4
:107D4000DDFC0446002C5ED0112C5CD00D2C21D122
:107D50002F49304A891AC908022242EA01402A46BC
:107D60002D4906F045F81321284676DF0446002CFD
:107D700049D0204606F02AFC07462549254A891A9B
:107D8000C908022242EA01402B463A4623A106F0E6
:107D90003BF838E00B2C0BD11D491E4A891AC90843
:107DA000022242EA01402A462A4906F021F82AE046
:107DB00043F2020084420BD11549164A891AC908B8
:107DC000022242EA01402A46234906F011F81AE04D
:107DD000204606F0FBFB07460D490E4A891AC908E2
:107DE000012242EA01402B463A461CA106F00CF85B
:107DF00000BF274637B100BF044ABC213846FEF712
:107E000059FA00BF00BF00BF95E7000074E4050009
:107E100058F50500F8F4050054E3050073645F624B
:107E20006C655F6761705F646973636F6E6E6563D5
:107E30007428292072657475726E6564202573201C
:107E40006F6E20636F6E6E5F68616E646C65202577
:107E5000642E000014E40500C8E305004173736557
:107E60007274696E672E20706D5F636F6E6E5F73E4
:107E7000656375726528292072657475726E656414
:107E8000202573206F6E20636F6E6E5F68616E6475
:107E90006C652025642E000070B505460C4605B1C2
:107EA0000CB9002070BD287840082178B0EB510F44
:107EB00001D00020F6E70622611C681CFEF749FB92
:107EC00008B90120EEE70020ECE7014601F00300CD
:107ED00008B9012070470020FCE70246506800689E
:107EE000401E084008B9012070470020FCE7024608
:107EF000002104E0505C08B101207047491C0629AC
:107F0000F8D30020F9E710B50346D868884206D8B0
:107F10008818401E1C69A04201D8012010BD002015
:107F2000FCE7000010B504466CB10848C068A042E8
:107F300009D806480069A04205D3204603F017FF80
:107F400008B1012010BD0020FCE70000487A0020A5
:107F500070B504460D4604F24B20FFF7C8FF0646F5
:107F6000012D06D0022D0DD0032D11D0042D19D1D5
:107F700013E0A07928B194F8240010B90EB10120C3
:107F800070BD00BFE07910B10EB10220F8E700BF6C
:107F9000207A08B10320F3E700BF607A08B104201B
:107FA000EEE700BF0020EBE70146481C052290FBEE
:107FB000F2F302FB1300C0B270472DE9F04704460C
:107FC0000D462F4695F82080B4F81C9000260BE053
:107FD00007EB46124946A06900F04AFE10B10120A5
:107FE000BDE8F087701CC6B24645F1DB0020F7E71C
:107FF00010B501220221002001F0FEF9044600BF65
:108000001CB1072C01D0204610BD00BF0722022161
:10801000012001F0F1F9044600BF1CB1072C01D08A
:108020002046F1E700BF0A220021084601F0E4F9EA
:10803000044600BF1CB1072C01D02046E4E700BF76
:108040000020E1E770B58CB004460D4616460020CE
:1080500005E0C0F10F01615C0DF80010401C102814
:10806000F7D30D2104A8FEF762FA002005E02A5C90
:10807000C0F10F0304A9CA54401C0328F7D3684673
:1080800046DF002005E0C0F10F0208A9895C3154E9
:10809000401C0328F7D30CB070BD0146D8204058CF
:1080A00008B9012070470020FCE7000010B5044625
:1080B00002480178204600F0A5FF10BDEF780020AF
:1080C000F8B504460E4615460020009051E0DC202D
:1080D000005D092848D2DFE800F0050D151D252DAB
:1080E000353D45006A463146204601F035FBDC212E
:1080F00008553DE06A463146204604F07BFADC2113
:10810000085535E06A463146204600F05FF9DC212B
:1081100008552DE06A463146204600F0A3FBDC21DD
:10812000085525E06A463146204600F0D9FBDC219F
:1081300008551DE06A463146204600F0DBFBDC2195
:10814000085515E06A463146204600F02AFBDC213E
:1081500008550DE06A463146204600F007FCDC2158
:10816000085505E0009503E00821DC20015500BF1B
:1081700000BF0098A842AAD3F8BD00002DE9FE4335
:1081800007460E46144672B600BF05F039FF00BF21
:1081900000BF05F097FC0028FBD100BF00BF012FF6
:1081A0000CD06FF48050384498B1B0F5405F2CD0BB
:1081B0006FF440510844002847D115E03149324A54
:1081C000891AC908012242EA014030A105F006FEE1
:1081D00047E02C492C4A891AC908012242EA014089
:1081E00032A105F0FBFD3CE025462B882549DFF850
:1081F00098C0A1EB0C01C9084FF0010C4CEA0140FA
:1082000033A16A6805F000FE2BE02546A86806F059
:10821000DDF98046D5E900108DE8430019491A4B75
:10822000C91AC908012343EA014043462FA1AA689D
:1082300005F024FE1349144A891AC908012242EAAA
:10824000014034A105F0CAFD0BE00E490E4A891A1F
:10825000C908012242EA0140324633A105F0C8FDB7
:1082600000BF00BF00BF3648006800F0010000B149
:1082700000BE00BF22463146384600F063F8BDE834
:10828000FE830000B8F50500F8F40500534F46548E
:108290004445564943453A20415353455254494F6A
:1082A0004E204641494C454400000000534F46547F
:1082B0004445564943453A20494E56414C4944208D
:1082C0004D454D4F52592041434345535300000003
:1082D000415353455254494F4E204641494C454421
:1082E0002061742025733A25750000004552524FD5
:1082F00052202575205B25735D2061742025733A1B
:1083000025750D0A50432061743A203078253038A5
:1083100078000000456E64206F66206572726F728F
:10832000207265706F727400554E4B4E4F574E2041
:108330004641554C5420617420307825303858001F
:10834000F0ED00E018B5012300939DF800301E4BBE
:10835000186059609A606FF48043034463B1012B45
:1083600019D1194BDA60DB681B88174CA3612346CF
:10837000DB685B68E3610EE0134B1A611B699B6865
:10838000114C636123461B691B68A36123461B696B
:108390005B68E36100BF00BF0B4B1B680A4B5B6867
:1083A000094B9B68084BDB68074B1B69064B5B69F5
:1083B000054B9B69044BDB6972B600BF9DF800302A
:1083C000002BFBD162B618BDA8BB002030B5034618
:1083D0001468601C10600C5DE820C55803F58670B9
:1083E0004455E820C45803F58670005D30B1E8209C
:1083F000C058401CE824E050022030BD0320FCE7B8
:10840000002070472DE9FC4705460E4617462C46CE
:10841000D4F80480B8F1000F02D10820BDE8FC8731
:10842000207B002801D00020F8E7276000BFEFF391
:108430000580A8B30020019001AB324609210090CD
:1084400040460DF00BF8012801D00420E6E70CF0BF
:108450002DFE8146002001AB4A4606210090404691
:108460000CF0FCFF012801D00420D7E70198B0B13F
:1084700000BF4FF080501D49086040BF00BF00BFE3
:1084800000BFBFF34F8F00BF00BF00BF00BF00BFE2
:1084900000BFBFF36F8F00BF00BF00BF00BF21E070
:1084A000FFE740460DF010F808B10020B6E70220C3
:1084B000002332460421009040460CF0CFFF0128F3
:1084C00001D00420AAE70CF0EBFD81460220002336
:1084D0004A460121009040460CF0C0FF012801D01F
:1084E00004209BE701202073002097E704ED00E0C3
:1084F0007CB5044625466E68002E01D108207CBD5F
:1085000000BFEFF3058030B30020019001AB0246BD
:108510000821009030460CF0A1FF012801D0042072
:10852000EDE70198B0B100BF4FF0805012490860EC
:1085300040BF00BF00BF00BFBFF34F8F00BF00BFF1
:1085400000BF00BF00BF00BFBFF36F8F00BF00BF01
:1085500000BF00BF0BE0022000231A460321009059
:1085600030460CF07BFF012801D00420C7E7002033
:10857000287300BFC3E7000004ED00E010B5044617
:10858000204609F0CDFB10BD70B5044625460E48C7
:108590008068B0B1ADB9FFF795FB06460A480068A0
:1085A0000A490860084840684FF0E021C1F804011A
:1085B0000020054988601EB900BF62B600BF00BF39
:1085C00000BF00BF70BD0000C8BB002000E100E09C
:1085D00038B50CF065FD0446022000232246012137
:1085E0000090264800680CF039FF012806D000BF33
:1085F00023A293210420FDF75DFE00BF0CF050FD87
:1086000004460220002322460121009020480068F1
:108610000CF024FF012806D000BF19A298210420E5
:10862000FDF748FE00BF0CF03BFD0446022000238E
:10863000224601210090174800680CF00FFF012826
:1086400006D000BF0EA29D210420FDF733FE00BF1F
:108650000CF026FD04460220002322460121009052
:108660000D4800680CF0FAFE012806D000BF04A2F5
:10867000A2210420FDF71EFE00BF38BD0C700020B3
:108680002E2E5C2E2E5C2E2E5C6D61696E2E63008C
:1086900010700020147000201870002070B505467E
:1086A0000C462068401C28B1206805F0AFF820680F
:1086B00005F04EF86068401C18B10021606805F0B4
:1086C00015F82868A169C0F8241500BF617D227DD6
:1086D000286841EA0203C0F86C3500BFD4E90012F3
:1086E000286805F0ACFF207D012814D1A068401C4B
:1086F00018B10021A06804F0F9FFE068401C28B11F
:10870000E06805F083F8E06805F022F8D4E902217A
:10871000286805F07DFF70BD70B505460C462068E1
:10872000401C28B1206805F07CF8206805F01CF892
:108730006068401C18B10021606804F0E4FF2868FC
:10874000A169C0F8241500BF617D227D286841EA37
:108750000203C0F86C3500BFD4E90012286805F0A8
:10876000A1FF207D012814D1A068401C18B1002170
:10877000A06804F0C8FFE068401C28B1E06805F07C
:1087800050F8E06804F0F0FFD4E90221286805F011
:108790006FFF70BD70B504460D46204603F06EFCB9
:1087A00070BD70B504460E461546D4F8D010D4F806
:1087B000000101EB00100189E420005B814213DD20
:1087C000E420015BFC20005B81420DDA2968481C33
:1087D0002860715CE420025B005B401C83B2E420F3
:1087E0000353D4F804018154E420015BFC20005BB6
:1087F00081420BD0D4F8D010D4F8000101EB001066
:108800000089401EE421095B884229D104F1EC0073
:1088100010300EC8204600F055F828B10021E420A1
:10882000005BD4F804211154E420015BFC20005BC0
:10883000814201DA072070BD04F1EC0010300EC84F
:10884000204600F03FF818B104F1EC002168884799
:108850002046FFF722FC08B10820ECE70320EAE7F6
:108860000620E8E770B504460E4615462968481C00
:108870002860715CC4F80011D4200059D4F80011AC
:10888000814201D3082070BDD4F8D010D4F8000183
:1088900001EB0010C168C4F804112046FFF7FDFB8E
:1088A00008B10820EFE704F1EC0010300EC82046B4
:1088B00000F008F820B1D8200059401ED8210851F6
:1088C0000420E0E71FB50446D4F8D000029900EB7D
:1088D00001100078012801D104B010BD0020FBE791
:1088E00010B503461468601C10600C5DFC20C45277
:1088F000052010BD70B504460E4615462968481C73
:108900002860715CFC20005B40EA0121FC200153DF
:108910000021E4200153FC20005B98B1D4F8D01072
:10892000D4F8000101EB0010008938B1D4F8D01060
:10893000D4F8000101EB0010C06808B9072070BD31
:108940000620FCE704F1EC0010300EC82046FFF7CB
:10895000B9FF18B104F1EC00216888472046FFF701
:108960009CFB08B10820EAE70320E8E770B504465D
:108970000E461546E420015BFC20005B814208DACC
:10898000E420005B401C81B2E42001532868401CB5
:108990002860E420015BFC20005B814213D104F1DC
:1089A000EC0010300EC82046FFF78CFF18B104F120
:1089B000EC00216888472046FFF76FFB08B10820CC
:1089C00070BD0320FCE70720FAE710B50446637981
:1089D00003F003022179208803F00EFB10BD10B5CF
:1089E0000446207918B9204600F008F803E0204634
:1089F000FFF7EBFF00BF00BF10BD00002DE9FE43F5
:108A000007463E884FF0000800225948017830465A
:108A100000F00EFB7879C0F3800028B900213846B9
:108A200007F00CF9BDE8FE8306F5807188B201AB52
:108A30000122072107F03CFA0546C5B1284605F09A
:108A4000C5FD81464B494C4A891AC908012242EAB0
:108A5000014033464A46494905F0D6F92946304691
:108A600009F022FC0021384607F0E8F8DAE7304642
:108A700002F084FE04464FF6FF718C421BD102982F
:108A800002F0CCFD04464FF6FF70844213D021461D
:108A9000304602F051FE3046FFF708FB58B9304629
:108AA00009F094FB3046FFF701FB20B9002138465E
:108AB00007F0C4F8B6E74FF6FF7084421FD107F005
:108AC000A9FB04464FF6FF70844212D129492A4A75
:108AD000891AC908012242EA014029A105F07EF95C
:108AE0000421304609F0E0FB0021384607F0A6F8E3
:108AF00098E72146304602F01FFE4FF0010806F5C8
:108B0000807188B22246072107F05AFA054625B936
:108B10000121384607F092F828E0862D07D130462B
:108B200009F086FB0121384607F088F81EE0284648
:108B300005F04CFD81460F490F4A891AC9080122E8
:108B400042EA014033464A461A49009405F06CF95E
:108B50002946304609F0A8FB0021384607F06EF898
:108B6000B8F1000F02D0204602F0F0FD00BF59E737
:108B7000EC78002060F50500F8F4050098E50500A4
:108B8000436F756C64206E6F7420616C6C6F6361F1
:108B90007465206E657720706565725F6964206614
:108BA0006F7220696E636F6D696E6720626F6E64AD
:108BB0002E000000B4E60500002114E00C48D0F8B7
:108BC0001024012308E000BFD0680079884201D159
:108BD000002303E0D0680268002AF4D100BF0BB183
:108BE00008467047491C0A29E8DB4FF0FF30F8E7D8
:108BF0000CBF002002490968491C014A11607047F6
:108C0000207000202DE9F04104460F46154615B9A5
:108C10000E20BDE8F0810020286000BF0CB90E20B6
:108C2000F7E700BF00BF206808B90E20F1E700BFDA
:108C300000BFE088C11700EB91718910A0EB8101A2
:108C400009B10720E5E700BF384600F070F9C6B269
:108C5000142E01D10520DCE72079B04201DC04208C
:108C6000D7E7E188206806FB010028600020D0E7F4
:108C70002DE9F843064688461546002000900DB9B8
:108C8000BDE8F88309236A464146304600F02BF8D8
:108C90000446BDF800003718BDF8000068B164B1A3
:108CA0002846FDF74FFCA04207D122463946284608
:108CB000FDF74FFC08B90120E2E70020E0E7F8B536
:108CC00004460E461546002000902B466A46314663
:108CD000204600F008F807460FB90020F8BDBDF89F
:108CE00000002044FAE730B504460D4604B10AB945
:108CF000002030BD002103E0605C401C084481B2CC
:108D00001088884203DC481C205C984201D0A942AC
:108D1000F2DBA94201DB0020EBE7881C1080605CDD
:108D2000401E80B2E5E770B504460D462E46208809
:108D3000102804D0112807D026280FD109E0214699
:108D4000304606F00BFA0AE02146304606F07BFB7F
:108D500005E02146304606F0CDFD00E000BF00BF33
:108D600070BD704770B504460E46207808B90820DB
:108D700070BDA67000214FF41470C4F84A12A4F814
:108D80004E120155A07910B1A078012809D0E079E0
:108D900010B1A078012804D0E07970B1A078022841
:108DA0000BD1606B30B1012084F851020820616B57
:108DB000884702E0002084F8510231462046FFF740
:108DC000C7F8A070606BA0B1A078032802D0A0788B
:108DD00004280ED1607960B194F8520248B900209D
:108DE00084F85402012084F853020720616B8847FD
:108DF00002E0002084F85302182104F13C00FDF742
:108E000096FB012084F83C0004F12C0007F052FB93
:108E100020B194F82C105120015502E0012151207D
:108E2000015594F8240060B104F12C0007F042FBD6
:108E300020B194F828105220015502E0012152205F
:108E40000155002150200155A078052824D2DFE8E3
:108E500000F01F030A11180004F13C01204609F03C
:108E6000F0FB054619E004F13C01204609F0D1FB76
:108E7000054612E004F13C01204609F0F4FB0546EA
:108E80000BE004F13C01204609F01BFC054604E020
:108E9000002084F8310000E000BF00BFA07898B146
:108EA00004F13C0204F15400D4F8441272DF054688
:108EB0000DB128465CE794F8301094F8540073DF45
:108EC00005460DB1284653E7606B18B194F83100A0
:108ED000616B884700204BE72DE9F04104460D46C1
:108EE0002E462788112F0ED0382F02D0392F0FD1C0
:108EF00004E02146304606F0D5FD0AE02146304622
:108F000006F0D3FA05E02146304606F094FA00E078
:108F100000BF00BFBDE8F08101460879032802DAEE
:108F200088790C2801DB072070470020FCE710B58A
:108F30000446204600F09AF808B1204610BD1420DF
:108F4000FCE7000010B50446204600F08FF820B181
:108F50002146034803F011FC10BD0020FCE700008F
:108F600040B4002070B504460D46164620460AF06F
:108F700027FF08B9002070BD034951F8240032468C
:108F8000294601F065FDF6E748B4002010B5044617
:108F9000204600F06BF820B12146034803F0EDFBBA
:108FA00010BD0020FCE7000044B4002070B504466A
:108FB0000025204600F05AF850B12146054803F03C
:108FC000DCFB06460EB1022000E00120054600BF92
:108FD000284670BD3CB4002070B5044600252046EC
:108FE00000F044F850B12146054803F0C6FB0646A0
:108FF0000EB1022000E00120054600BF284670BDEA
:1090000038B4002070B505460C4620460AF0D8FE5C
:1090100050B1284600F02AF830B1044901EB840031
:10902000294603F0AAFB70BD0020FCE748B40020ED
:1090300070B505460C46164620460AF0C1FE88B1BA
:10904000284600F013F868B136B1074901EB8400F7
:10905000294603F0A1FB05E0034901EB8400294602
:1090600003F035FB70BD000048B4002010B5044685
:10907000142C01DB002010BD2146024803F07DFBCB
:10908000F9E7000034B4002070B504460E4600BF76
:1090900004B970BD00BF00BF06B9FAE700BF00BF4A
:1090A0001D480078012800D0F3E700BF354620882E
:1090B000112815D0302804D0322807D0332814D1F5
:1090C00009E0211D284606F055FB0FE0211D28462A
:1090D00005F0ACFE0AE0211D284606F0FBF805E08D
:1090E000211D284606F0C8F900E000BF00BF95F832
:1090F000C80278B1208830280CDB20884F2809DC92
:10910000A088B5F8CA12884204D1B5F8CA12284618
:1091100000F080FE00BFBCE7A47800202DE9F041FC
:1091200004460F46A5882846FFF740FF0646012E55
:1091300003D0204600F0FAF838B1204607F000FBD3
:10914000034801682046884700E000BFBDE8F08181
:10915000C475002070B505460E462888102802D038
:1091600011282CD115E01748006860B900F086FC82
:10917000044600BF34B11448006818B120461249B3
:109180000968884700BF0F480068401C0D49086007
:1091900016E00C480068401E0A490860084600684E
:1091A00060B9FEF725FF044600BF34B106480068E9
:1091B00018B1204604490968884700BF00E000BF95
:1091C00000BF70BD307800202C78002070B50446B8
:1091D0000D462088102806D0112808D012280ED05D
:1091E000502810D107E0204605F080FF0CE0204613
:1091F00006F008F908E0204606F028FC04E02046C6
:1092000005F0F2FE00E000BF00BF70BD2DE9F041A7
:1092100004468846A5882088102804D0112817D035
:109220001A2849D118E008F03DFC284608F0C4FA95
:1092300030B900BF22A2E3210420FDF73BF806E08D
:10924000E07B012803D029462C4803F0A5FA33E03F
:10925000284608F04BFC2FE0207A0121B1EB101FCB
:1092600001DA012000E000200646207A0221B1EB5D
:10927000101F01DA012000E0002007468EB12946C8
:109280001E48001D03F088FA2FB129461B480830FC
:1092900003F082FA0FE029461848083003F017FA65
:1092A00009E029461548001D03F011FA2946134824
:1092B000083003F00CFA00BF00BFBDE8F0810000E9
:1092C0002E2E5C2E2E5C2E2E5C2E2E5C2E2E5C2ED8
:1092D0002E5C636F6D706F6E656E74735C626C652F
:1092E0005C636F6D6D6F6E5C626C655F636F6E6EFD
:1092F0005F73746174652E63000000003CB400204D
:1093000070B504460D4600BF0748007800B970BD2F
:1093100000BF204602F0ECF8204609F001FA204692
:1093200001F03AFD00BFF2E7DC7800200146088832
:10933000262801D1012070470020FCE770B50446C3
:1093400020460AF08BFC054605F0010070BD70B5A3
:1093500086B005460E46344604B10DB906B070BD60
:1093600060884FF6FF71884204D06088A9888842DF
:1093700000D0F3E72888112806D0392816D12946CD
:10938000204606F047F912E0A888618888420CD18F
:10939000E06850B102208DF804004FF6FF70608045
:1093A00001A92046E268904700BF00E000BF00BF6F
:1093B00000BFD3E770B504460D4605B104B970BDD2
:1093C0002E462088102804D0502807D057280FD1C7
:1093D00009E02146304605F01FFE0AE021463046EE
:1093E00006F0BAFA05E02146304606F02FF900E013
:1093F00000BF00BF00BFE2E730B503460020042BEA
:1094000023D2012A07D1012903D103F10E04E4B2CA
:1094100000E00024224679B1012902D0022911D1AD
:1094200004E003EB43040A4D2A550DE003EB43042B
:10943000074D2C44627007E003EB4304044D2C44B9
:10944000A27001E0072000BF00E0072030BD00004F
:10945000B48200202DE9FC4704460D461646A71CA1
:109460004FF001080020019001A8FFF787F830486D
:10947000006828602E4800682D494968411A2C4828
:109480008068401CA0EB010915E00121294803F088
:10949000A7F902F00FFF82465146264803F0A0F9D3
:1094A0002348006822494968411A21488068401CC5
:1094B000A0EB010900BF4F45E7D8B8F1000F30D04D
:1094C0000021009176B1009921F00301491C00911F
:1094D000009921F00401091D0091009964F389119C
:1094E00000910DE0009921F00301891C0091009981
:1094F00021F00401091D0091009964F39F5100912E
:109500000B4909680A4A92681140094A0C3202EB79
:109510008100009901600649096839440C3A1160DC
:1095200000BF9DF80400FFF72FF84046BDE8FC8718
:109530000CBF002028C3002070B504460D460A2D3C
:1095400003D10D212046FFF7F7FFA168481CA0605A
:1095500020684554D4E90110884202D3204603F024
:1095600016FD70BD0448406803490968884201D16E
:10957000012070470020FCE70CBF00207CB50446AA
:10958000204602F0FBF8054600236A46092106F052
:1095900095FD052805D10122024801782046FFF7F4
:1095A00047FD7CBDB87800207CB504460E460020FF
:1095B000019042F6A620ADF8040001208DF80600C7
:1095C0000748006800906A4601A92046A0DF0546CA
:1095D0002DB90122034801782046FFF729FD7CBD03
:1095E00008D60500B978002001468879012809D1FC
:1095F0000879012806D1488842F60212904201D12A
:10960000012070470020FCE70146024850F8210085
:1096100070470000B8BA0020014601484056704724
:10962000E8BA0020F8B504460E4694F8C60200EBEE
:109630008001C1EB801004EB400594F8C502B8B17D
:1096400094F8C522521ED1B294F8C62202EB8203CE
:10965000C3EB821204EB420501EBC10305F10A02E0
:1096600002EB43000289521C92B2ADF8002002E0E6
:10967000E888ADF800002889ADF802006946304658
:109680009DDFF8BD2DE9F04104460D464FF6FF760B
:10969000304684420AD14FF48071284603F03DF8E9
:1096A00086B2B6F5807F10D126460EE0FF2C0CDC8A
:1096B0002146284603F01AF880F001070FB1204632
:1096C00001E04FF6FF70064600BF3046BDE8F0816E
:1096D00070B505460DB9094C01E0084C083409E0A5
:1096E000204602F04CFB064606B904E028467168A5
:1096F000884700BFF4E700BF70BD0000ACBA00208F
:1097000070B503F057FB044600BF254635B100BFD6
:1097100003A23D212846FCF7CDFD00BF00BF70BD70
:109720002E2E5C2E2E5C2E2E5C6D61696E2E6300DB
:1097300010B504462CB90120064948700020FFF7F7
:10974000C7FF012C04D1012002498870FFF7C0FF38
:1097500010BD0000A4BA002030B5034615686C1C8B
:1097600014604D5DDD24E554E45C14B1012C18D186
:109770000BE0042483F8EC4003F13C04C3F8D04030
:109780000825D424E55001200DE0052483F8EC40A1
:1097900003F1BC04C3F8D0400125D424E5500220D5
:1097A00001E0082000BF00BF30BD10B50E2004F05E
:1097B0000CF8642003F0E6FA0E2004F01CF8642094
:1097C00003F0E0FA0F2004F016F8642003F0DAFA50
:1097D00011200BF059F8782003F0D4FA36200BF062
:1097E00053F800200BF059F83A200BF04DF8052003
:1097F0000BF053F8B2200BF047F80C200BF04DF8AB
:109800000C200BF04AF800200BF047F833200BF047
:1098100044F833200BF041F8B7200BF035F8352031
:109820000BF03BF8BB200BF02FF819200BF035F8AC
:10983000C0200BF029F82C200BF02FF8C2200BF0E1
:1098400023F801200BF029F8C3200BF01DF812209B
:109850000BF023F8C4200BF017F820200BF01DF8B4
:10986000C6200BF011F80F200BF017F8D0200BF0EA
:109870000BF8A4200BF011F8A1200BF00EF8E0205B
:109880000BF002F8D0200BF008F804200BF005F8DC
:109890000D200BF002F811200AF0FFFF13200AF050
:1098A000FCFF2B200AF0F9FF3F200AF0F6FF5420BE
:1098B0000AF0F3FF4C200AF0F0FF18200AF0EDFF49
:1098C0000D200AF0EAFF0B200AF0E7FF1F200AF044
:1098D000E4FF23200AF0E1FFE1200AF0D5FFD020C9
:1098E0000AF0DBFF04200AF0D8FF0C200AF0D5FFB5
:1098F00011200AF0D2FF13200AF0CFFF2C200AF02B
:10990000CCFF3F200AF0C9FF44200AF0C6FF5120D7
:109910000AF0C3FF2F200AF0C0FF1F200AF0BDFF8E
:109920001F200AF0BAFF20200AF0B7FF23200AF018
:10993000B4FF21200AF0A8FF29200AF0A5FF10BDDE
:1099400033B58BB00546002000900C9878B1002408
:109950000BE021460CA802F010FF28B1009A501C21
:10996000009001A820F81240641C142CF1D32C2282
:1099700069462846FCF7C2FD0DB030BDF8B5054676
:109980000C46607A88B9207A10B91048476801E01F
:109990000E4887682A4639466068FEF733FD06465A
:1099A00016B1304608F024FC0EE000202072074873
:1099B000406948B101208DF80000ADF8025003481D
:1099C00041696846884700BFF8BD000014B4002014
:1099D000F0B587B004460D4617461E4618220B49BF
:1099E00001A8FCF78BFDADF806408DF80C50ADF8E2
:1099F0000E708DF810600022054801782046FFF7B0
:109A000017FB01A800F0D0FE07B0F0BDE4D60500BA
:109A1000EC78002010B586B00446208806F0C4F823
:109A200000BB2088FFF78EFA30B92088012241F26E
:109A3000060100F0E7FB15E0208800220A490978BA
:109A4000FFF7F6FA02208DF800002088ADF802003A
:109A500000208DF8080000218DF80910684600F0FC
:109A6000A3FE00BF06B010BDEC78002070B5044620
:109A70000D4629462046FEF741F970BD10B501227A
:109A800000210846FFF7B8FC044600BF1CB1072CB4
:109A900001D0204610BD00BF072202210120FFF7A0
:109AA000ABFC044600BF1CB1072C01D02046F1E7F7
:109AB00000BF042202210020FFF79EFC044600BFE5
:109AC0001CB1072C01D02046E4E700BF0020E1E7ED
:109AD0002DE9FF4105460C46002002900390ADF8A9
:109AE0000840ADF80A40009001906A4602A9284655
:109AF00090DF0646002E32D0304604F067FD074660
:109B000019491A4A891AC908012242EA01403B460A
:109B10002A46174904F078F9BDF8000010B9BDF8DD
:109B2000020068B1BDF80230BDF800200E490F4FA9
:109B3000C91BC908012747EA01400EA104F064F9D6
:109B4000BDF8040058B1BDF804200749074BC91AF5
:109B5000C908012343EA0140164904F049F9304697
:109B600004B0BDE8F081000030F50500F8F4050010
:109B700044E005005468652072657175657374650D
:109B8000642054582F5258207061636B6574206CA8
:109B9000656E67746820697320746F6F206C6F6ED8
:109BA000672062792025752F2575206F6374657491
:109BB000732E000090E005002DE9F04105460F46A8
:109BC0000F4C0121204602F042FE064600BF00BFB6
:109BD00000BF00BFBFF35F8F00BF00BF00BF0EB963
:109BE000012000E0002040B1284602F0B5FA08B19B
:109BF000BDE8F081024804F01FFB00BFF8E7000059
:109C0000B078002070B506460D460EB1012070BD3B
:109C1000287920B1012809D0022813D10FE00220B1
:109C20002871284607F022FE04460DE0284600F081
:109C3000A3FE04460A2C01D141F61D5404E041F66E
:109C40001D5401E00F2400BF00BF2046DFE72DE9CF
:109C5000F84F04460F4690464FF0000B94F8C602AA
:109C600000EB8001C1EB801004EB400594F8C502C5
:109C700000EBC00105F10A0000EB410A94F8C502AF
:109C8000401C2979884207D16B4600225146204664
:109C900002F021F8834627E094F8C5621FE0287996
:109CA000401EB04202D14FF0000906E0701C00EBEC
:109CB000C00105F10A0000EB41096B464A465146D6
:109CC000204602F008F810B14FF0010B0AE0CA4636
:109CD00094F8C502401C84F8C502701CC6B22879ED
:109CE000B042DCDC00BF00BFBBF1000F04D101209B
:109CF00038700020BDE8F88F002038706946404673
:109D00009EDFF7E770B5044620793D2802D141F285
:109D10003D0001E04FF48850054620880022294686
:109D200002F06AF970BD00002DE9F04104460D46CD
:109D3000164694F8C60200EB8001C1EB801004EBDC
:109D40004008404607F0F4FE0746B7B31C480068D9
:109D5000062832D21B481A49096800EBC110468018
:109D60001849174A126801EBC211081D76224146B4
:109D7000FCF7C4FB3DB100201249114A126801EB07
:109D8000C211087006E002200E490D4A126801EB6C
:109D9000C21108700B480A49096800EBC110C76777
:109DA00007480068401C06490860084600680649E4
:109DB0000968884201D106F063FBBDE8F08100002C
:109DC0009C780020C0B40020A07800202DE9F0414C
:109DD000A0B004460D46164694F8C60200EB80017A
:109DE000C1EB801004EB4008404607F0A1FE074697
:109DF00057B17C22064901A8FCF780FBADF806604C
:109E0000029501A8B84700BF20B0BDE8F08100006E
:109E10003CD505002DE9F04104460D464FF4337161
:109E20002046FCF784FBA4F8CA52002018490860B9
:109E300084F8C90284F8C60284F8C50294F8C60200
:109E400000EB8001C1EB801004EB400794F8C602E0
:109E5000104901EB8000006838603A46012128462D
:109E60009BDF0646112E0CD000BF304608B1BDE87E
:109E7000F08100BF012084F8C702002084F8C802E6
:109E800004E0012084F8C70284F8C8020020EEE74D
:109E90009C780020A8B400202DE9F04F2DED0A8B0E
:109EA00081B006460F469046994608EB48014800A7
:109EB000FCF775FC9FED3A0B53EC102BFCF7FDFB08
:109EC0009FED390B53EC102BFCF7F4FB41EC1A0B14
:109ED000B0EE4A0AF0EE6A0AFDF7E6F9B0EE409AF3
:109EE000F0EE609A9FED320B53EC102B51EC190BF6
:109EF000FCF7E3FBFCF764FC824608EB48014800F2
:109F0000FCF74DFC9FED260B53EC102BFCF7D5FB1B
:109F10009FED250B53EC102BFCF7CCFB41EC1A0BFF
:109F2000B0EE4A0AF0EE6A0AFDF722FAB0EE409A65
:109F3000F0EE609A9FED1E0B53EC102B51EC190BB9
:109F4000FCF7BBFBFCF73CFC8346002421E000252A
:109F50001BE007EB050EAEEB0B0E1FFA8EF306EBC4
:109F6000040ED6441FFA8EF207EB050E1FFA8EF18F
:109F700006EB040E1FFA8EF0DFF83CE0CDF80090FF
:109F8000DEF810C0E047681CC5B2052DE1DB601C9F
:109F9000C4B2052CDBDB01B0BDEC0A8BBDE8F08F51
:109FA0001839359D46DF913F4AD8124DFB21F93FC4
:109FB0000000000000805B405C8200202DE9F04F33
:109FC000A3B007468846DDF8B0B0382112A8FCF7E8
:109FD000AEFA48221A496846FCF790FA032022900C
:109FE0004FF01809182021902090002421E000252E
:109FF0001BE009FB04501DF800A0002611E00AF048
:10A00000010050B1082202FB0482324491B27A1955
:10A0100090B20C4A93685A4698474FEA6A0A701CF5
:10A0200086B2082EEBDB681C85B24D45E1DB601C77
:10A0300084B222988442DADB23B0BDE8F08F0000BE
:10A04000986E05005C8200202DE9F84F81468A4613
:10A05000144698464FF0000BB8F1000F03D0B8F14A
:10A06000010F10D107E03E255B260F4850F8247001
:10A070004FF0010B08E01D252A260C4850F82470EB
:10A080004FF0010B00E000BF00BFBBF1000F08D094
:10A090000748009733462A465146D0F80CC0484638
:10A0A000E047BDE8F88F0000DC770020047800204E
:10A0B0005C820020F8B504460D46084850F825009B
:10A0C00050B1064850F825000090E388A2886188C6
:10A0D0002088034FFE68B047F8BD00000C770020D1
:10A0E0005C8200202DE9FF4F83B0814615461E4655
:10A0F000DDF840B000270020019002902048854202
:10A1000002D907B0BDE8F08F00240FE00A20B5FBAC
:10A11000F0F100FB115001A90855781C47B20A2044
:10A12000B5FBF0F505B903E0601C44B2082CEDDB8B
:10A1300000BF16B1012E02D100E001E000E000BF37
:10A1400000BF4FF00008002416E0781E001B4FFAF5
:10A1500080FA01A911F80A2009EB080188B23346F8
:10A160000499FFF771FF304600F0C4FF40445844A3
:10A1700000F0FF08601C44B2BC42E6DB00BFC0E751
:10A180007F969800F8B504460D4600956788B4F8A8
:10A1900006C06744BBB22788B4F804C06744BAB2AB
:10A1A00061882088014F7E69B047F8BD5C8200203D
:10A1B00010B50021034802F04AFB044684F3100066
:10A1C00010BD000028C3002001210120094A1268A7
:10A1D0000AB100200CE0084A12680AB1002007E02A
:10A1E000064A1368064A1268521E934200D10220A2
:10A1F000704700007CB3002064780020A4B30020E6
:10A200005078002070B506460C4615462B4622466F
:10A2100000213046FFF7DCFB70BD00002DE9F8435C
:10A2200005460E461746984669461048006802F0F3
:10A2300016FA044614B90420BDE8F8831C21204610
:10A24000FCF775F9012020712560C4F808800848E2
:10A250000068B6FBF0F0E06067616946034800689B
:10A2600002F027FA07F038FA0020E5E798D8050051
:10A270008CD8050010B50446D4E90321501828DF16
:10A2800010BD000013480078062820D11148001D99
:10A29000007800F00F00D0B90E480830007800F0C8
:10A2A000F000302801D1012070470A4808300078BA
:10A2B00000F0F000402801D10120F5E70548083002
:10A2C000007800F0F000502801D10120ECE70020D8
:10A2D000EAE70000E00F00F013480078062820D1DC
:10A2E0001148001D007800F00F00D0B90E4808306A
:10A2F000007800F0F000302801D1012070470A48B2
:10A300000830007800F0F000402801D10120F5E786
:10A3100005480830007800F0F000502801D10120F5
:10A32000ECE70020EAE70000E00F00F013480078B7
:10A33000062820D11148001D007800F00F00D0B988
:10A340000E480830007800F0F000302801D10120DC
:10A3500070470A480830007800F0F000402801D12A
:10A360000120F5E705480830007800F0F00050289B
:10A3700001D10120ECE70020EAE70000E00F00F047
:10A380000A48007806280ED10848001D007800F021
:10A390000F0040B905480830007800F0F000302880
:10A3A00001D1012070470020FCE70000E00F00F021
:10A3B00006480068062806D10448001D00680628E3
:10A3C00001D1012070470020FCE70000300100109F
:10A3D00013480078062820D11148001D007800F0AD
:10A3E0000F00D0B90E480830007800F0F000302897
:10A3F00001D1012070470A480830007800F0F000D1
:10A40000402801D10120F5E705480830007800F028
:10A41000F000502801D10120ECE70020EAE700001D
:10A42000E00F00F00A48007806280ED10848001D09
:10A43000007800F00F0040B905480830007800F0BF
:10A44000F000302801D1012070470020FCE7000017
:10A45000E00F00F013480078062820D11148001DB5
:10A46000007800F00F00D0B90E480830007800F0F6
:10A47000F000302801D1012070470A4808300078E8
:10A4800000F0F000402801D10120F5E70548083030
:10A49000007800F0F000502801D10120ECE7002006
:10A4A000EAE70000E00F00F00A48007806280ED125
:10A4B0000848001D007800F00F0040B9054808303A
:10A4C000007800F0F000302801D101207047002012
:10A4D000FCE70000E00F00F00A48007806280ED1E3
:10A4E0000848001D007800F00F0040B9054808300A
:10A4F000007800F0F000302801D1012070470020E2
:10A50000FCE70000E00F00F00A48007806280ED1B2
:10A510000848001D007800F00F0040B905480830D9
:10A52000007800F0F000502801D101207047002091
:10A53000FCE70000E00F00F00278072A38D2DFE8DD
:10A5400002F037040712222B340000220A7030E098
:10A5500001220A7003898B818388CB81C2688A605B
:10A5600000230B7425E002220A7003898B81838803
:10A57000CB81C2688A60827D062A01D1012300E076
:10A5800000230B7415E003220A70C3888B810389B2
:10A59000CB81C2688A600CE004220A70C3888B8178
:10A5A0000023CB8100228A6003E005220A7000E0CC
:10A5B00000BF00BF7047000070B50546002409E0E9
:10A5C000064850F8240020B1044850F824102846CA
:10A5D0008847641C042CF3D370BD0000D4BB00205A
:10A5E00030B587B004460D462068806808B907B0CA
:10A5F00030BD182101A8FBF79AFF0295A0680690CC
:10A60000207910B1012815D109E001208DF804004E
:10A6100020690390E0680490606905900BE00220D7
:10A620008DF804000749E0680968484303906069B1
:10A63000059000E000BF00BF2068816801A888473E
:10A6400000BFD4E78CD80500F0B587B005460C46AE
:10A650001646002C4BD0112C49D0082C47D018217D
:10A6600001A8FBF764FFADF80650284601F086F814
:10A67000ADF808000D2C1FD11E491F4A891AC908C0
:10A68000022242EA01402A461C4903F0B1FB0320A2
:10A690008DF804002EB1307800F0010008B10120DF
:10A6A00000E002208DF80C0000218DF8101041F21E
:10A6B0000111ADF80E1016E0204603F087FF0746A3
:10A6C0000C490D4A891AC908012242EA01402B4669
:10A6D0003A460B4903F098FB07208DF804000394D9
:10A6E00000218DF8101001A800F072F800BF07B02B
:10A6F000F0BD000068F50500F8F40500C4E70500AA
:10A70000D4E8050010B50446204600F061F810BDFD
:10A7100070B50446608801F031F8A080002505E09E
:10A72000044850F82510204688476D1C002DF7D0AE
:10A7300070BD0000A878002070B50446A08800F025
:10A740004DFF6080002505E0044850F825102046A4
:10A7500088476D1C002DF7D070BD0000BC7800202C
:10A7600070B50546002405E0044850F8241028463A
:10A770008847641C022CF7D370BD00004CD605003E
:10A7800070B50546002405E0054850F82410284619
:10A790008847641C034800788442F5DB70BD0000E4
:10A7A00058BA0020EA78002070B50446608800F0AE
:10A7B000E5FFA080002505E0044850F8251020465C
:10A7C00088476D1C002DF7D070BD000098D605009D
:10A7D00070B50546002405E0044850F824102846CA
:10A7E0008847641C002CF7D070BD00003CD70500E2
:10A7F00082B0CDE9000121F0004001909DED000BF9
:10A8000002B051EC100B704738B505460E48007881
:10A8100008B9022038BD4FF6FF70854201D10420EF
:10A82000F8E7684606F048FE04460CB90820F1E750
:10A830000520207001202071E580684606F04CFE5E
:10A8400006F03EFF0020E5E72479002038B50446F5
:10A850000CB9052038BD6946204607F025F800B33D
:10A86000BDF8000000EB80000F4901EB8000C068DC
:10A87000A8B1A07A98B1BDF8000000EB800001EB10
:10A880008000C068401EBDF8001001EB8101064A3F
:10A8900002EB8101C8600020A072002502E00625BD
:10A8A00000E00A252846D5E780BC00207FB5144685
:10A8B0001D462B46224601A9684606F091FF04B0CA
:10A8C00070BD37B50C4615462B462246694600201A
:10A8D00006F086FF3EBD37B50C4615462B46224690
:10A8E0000021684606F07CFF3EBD024602B109B970
:10A8F00005207047106808600020FAE7F8B50446A4
:10A900000D4604B10DB90520F8BD6946204606F094
:10A91000CBFFA0B16668BDF8001001EB8101094AC8
:10A9200002EB810101F10C00012101F059FF2E60C1
:10A9300060680C3068600120A0720020E4E70A2003
:10A94000E2E7000080BC002070B504460D460CB95B
:10A95000052070BD032300222946204609F0B6FFDA
:10A96000F7E770B504460D4602230022294620462B
:10A9700009F0ACFF70BD00003EB504460A4B6A46C4
:10A980000021A01D06F02CFF054635B9064A918826
:10A99000019807F003F8054603E003480021016031
:10A9A000416028463EBD0000407900200146A1F5E7
:10A9B000404080B2704710B50446A07FFF2802D007
:10A9C000A07F02F039FF00206077207204F10800B8
:10A9D000D4E90021904710BD70B504460D464FF4F0
:10A9E0000E72115B0122D4F83402FEF768F90646B4
:10A9F00006B1357004F13C0204F50D7104F1540008
:10AA000072DF70BD2DE9F04106460C461546002761
:10AA1000112C01D1012700E0002765B13A460A4810
:10AA200001783046FEF704FB0022084801783046E2
:10AA3000FEF7FEFA05E03A46044801783046FEF794
:10AA4000F7FABDE8F08100000779002004790020C2
:10AA5000F7B50D4617460DB90020FEBD002600983B
:10AA600068B1002409E02146684601F086FE18B16D
:10AA7000A0B23946A847761C641C142CF3D3304688
:10AA8000EBE710B50446606806F072FD10BD0000EB
:10AA900070B505460DB1012070BD1848007B18B196
:10AAA00000201649087301E000F0DEF81348007832
:10AAB00008281DD2DFE800F01C04080C101C141834
:10AAC00000F03EF8044615E000F0BCF8044611E042
:10AAD00000F098F804460DE000F046F8044609E05E
:10AAE00000F02CF9044605E000F03AF9044601E0D4
:10AAF0000F2400BF00BF2046CEE70000A8BC002006
:10AB00000D480089401C0C490881002048800873CA
:10AB100000BF0DE000EB8001084A12F8211009B9CE
:10AB2000012200E0002204490A310A54411C88B283
:10AB30000228EFDB70470000A8BC002080BC00208A
:10AB400010B5084800F036F840B900200549891EC4
:10AB500008704880486041F61D5010BD00F072F842
:10AB6000FBE70000AABC002070B50F48458805EB44
:10AB700085000E4901EB8000C06878B904200A49BD
:10AB8000087005EB8500094A02EB800000230122D2
:10AB90004168074802F002FB044602E000F090F82A
:10ABA0000446204670BD0000A8BC002080BC0020E8
:10ABB000487A002010B501460022002018E00F4B13
:10ABC0001B5C9BB100240D4B1C5400EB80030C4C10
:10ABD00004EB8303DB684BB900EB800304EB8303D6
:10ABE0001B7C012B02D10880012203E0431C98B298
:10ABF0000228E4DB00BF104610BD0000B2BC0020FC
:10AC000080BC0020F8B50C4844680C4800680B492B
:10AC1000898800EB81056088C01C86B20320064944
:10AC200008700020B3000090084629464268044896
:10AC300002F0D6FBF8BD0000A8BC00203879002047
:10AC4000487A002010B507494888091D06F06AFEB9
:10AC500018B1FFF7D7FF044602E0FFF785FF04466F
:10AC6000204610BDA8BC002010B514480078082864
:10AC700020D2DFE800F0041F1F0A1016171BFFF791
:10AC80003FFF01200D49087015E000F075F8022023
:10AC90000A4908700FE000F029F8062007490870FB
:10ACA00009E000BF07200549087004E001200349BE
:10ACB000087000E000BF00BF10BD0000A8BC00206D
:10ACC00010B505200649087002200649888008460C
:10ACD000002301220168044802F060FA10BD000060
:10ACE000A8BC002038790020487A00201049086864
:10ACF0001049498801EB81010F4A02EB8101496843
:10AD00000B4A11600B49498801EB81010A4A02EBA9
:10AD10008101486006498988064A528802EB82020E
:10AD2000054B03EB820211810221014A9180704799
:10AD300038790020A8BC002080BC002010B5062077
:10AD400005490870498801EB8101044A02EB810141
:10AD5000486804F007FF10BDA8BC002080BC00209C
:10AD600010B50720034908700020486004F00AFF6E
:10AD700010BD0000A8BC0020054A50684288D21CC3
:10AD800091B2044A92880A44024B9A8070470000AC
:10AD9000A8BC0020387900202DE9F04186B0044697
:10ADA000A688208850282ED004DC352836D03628B6
:10ADB00008D189E0522802D05428F9D103E0304666
:10ADC00001F05CF9B9E0182263496846FBF796FB8D
:10ADD000ADF80260304600F0D1FCADF80400BDF8DB
:10ADE000040000F095F900225C4801783046FEF737
:10ADF0001FF900225A4801783046FEF719F96846D3
:10AE0000FFF786FC99E0A01DFEF7EEFB28B10121BB
:10AE1000304601F095F908F0A9FF8EE00027A688DA
:10AE200004F10A054F4801783046FEF7EBF800B907
:10AE300083E000224B4801783046FEF7F9F8E088BD
:10AE4000B0F5857F3AD0E08858B1E2884649474B53
:10AE5000C91AC908022343EA014045A102F0C8FF0C
:10AE60002CE0288801280AD02A883F493F4BC91A7C
:10AE7000C908022343EA01404CA102F0B9FF6888E7
:10AE800001280BD06A883849384BC91AC9080223EF
:10AE900043EA014054A102F0ABFF0FE0A988002271
:10AEA0003046A1DF8046B8F1000F06D1012701220C
:10AEB0005C4801783046FEF7BBF800BF1FB900219F
:10AEC000304608F013F838E00027A68804F10A0598
:10AED000544801783046FEF795F800B92DE000227D
:10AEE000504801783046FEF7A3F8E08858B1E28870
:10AEF0001D491E4BC91AC908022343EA01401CA17F
:10AF000002F076FF14E0A88801280BD0AA88164921
:10AF1000164BC91AC908022343EA014032A102F0C4
:10AF200067FF05E0A87908B1012000E0002007468E
:10AF30003946304607F0DAFF00BF00BF00BF0022ED
:10AF400039493A480078FEF70DF800BF07F052FA89
:10AF500006B0BDE8F08100001CD60500B7780020DF
:10AF6000B6780020B978002018F50500F8F405003F
:10AF7000556E65787065637465642047415454204C
:10AF8000737461747573207768696C652067657484
:10AF900074696E6720434152206368617220766154
:10AFA0006C75653A20307825780000004D756C741A
:10AFB00069706C652028256429204341522063680C
:10AFC0006172616374657269737469637320666F1B
:10AFD000756E642C207573696E67207468652066D1
:10AFE000697273742E000000556E65787065637425
:10AFF00065642043415220636861726163746572C5
:10B0000069737469632076616C7565206C656E6721
:10B01000746820282564292C2073746F7265203091
:10B020002E000000BA78002095870200B578002035
:10B0300010B50446207858B9608801F01FF8608880
:10B0400007F0C8F96088FEF799FA08F08FFE00E073
:10B0500000BF00BF10BD00007CB504462078082862
:10B0600040D1607A00283DD1207A012814D00728E9
:10B0700002D0082834D12BE0A08800F0AFFA0546B2
:10B080004FF6FF70854206D00121284601F058F89E
:10B090002846FEF773FA24E0A0886A46012104F0EE
:10B0A000A5FE06469EB90198007880B1A08800F000
:10B0B00095FA05464FF6FF70854207D001220B48EE
:10B0C00001782846FDF7B4FF07F094F900BF08E0C7
:10B0D00007480068012802D1054803F0ADF800E0F8
:10B0E00000BF00BF08F042FE7CBD0000B678002023
:10B0F000B07800200146002011B1012904D101E0FF
:10B100003E2002E01D2000E000BF00BF70470000AD
:10B110001CB50446044903C9CDE900010022694673
:10B12000204605F019F81CBD44D605002DE9FC4762
:10B130000546284600F022FB06460027B8464FF099
:10B1400003094FF0010A4FF6FF7086420DD06A46A0
:10B150000821304604F04AFE044634B90198871DA0
:10B16000B0F80480D0F8009000BF00BF4B464246C4
:10B1700039462846B1DF0446042C01D1112422E0CF
:10B18000082C01D100241EE00B2C1CD14FF0000A2A
:10B1900009F0020010B14FF0010914E017B9B8F13D
:10B1A000000F04D00027B8464FF003090BE00A490E
:10B1B0000A4A891AC908012242EA01402A46084976
:10B1C00002F016FE03240B2CD0D0BAF1000F00D1F0
:10B1D0000B242046BDE8FC8720F50500F8F40500A7
:10B1E000CCDF05002DE9FC5F8046404600F0C6FA42
:10B1F00006464FF6FF70864203D143F20200BDE8D7
:10B20000FC9F4FF001094FF0000A00BF4FF0000A09
:10B210004A46511C1FFA81F96B460821304604F05A
:10B2200047FE0446002C31D1019D032028602A1DD1
:10B23000A91D40462B68B2DF044634B932460821C6
:10B24000304604F0BDFE04461FE00C2C02D14FF046
:10B25000010A02E0052C00D100240821304604F048
:10B260009FFE074687B1384603F0B0F983460C4984
:10B270000C4A891AC908012242EA01405B4632465B
:10B28000094902F0C1FD032400BF02E0072C00D1F0
:10B290000C24BAF1000FB9D100BF2046AFE700007F
:10B2A00020F50500F8F405004CDF050010B5044654
:10B2B000044800884FF6FF71884201D007F0A6F8D5
:10B2C00010BD0000C2780020FEB5044602A801901F
:10B2D000204600F053FA06466A460121304604F043
:10B2E00085FD05460DB10020FEBD01980078FBE705
:10B2F0002DE9F04105464FF6FF761648B3DF0446C8
:10B300008CB1204603F062F907461349134A891AA3
:10B31000C908012242EA01403A46114902F068FD9B
:10B320000320BDE8F08100BF4FF6FF720948018895
:10B330002846AFDF044643F20300844204D10548A7
:10B340000088401C0349088043F203008442EBD08C
:10B350002046E6E7C478002020F50500F8F4050053
:10B3600000DF050038B504460A4820600020606010
:10B370000948A060094820610948E0600948606107
:10B380002068804700200090F0231A460146656936
:10B39000A84738BDC52D0300272D0300FD2B030052
:10B3A000AF2C03005D2D030010B50248FFF7DAFF54
:10B3B00010BD00005C8200201FB50D2002F0B0F926
:10B3C0000E2002F0ADF90F2002F0AAF90D4B0FCBC1
:10B3D0008DE80F000C208DF8000004208DF802008D
:10B3E0000B208DF8010003208DF80300C0070290A8
:10B3F00000231A466946044801F04AFD04462046E7
:10B4000004B010BD28D5050010D5050070B5044660
:10B410000D46204600F01AF8A84201D9022070BD5E
:10B42000A0884FF6FF71884201D0208808B901201A
:10B43000F5E70020F3E7024613468B4204D2186872
:10B44000401C08B1012070470020FCE701464A88F3
:10B4500001F10C0000EB820070470000024909680E
:10B46000491C014A11607047207000203EB5044617
:10B470000D4620780221B1EB500F01D000203EBDD7
:10B48000B4F80100ADF80800E0788DF80A00A18852
:10B49000ADF80010A0798DF8020001AA694628468F
:10B4A000FCF7D0FD032201A902A8FBF752F808B966
:10B4B0000120E4E70020E2E770B504460D46142CB5
:10B4C00003DA2046FDF7D2FD10B943F2020070BD49
:10B4D00004EB8400054901EB4000D0F8021029601C
:10B4E000C188A980007AA8710020F0E7C0B70020C9
:10B4F00030B591B005462888102801D011B030BD74
:10B500002C22291D06A8FAF7F9FF4FF6FF749DF8C3
:10B510001C000321B1EB500F35D004F0C7FD9DF89E
:10B520001C00400820B1012803D0022828D114E0D3
:10B5300000BF09E0049800F1110107A8FCF7ACFC7A
:10B5400010B1BDF8144006E003AA05A9072004F0D5
:10B5500077FD0028EED100BF13E008E00498411CFD
:10B5600007A8FFF783FF10B1BDF8144006E003AA57
:10B5700005A9072004F064FD0028EFD100BF00E01A
:10B5800000BF00BF00BFBDF8180000EB80001249EB
:10B5900021F81040BDF8180000EB800001EB4000DE
:10B5A0000799C0F80210BDF82010C1809DF8221044
:10B5B00001724FF6FF7084420CD0BDF81800ADF850
:10B5C0000200ADF8044000208DF800006846FFF747
:10B5D000C7F800BF00BF91E7C0B7002070B50546AF
:10B5E0004FF6FF70854200D170BD00240EE004EBE1
:10B5F0008400094931F81000A84205D12046FDF722
:10B6000035FD08B12046EFE7601C84B2142CEEDB58
:10B610004FF6FF70E8E70000C0B700203EB50546D2
:10B620000C4604F043FD0BE0BDF80800A04207D033
:10B630002846019900F00EF810B1BDF808003EBD93
:10B640006A4602A9072004F0FBFC0028ECD14FF663
:10B65000FF70F4E72DE9F04704460D4604F11106AA
:10B6600005F111071022691C601CFAF772FF48B936
:10B67000601C00F05FFB28B1681C00F05BFB08B1A8
:10B68000012000E00020824639463046FCF704FCE9
:10B69000804630780221B1EB500F10D03078032172
:10B6A000B1EB500F0BD038780221B1EB500F06D020
:10B6B00038780321B1EB500F01D0012000E00020C9
:10B6C0008146B8F1000F02D0B9F1000F05D1BAF1EF
:10B6D000000F05D0B9F1000F02D10120BDE8F087BD
:10B6E0000020FBE70246108808B1012070470021C6
:10B6F00005E0901C405C08B10120F7E7491C0829CF
:10B70000F7D30020F2E770B505460C462846FFF750
:10B71000E9FF08B9002070BD28882188884201D03F
:10B720000020F8E70822A11CA81CFAF712FF08B9AC
:10B730000120F0E70020EEE7142804DA00EB800295
:10B74000014B23F812107047C0B7002070B50646B1
:10B750003046FFF743FF0446304604F053FB0546EE
:10B7600045B9142C06DA4FF6FF7004EB8401024A47
:10B7700022F81100284670BDC0B7002010B504465D
:10B78000142C03DA2046FDF771FC10B94FF6FF7058
:10B7900010BD04EB8400024931F81000F8E7000006
:10B7A000C0B700203EB5044604F080FC10E00198CC
:10B7B00000F146012046FFF7A6FF30B9019800F1DD
:10B7C0002A012046FFF79FFF10B1BDF808003EBDDB
:10B7D0006A4602A9072004F033FC0028E7D14FF69F
:10B7E000FF70F4E770B504460D46094860600948EB
:10B7F00000F0EFFF50B902F017FE064908741C2351
:10B800008C2205490548006800F015FF002070BD36
:10B810008CD8050060BD0020C4BC002098D805006D
:10B820002DE9F04106460C460F272EB10020424973
:10B8300048600120BDE8F081207930B101280AD0AC
:10B84000022835D003286DD140E00120207104F09A
:10B8500099F9074667E04FF00008002519E005EB6D
:10B860008500364911F82000022810D1002005EB90
:10B870008501324A02F821004FF0010805EB8501ED
:10B8800002EB8101486804F06DF9074603E0681C8B
:10B8900085B2022DE3DB00BFB8F1000F07D1012014
:10B8A000254908700020486041F61D50C2E73AE083
:10B8B00000202071022022498880084600230122AE
:10B8C0000168204801F06AFC07462CE00020207146
:10B8D0001B49086804F046F907461B484588184884
:10B8E000D0F8008005EB8500144901EB800040682A
:10B8F0001349086005EB8500104901EB8000C0F892
:10B9000004800F48808805EB85010C4A02EB810119
:10B91000088102200A498880002005EB850102F891
:10B92000210000E000BF00BF27B1002002494860AD
:10B930000E207FE700207DE72479002080BC0020D6
:10B9400038790020487A0020A8BC00200246002157
:10B950000CE001EB8100074B33F82000904204D14A
:10B9600001EB810003EB80007047491C0029F0D0F7
:10B970000020F9E700B400202DE9FC5F83460E4665
:10B9800091461F46DDE90C45002E01DA704200E0C9
:10B99000304682464FF0010803E09AFBF9FA08F1BD
:10B9A0000108CA45F9DA474500D9B84634B1002E36
:10B9B00003DB05F00400042800D1641E05F002003A
:10B9C00000B167B105F0010048B944B104E0641E5C
:10B9D00020215846FDF7B0FD0CB1A045F7D3002E4D
:10B9E00005DA76422D215846FDF7A6FD07E005F061
:10B9F0000400042803D12B215846FDF79DFD05F0D6
:10BA0000020002280DD105F0010050B94FB944B130
:10BA100004E0641E30215846FDF78EFD0CB1A045B0
:10BA2000F7D33B464A4631465846CDE9004508F033
:10BA300041F9BDE8FC9F000070B50546094928683A
:10BA400002F0EBFD286802F093FE0446204600F069
:10BA50001F0201219140044A430942F8231000BF0C
:10BA600000BF70BD8402020080E100E070B50546B1
:10BA70000949286802F002FE286802F07DFE0446AB
:10BA8000204600F01F0201219140044A430942F878
:10BA9000231000BF00BF70BD1003020080E100E072
:10BAA0002DE9F04104460E464FF48E71206802F0F5
:10BAB000A8FD4FF4A271206802F0A3FD1749206889
:10BAC00002F0AEFD206802F053FE054637462846D8
:10BAD0003946002809DA4A074FEA126C104A00F08A
